:020000040800F2
:10000000000002209D110408211204089D4E0608DC
:100010002112040821120408211204080000000023
:100020000000000000000000000000002112040891
:100030002112040800000000211204089DDF0508B9
:1000400021120408211204082112040821120408B4
:100050002112040821120408299E0508319E050872
:10006000399E0508419E0508499E05084DCA0408A9
:1000700061CA040879CA040891CA0408A9CA040814
:10008000C1CA0408D9CA04082112040821120408AC
:10009000211204082112040821120408519E0508A7
:1000A0002112040821120408211204087DD8040832
:1000B00095D80408A9D80408C1D8040819C70408A9
:1000C00009C7040839C7040829C70408211204080D
:1000D00021120408CDDC0408EDDC04080DDD040861
:1000E000599E0508211204080000000009D90408DF
:1000F00069D904088DD90408F1D80408F1CA0408A4
:100100002112040819E70408D9D8040821120408A8
:100110002DDD04084DDD040821120408BDFC04088F
:1001200009CB040821CB040839CB040851CB0408BF
:1001300069CB0408211204082112040821120408C2
:1001400000000000000000000000000000000000AF
:1001500081CB040899CB0408B1CB04086DDD0408F9
:1001600059C7040849C704082112040821120408C9
:1001700021120408211204082112040800000000C2
:1001800021120408211204088DDD0408ADDD0408E5
:100190002112040821120408211204082112040863
:1001A0002112040821120408211204082112040853
:1001B00021120408211204082112040879C7040836
:1001C00069C7040821120408211204082112040836
:1001D000211204084DF70408211204082112040812
:1001E0002112040821120408211204082112040813
:1001F0002112040821120408211204082112040803
:1002000021120408211204082112040821120408F2
:1002100021D9040839D9040851D904082112040845
:100220002112040821120408211204080000000011
:1002300029E7040821120408000000002112040824
:1002400021120408211204082112040821120408B2
:1002500021120408211204082112040821120408A2
:100260002112040821120408211204082112040892
:1002700021120408211204082112040800000000C1
:1002800021120408000000002112040800000000F0
:08029000000000002112040827
:08029800300C0400010000001D
:1002A0004C8C002401360000000020008C8C0024BF
:1002B0000133000000003C000C8C002402290500E2
:1002C00000021F002C8C0024011F000000000C0005
:1002D000AC8C0024011E000000000C006C8B00247C
:1002E0000119000000000C00AC8B00240118000074
:1002F00000000E008C8B00240117000000000C0091
:10030000CC8B0024011C000000001E00EC8B00249C
:10031000011B000000000E00CC8A00240116000022
:1003200000000C00AC8A00240115000000000C0045
:100330006C8C0024011A000000000D004C8B00247E
:100340000114000000001E002C8B0024011200008C
:1003500000007600EC8A0024020500000200120072
:0C0360000C8B00240204000002001300BB
:020000040804EE
:100000004B1C012B98BF70472DE9F003911C9B08F6
:10001000B1F80480B1F802900A8831F802CC80442B
:10002000814402448444D9F80070D8F8006015680F
:10003000DCF80040C9F80060C8F80070CCF8005047
:100040001460D9F80470D8F804605568DCF80440EE
:10005000C9F80460C8F80470CCF804505460083142
:10006000013BD5D1BDE8F00370474B1C012B98BF75
:1000700070472DE9F003911C9B08B1F80480B1F89A
:1000800002900A8831F802CC00EB580800EB5909BD
:1000900000EB520200EB5C0CD9F80070D8F800605D
:1000A0001568DCF80040C9F80060C8F80070CCF8AA
:1000B000005014600831013BDFD1BDE8F003704708
:1000C00010F8012B11F8013B012A28BF9A42F7D002
:1000D000D01A7047034613F8012B002AFBD1181AD7
:1000E0000138704700000000000000000000000020
:1000F00001F0FF01102A2BDB10F0070F08D010F8D9
:10010000013B013A8B422DD010F0070F42B3F6D1DC
:10011000F0B441EA012141EA014122F007047FF0F5
:1001200000070023F0E80256083C85EA010586EA4C
:10013000010685FA47F5A3FA87F586FA47F6A5FA88
:1001400087F68EB9EED1F0BC01F0FF0102F0070294
:1001500032B110F8013B013A83EA010313B1F8D13F
:100160000020704701387047002D06BF3546033820
:10017000073815F0010F07D1013015F4807F02BF59
:10018000013015F4C03F0130F0BC0138704700BFAA
:1001900081F0004102E000BF83F0004330B54FEA38
:1001A00041044FEA430594EA050F08BF90EA020FA5
:1001B0001FBF54EA000C55EA020C7FEA645C7FEA38
:1001C000655C00F0E2804FEA5454D4EB5555B8BF5B
:1001D0006D420CDD2C4480EA020281EA030382EACC
:1001E000000083EA010180EA020281EA0303362D5E
:1001F00088BF30BD11F0004F4FEA01314FF4801C31
:100200004CEA113102D0404261EB410113F0004F42
:100210004FEA03334CEA133302D0524263EB4303F9
:1002200094EA050F00F0A780A4F10104D5F1200E97
:100230000DDB02FA0EFC22FA05F2801841F10001F2
:1002400003FA0EF2801843FA05F359410EE0A5F1C6
:1002500020050EF1200E012A03FA0EFC28BF4CF0F7
:10026000020C43FA05F3C01851EBE37101F00045AD
:1002700007D54FF0000EDCF1000C7EEB00006EEBBA
:100280000101B1F5801F1BD3B1F5001F0CD3490844
:100290005FEA30004FEA3C0C04F101044FEA44529B
:1002A00012F5800F80F09A80BCF1004F08BF5FEA22
:1002B000500C50F1000041EB045141EA050130BD02
:1002C0005FEA4C0C404141EB0101013C28BFB1F514
:1002D000801FE9D291F0000F04BF01460020B1FA5F
:1002E00081F308BF2033A3F10B03B3F120020CDA32
:1002F0000C3208DD02F1140CC2F10C0201FA0CF010
:1003000021FA02F10CE002F11402D8BFC2F1200C74
:1003100001FA02F120FA0CFCDCBF41EA0C0190402A
:10032000E41AA2BF01EB0451294330BD6FEA040473
:100330001F3C1CDA0C340EDC04F11404C4F120025E
:1003400020FA04F001FA02F340EA030021FA04F370
:1003500045EA030130BDC4F10C04C4F1200220FAC7
:1003600002F001FA04F340EA0300294630BD21FA05
:1003700004F0294630BD94F0000F83F4801306BFCB
:1003800081F480110134013D4EE77FEA645C18BFBF
:100390007FEA655C29D094EA050F08BF90EA020F56
:1003A00005D054EA000C04BF1946104630BD91EA4E
:1003B000030F1EBF0021002030BD5FEA545C05D151
:1003C0004000494128BF41F0004130BD14F5800490
:1003D0003CBF01F5801130BD01F0004545F0FE4104
:1003E00041F470014FF0000030BD7FEA645C1ABF39
:1003F000194610467FEA655C1CBF0B46024650EA70
:10040000013406BF52EA033591EA030F41F400219B
:1004100030BD00BF90F0000F04BF0021704730B521
:100420004FF4806404F132044FF000054FF00001F6
:1004300050E700BF90F0000F04BF0021704730B5B7
:100440004FF4806404F1320410F0004548BF40428C
:100450004FF000013EE700BF42004FEAE2014FEAE1
:1004600031014FEA02701FBF12F07F4393F07F4FBC
:1004700081F06051704732F07F4208BF704793F0BF
:100480007F4F04BF41F40021704730B54FF46074D2
:1004900001F0004521F000411CE700BF50EA0102D5
:1004A00008BF704730B54FF000050AE050EA01027E
:1004B00008BF704730B511F0004502D5404261EBEE
:1004C00041014FF4806404F132045FEA915C3FF42F
:1004D000D8AE4FF003025FEADC0C18BF03325FEACC
:1004E000DC0C18BF033202EBDC02C2F1200300FA7D
:1004F00003FC20FA02F001FA03FE40EA0E0021FAA2
:1005000002F11444BDE600BF70B54FF0FF0C4CF48F
:10051000E06C1CEA11541DBF1CEA135594EA0C0F41
:1005200095EA0C0F00F0DEF82C4481EA030621EA7C
:100530004C5123EA4C5350EA013518BF52EA0335B7
:1005400041F4801143F4801338D0A0FB02CE4FF069
:100550000005E1FB02E506F00042E0FB03E54FF099
:100560000006E1FB03569CF0000F18BF4EF0010E91
:10057000A4F1FF04B6F5007F64F5407404D25FEA8D
:100580004E0E6D4146EB060642EAC62141EA555140
:100590004FEAC52040EA5E504FEACE2EB4F1FD0C82
:1005A00088BFBCF5E06F1ED8BEF1004F08BF5FEA00
:1005B000500E50F1000041EB045170BD06F00046B2
:1005C00046EA010140EA020081EA0301B4EB5C045F
:1005D000C2BFD4EB0C0541EA045170BD41F4801157
:1005E0004FF0000E013C00F3AB8014F1360FDEBF7C
:1005F000002001F0004170BDC4F10004203C35DA58
:100600000C341BDC04F11404C4F1200500FA05F3DA
:1006100020FA04F001FA05F240EA020001F000427B
:1006200021F0004110EBD37021FA04F642EB0601F1
:100630005EEA430E08BF20EAD37070BDC4F10C041B
:10064000C4F1200500FA04F320FA05F001FA04F2DF
:1006500040EA020001F0004110EBD37041F10001CB
:100660005EEA430E08BF20EAD37070BDC4F12005D6
:1006700000FA05F24EEA020E20FA04F301FA05F23E
:1006800043EA020321FA04F001F0004121FA04F2E6
:1006900020EA020000EBD3705EEA430E08BF20EAB6
:1006A000D37070BD94F0000F0FD101F000464000F0
:1006B00041EB010111F4801F08BF013CF7D041EA72
:1006C000060195F0000F18BF704703F00046520076
:1006D00043EB030313F4801F08BF013DF7D043EA47
:1006E0000603704794EA0C0F0CEA135518BF95EAFD
:1006F0000C0F0CD050EA410618BF52EA4306D1D184
:1007000081EA030101F000414FF0000070BD50EAA2
:10071000410606BF1046194652EA430619D094EA2C
:100720000C0F02D150EA013613D195EA0C0F05D116
:1007300052EA03361CBF104619460AD181EA03016A
:1007400001F0004141F0FE4141F470014FF0000022
:1007500070BD41F0FE4141F4780170BD70B54FF0BD
:10076000FF0C4CF4E06C1CEA11541DBF1CEA13553D
:1007700094EA0C0F95EA0C0F00F0A7F8A4EB05041F
:1007800081EA030E52EA03354FEA013100F0888016
:100790004FEA03334FF0805545EA131343EA1263DF
:1007A0004FEA022245EA111545EA10654FEA002694
:1007B0000EF000419D4208BF964244F1FD0404F54D
:1007C000407402D25B084FEA3202B61A65EB0305A9
:1007D0005B084FEA32024FF480104FF4002CB6EB66
:1007E000020E75EB030E22BFB61A754640EA0C00E6
:1007F0005B084FEA3202B6EB020E75EB030E22BF26
:10080000B61A754640EA5C005B084FEA3202B6EB66
:10081000020E75EB030E22BFB61A754640EA9C0025
:100820005B084FEA3202B6EB020E75EB030E22BFF5
:10083000B61A754640EADC0055EA060E18D04FEAB3
:10084000051545EA16754FEA06164FEAC30343EA53
:1008500052734FEAC2025FEA1C1CC0D111F4801F20
:100860000BD141EA00014FF000004FF0004CB6E719
:1008700011F4801F04BF01430020B4F1FD0C88BFB8
:10088000BCF5E06F3FF6AFAEB5EB030C04BFB6EBC3
:10089000020C5FEA500C50F1000041EB045170BDB6
:1008A0000EF0004E4EEA113114EB5C04C2BFD4EBE3
:1008B0000C0541EA045170BD41F480114FF0000E67
:1008C000013C90E645EA060E8DE60CEA135594EAE3
:1008D0000C0F08BF95EA0C0F3FF43BAF94EA0C0FE6
:1008E0000AD150EA01347FF434AF95EA0C0F7FF45B
:1008F00025AF104619462CE795EA0C0F06D152EAAF
:1009000003353FF4FDAE1046194622E750EA410692
:1009100018BF52EA43067FF4C5AE50EA41047FF4A3
:100920000DAF52EA43057FF4EBAE12E74FF0FF3C08
:1009300006E000BF4FF0010C02E000BF4FF0010CD9
:100940004DF804CD4FEA410C7FEA6C5C4FEA430C52
:1009500018BF7FEA6C5C1BD001B050EA410C0CBFA1
:1009600052EA430C91EA030F02BF90EA020F002003
:10097000704710F1000F91EA030F58BF994208BF6A
:1009800090422CBFD8176FEAE37040F00100704727
:100990004FEA410C7FEA6C5C02D150EA013C07D17E
:1009A0004FEA430C7FEA6C5CD6D152EA033CD3D0C9
:1009B0005DF8040B704700BF8446104662468C46C3
:1009C0001946634600E000BF01B5FFF7B7FF0028F6
:1009D00048BF10F1000F01BD4DF808EDFFF7F4FF1F
:1009E0000CBF012000205DF808FB00BF4DF808EDAA
:1009F000FFF7EAFF34BF012000205DF808FB00BFCD
:100A00004DF808EDFFF7E0FF94BF012000205DF8EE
:100A100008FB00BF4DF808EDFFF7CEFF94BF0120A3
:100A200000205DF808FB00BF4DF808EDFFF7C4FF9C
:100A300034BF012000205DF808FB00BF4FEA410CE5
:100A40007FEA6C5C02D150EA013C0AD14FEA430CC8
:100A50007FEA6C5C02D152EA033C02D14FF0000005
:100A600070474FF0010070474A0011D212F5001292
:100A700011D20DD56FF47873B3EB62520ED44FEAF6
:100A8000C12343F0004343EA505323FA02F0704776
:100A90004FF00000704750EA013002D14FF0FF30B4
:100AA00070474FF0000070474FEA4102B2F1E04357
:100AB00024BFB3F5001CDCF1FE5C0DD901F0004C45
:100AC0004FEAC0024CEA5070B2F1004F40EB830095
:100AD00008BF20F00100704711F0804F21D113F1C1
:100AE0003872BCBF01F00040704741F480114FEAFA
:100AF0005252C2F11802C2F1200C10FA0CF320FA83
:100B000002F018BF40F001004FEAC1234FEAD3239F
:100B100003FA0CFC40EA0C0023FA02F34FEA430309
:100B2000CCE77FEA625307D150EA01331EBF4FF092
:100B3000FE4040F44000704701F0004040F0FE40AD
:100B400040F40000704700BF80F0004002E000BFAA
:100B500081F0004142001FBF5FEA410392EA030FA8
:100B60007FEA226C7FEA236C6AD04FEA1262D2EBF2
:100B70001363C1BFD218414048404140B8BF5B42F7
:100B8000192B88BF704710F0004F40F4000020F090
:100B90007F4018BF404211F0004F41F4000121F0A6
:100BA0007F4118BF494292EA030F3FD0A2F10102F0
:100BB00041FA03FC10EB0C00C3F1200301FA03F12E
:100BC00000F0004302D5494260EB4000B0F5000F51
:100BD00013D3B0F1807F06D340084FEA310102F110
:100BE0000102FE2A51D2B1F1004F40EBC25008BFC2
:100BF00020F0010040EA03007047490040EB00008C
:100C0000013A28BFB0F5000FEDD2B0FA80FCACF18C
:100C1000080CB2EB0C0200FA0CF0AABF00EBC250B9
:100C200052421843BCBFD0401843704792F0000FA7
:100C300081F4000106BF80F400000132013BB5E7FA
:100C40004FEA41037FEA226C18BF7FEA236C21D070
:100C500092EA030F04D092F0000F08BF08467047D5
:100C600090EA010F1CBF0020704712F07F4F04D1A3
:100C7000400028BF40F00040704712F100723CBFB6
:100C800000F50000704700F0004343F0FE4040F4E0
:100C9000000070477FEA226216BF08467FEA23639E
:100CA0000146420206BF5FEA412390EA010F40F489
:100CB000800070474FF0000304E000BF10F00043D5
:100CC00048BF40425FEA000C08BF704743F09643BC
:100CD00001464FF000001CE050EA010208BF7047D7
:100CE0004FF000030AE000BF50EA010208BF70475E
:100CF00011F0004302D5404261EB41015FEA010C73
:100D000002BF84460146002043F0B64308BFA3F16A
:100D10008053A3F50003BCFA8CF2083AA3EBC2534C
:100D200010DB01FA02FC634400FA02FCC2F120026B
:100D3000BCF1004F20FA02F243EB020008BF20F0A2
:100D40000100704702F1200201FA02FCC2F1200208
:100D500050EA4C0021FA02F243EB020008BF20EAFD
:100D6000DC7070477BB972B90029BEBF00204FF01C
:100D7000004106E008BF00281CBF6FF000414FF0A3
:100D8000FF3000F009BAADF1080C6DE904CE00297E
:100D900009DB002B1ADB00F097F8DDF804E0DDE951
:100DA000022304B07047404261EB4101002B1BDB82
:100DB00000F08AF8DDF804E0DDE9022304B04042E7
:100DC00061EB4101524263EB43037047524263EBD4
:100DD000430300F079F8DDF804E0DDE9022304B014
:100DE000404261EB41017047524263EB430300F024
:100DF0006BF8DDF804E0DDE9022304B0524263EB56
:100E00004303704753B94AB9002908BF00281CBFE3
:100E10004FF0FF314FF0FF3000F0BEB9ADF1080CDC
:100E20006DE904CE00F050F8DDF804E0DDE90223BE
:100E300004B07047430803F05533C01A830803F029
:100E4000333300F03330184400EB101000F00F3053
:100E500000EB002000EB0040000E704738B5002288
:100E6000002304460D46FFF7C1FD28B92046294658
:100E7000BDE8384000F00AB8204605F1004100F016
:100E800005F8404261EB410138BD00BFD0B50C4BC5
:100E9000002206460F46FFF737FBFFF7E5FD044645
:100EA000FFF7B8FA074B0022FFF72EFB02460B466E
:100EB00030463946FFF770F9FFF7D6FD2146D0BD21
:100EC0000000F03D0000F0412DE9F047089D044688
:100ED0008E46002B4DD18A42944669D9B2FA82F2ED
:100EE00052B101FA02F3C2F1200120FA01F10CFA29
:100EF00002FC41EA030E94404FEA1C48210CBEFB61
:100F0000F8F61FFA8CF708FB16E341EA034306FBE9
:100F100007F199420AD91CEB030306F1FF3080F078
:100F20001F81994240F21C81023E63445B1AA4B2C5
:100F3000B3FBF8F008FB103344EA034400FB07F767
:100F4000A7420AD91CEB040400F1FF3380F00A81A8
:100F5000A74240F207816444023840EA0640E41B9D
:100F600000261DB1D4400023C5E900433146BDE849
:100F7000F0878B4209D9002D00F0EF800026C5E9EB
:100F8000000130463146BDE8F087B3FA83F6002E03
:100F90004AD18B4202D3824200F2F980841A61EB7B
:100FA000030301209E46002DE0D0C5E9004EDDE799
:100FB00002B9FFDEB2FA82F2002A40F09280A1EB81
:100FC0000C014FEA1C471FFA8CFE0126200CB1FBD6
:100FD000F7F307FB131140EA01410EFB03F08842CF
:100FE00008D91CEB010103F1FF3802D2884200F25C
:100FF000CB804346091AA4B2B1FBF7F007FB1011EE
:1010000044EA01440EFB00FEA64508D91CEB04048B
:1010100000F1FF3102D2A64500F2BB800846A4EBE6
:101020000E0440EA03409CE7C6F12007B34022FAD1
:1010300007FC4CEA030C20FA07F401FA06F31C4300
:10104000F9404FEA1C4900FA06F3B1FBF9F8200C0D
:101050001FFA8CFE09FB181140EA014108FB0EF053
:10106000884202FA06F20BD91CEB010108F1FF3AA3
:1010700080F08880884240F28580A8F102086144AF
:10108000091AA4B2B1FBF9F009FB101144EA0141BD
:1010900000FB0EFE8E4508D91CEB010100F1FF3468
:1010A0006CD28E456AD90238614440EA0840A0FB00
:1010B0000294A1EB0E01A142C846A64656D353D0D6
:1010C0005DB1B3EB080261EB0E0101FA07F722FAFA
:1010D00006F3F1401F43C5E9007100263146BDE823
:1010E000F087C2F12003D8400CFA02FC21FA03F386
:1010F000914001434FEA1C471FFA8CFEB3FBF7F007
:1011000007FB10360B0C43EA064300FB0EF69E422B
:1011100004FA02F408D91CEB030300F1FF382FD2C4
:101120009E422DD9023863449B1B89B2B3FBF7F66C
:1011300007FB163341EA034106FB0EF38B4208D945
:101140001CEB010106F1FF3816D28B4214D9023E86
:101150006144C91A46EA004638E72E46284605E7A4
:101160000646E3E61846F8E64B45A9D2B9EB020875
:1011700064EB0C0E0138A3E74646EAE7204694E705
:101180004046D1E7D0467BE7023B614432E7304638
:1011900009E76444023842E7704700BFDFF858D0DF
:1011A00019F048FD002103E0144B5B584350043113
:1011B0001348144B42189A42F6D3134A02E0002314
:1011C00042F8043B114B9A42F9D3114A02E0002342
:1011D00042F8043B0F4B9A42F9D30F4A03E05FF009
:1011E000A53342F8043B0D4B9A42F8D30AF04EFF68
:1011F00012F095FE7047000000000220E6840D0802
:1012000000000024FC2D0024002E0024545D012445
:101210000000002060050020F8E70120F8FF012011
:10122000FEE77047104B1B780BB90120704710B5D3
:1012300004464FF47A70B0FBF3F30C4A1068B0FB2D
:10124000F3F000F0EDFE68B90F2C01D901200AE09F
:10125000002221464FF0FF3000F09EFE044B1C6040
:10126000002000E0012010BD000000240800002440
:101270000400002410B5032000F07CFE04F016FBEF
:101280000F498B69C3F303230E4AD35C03F01F039A
:10129000D8400D4B18608B6903F00F03D35C03F04B
:1012A0001F03D840094B18600020FFF7BBFF10B1A7
:1012B0000124204610BD0446FFF7B3FFF9E700BF45
:1012C0000044025888200B08080000240C00002469
:1012D000034B1B78034A11680B441360704700BF2F
:1012E00000000024C8590024014B1868704700BF53
:1012F000C859002438B50446FFF7F6FF0546B4F197
:10130000FF3F02D0044B1B781C44FFF7EDFF401B4E
:10131000A042FAD338BD00BF00000024014B18687A
:10132000000C70470010005C024A136A43F001038E
:10133000136270470004005870477047704708B543
:10134000806BFFF7FBFF08BD704708B50346806B55
:10135000426D12F0500F30D1436D43F4007343657A
:1013600003681A6812F0080F14D0DA6812F4406F9C
:1013700020D1DB6813F4005F1CD1436D23F480732C
:101380004365436D13F4805F14D1436D43F0010353
:1013900043650FE0DB6813F0030F0BD1436D23F4BB
:1013A00080734365436D13F4805F03D1436D43F055
:1013B00001034365FFF7C1FF08BD426D12F0100F36
:1013C00004D1C26CD26C18469047F5E7FFF7BCFF1A
:1013D000F2E708B5806B436D43F040034365836DCE
:1013E00043F004038365FFF7AFFF08BDF0B583B09A
:1013F0000022019290F85020012A00F03582034625
:10140000012280F850200068826812F0040F09D091
:101410005A6D42F020025A650120002283F85020C4
:1014200003B0F0BD0A68C2F31304002C4ED1C2F31E
:10143000846201249440C2692243C2611D684C68E1
:101440003035220A920002F00C02A85804F01F0E58
:101450001F2404FA0EF420EA04000C68C4F3846C20
:101460000CFA0EFC40EA0C00A8501C68A26812F0AE
:10147000040200D00122A06810F0080000D0012072
:1014800002432CD01868826812F0010F40F0E88106
:101490000A68CD68D0F8C040C2F3130624EA0604F7
:1014A00005F0180CAB4D25FA0CF52A40C2F31302D7
:1014B0002243C0F8C020C868A74A904200F0AD801F
:1014C0000A68002AC0F24C810020A6E792FAA2F234
:1014D000B2FA82F202F01F0201249440ABE70F68D7
:1014E0008D681434780E800000F004002658C7F38D
:1014F000045E4FF0070C0CFA0EFC26EA0C0C05FA01
:101500000EF54CEA050525509448006800F070403F
:10151000B0F1805F0BD01C68E06810F0100F39D17B
:101520004869E468C4F382046400A04006E04869A6
:101530001C68E468C4F382046400A0400D69042DB3
:1015400036D01F680E68603757F8254004F0004415
:1015500006F0F8463043204347F8250018680E6926
:101560004C7E012C1ED01546603050F8264024F0E9
:1015700000442C4340F826401D680C69087E012871
:1015800013D0286920F4F04004F01F04A240024365
:101590002A6177E74869E468A40804F00404640059
:1015A000A040CBE74FF00045DEE74FF40062E8E7EC
:1015B0001868026E02F0F8420C68B2EB846F1DD01E
:1015C0001868426E02F0F8420C68B2EB846F1AD0D1
:1015D0001868826E02F0F8420C68B2EB846F17D084
:1015E0001868C26E02F0F8420C68B2EB846F7FF4A8
:1015F00049AFC26E22F00042C26643E7026E22F09B
:1016000000420266DCE7426E22F000424266DFE7FB
:10161000826E22F000428266E2E71C680A68C2F32A
:1016200013058DBB900E013000F01F0009288CBF00
:1016300000200120002851D095BB900E013080067B
:1016400000F0F840ADBB960E013606F01F070126EC
:10165000BE403043BDBB920E013202F01F0202EBCE
:1016600042021205024388681434550EAD0005F09D
:1016700004056659C2F304520727974026EA070675
:101680009040304360511BE792FAA2F0B0FA80F02C
:10169000013000F01F0009288CBF00200120C9E79D
:1016A00092FAA2F0B0FA80F00130800600F0F84023
:1016B000C8E792FAA2F6B6FA86F6013606F01F07D8
:1016C0000126BE40C5E792FAA2F2B2FA82F20132D6
:1016D00002F01F0202EB42021205C3E7CDB9900EE1
:1016E0000130800600F0F840E5B9960E013606F0AC
:1016F0001F070126BE403043F5B9920E013202F0B9
:101700001F0202EB42021E3A120542F0007202432F
:10171000A9E792FAA2F0B0FA80F00130800600F05A
:10172000F840E1E792FAA2F6B6FA86F6013606F03C
:101730001F070126BE40DEE792FAA2F2B2FA82F259
:10174000013202F01F0202EB42021E3A120542F081
:101750000072DCE7FFFF0F000000FF470010005C95
:1017600019684248424CA14218BF81420CBF012077
:10177000002021D13F4EB56805F0E077F0B13B483D
:10178000806810F0010000D00120394CA46814F0EA
:10179000010400D0012420430CBF012000200028B8
:1017A00058D03548824212D03448824230D0344832
:1017B00082423ED0002030E6324EDCE7324880687C
:1017C00010F0010000D0012080F00100E7E715F4DF
:1017D000000FE9D12C4A914201D000201DE647F4C8
:1017E0000002B16821F0E0710A43B260274A126832
:1017F00092092749A1FB021292095200019202E0CC
:10180000019A013A0192019A002AF9D1002004E6D6
:1018100015F0807FCBD11C4A914201D00020FCE51D
:1018200047F08072B16821F0E0710A43B260002095
:10183000F3E515F4800F15D1134A914201D0002031
:10184000EBE547F48002B16821F0E0710A43B26031
:101850000020E2E55A6D42F020025A650120DCE5E5
:101860000020DAE50020D8E50220D9E5002002407A
:101870000021024000230240000084CB000052C738
:101880000000B8CF0063025800600258080000242E
:10189000632D3E0538B503689A6812F0010F52D1E6
:1018A00004469968294A114209D0436D43F0100358
:1018B0004365836D43F001038365012044E099682B
:1018C000234A0A4042F001029A60FFF70DFD0546E7
:1018D00023682049204A934218BF8B420DD102F55C
:1018E0000072926802F01F021B498B4207D0194612
:1018F00099420CD05AB1002026E0184AF1E7A1F530
:101900008071F5E7FFF7F0FC401B02280FD8236831
:101910001A6812F0010F14D19A6812F0010FF1D178
:1019200099680B4A0A4042F001029A60EAE7636D47
:1019300043F010036365A36D43F00103A365012029
:1019400002E0002000E0002038BD00BF3F00008022
:10195000C0FFFF7F002002400021024000630258C8
:10196000F8B504460E46174600683D4A3D4B98427E
:1019700018BF90421AD103F500739D6805F01F054A
:10198000806810F0040F67D194F85030012B65D0B7
:10199000012384F85030052D18BF002D08D0092DE3
:1019A00006D0002384F85030012056E02E4BE4E7A7
:1019B0002046FFF76FFF00284AD1626DA0F6027340
:1019C000134043F4807363652368264A934239D0F9
:1019D0001A46934200D01DB9636D23F480136365EA
:1019E000636D13F4805F30D0A36D23F00603A3650D
:1019F000E36C1E4ADA63E36C1D4A1A64E36C1D4A09
:101A0000DA6423681C221A60002384F850302268AC
:101A1000536843F0100353602168E36ACA6822F0F8
:101A200003021343CB6021683B4632464031E06CF1
:101A300000F02AFF226891680F4B0B4043F004032B
:101A400093600AE0A2F58072C3E70023A365CFE7A5
:101A5000002384F8503000E00220F8BD0220FCE7AB
:101A60000020024000210240006302584B1304088A
:101A70003F130408D3130408C0FFFF7F38B50446A2
:101A80000268936813F0020300D00123916811F0FB
:101A9000010F32D0002B32D1936803F00D03012BDC
:101AA00009D0636D43F010036365A36D43F0010338
:101AB000A365012022E09168124B0B4043F0020322
:101AC0009360236803221A60FFF70EFC0546236823
:101AD0009B6813F0010F0ED0FFF706FC401B022895
:101AE000F5D9636D43F010036365A36D43F0010303
:101AF000A365012002E0002000E0002038BD0020A6
:101B0000FCE700BFC0FFFF7F38B5044603684F49BC
:101B10004F4A934218BF8B4223D14E4B9B6813F41C
:101B2000403F14BF012300234BB304F0F7F80546F0
:101B30006368B3F5003F1CD0B3F5403F1DD0B3F54B
:101B4000803F16D0FFF7EAFB41F20303984257D8D3
:101B5000414B9D424ED92268936843F48073936051
:101B600038BD3E4B9B6813F4403F14BF0123002354
:101B7000DAE71B0CB5FBF3F5E4E78508E2E74FF481
:101B8000002005F0DFF905466368B3F5101F2DD07E
:101B900022D8B3F5E01F27D004D9B3F5001FD1D167
:101BA0004509CFE7B3F5801F0DD006D9B3F5A01FC7
:101BB00009D0B3F5C01F06D0C4E7B3F5002F02D09B
:101BC000B3F5402F04D19B0C5B00B5FBF3F5B9E7EF
:101BD000B3F5802FF7D0B5E7B3F5201F08D0B3F5E4
:101BE000301FAFD1050AADE70509ABE78509A9E7C5
:101BF000C509A7E72268936823F480739360AFE771
:101C0000174B9D4205D82268936823F44073936074
:101C1000A6E7144B9D4207D82268936823F44073CB
:101C200043F4807393609BE70F4B9D4207D8226873
:101C3000936823F4407343F40073936090E7226841
:101C4000936843F4407393608AE700BF002002402A
:101C50000021024000230240002D310100630258A0
:101C600021BCBE0041787D0181F0FA0230B583B01D
:101C700000230193002800F00F810446436DE3B177
:101C800023689A6812F0005F03D09968834A0A407B
:101C90009A6023689A6812F0805F1BD19968804A25
:101CA0000A4042F080529A607E4B1B689B097E4A34
:101CB000A2FB03239B09019309E0FFF73DFB0023EF
:101CC000A36584F85030DBE7019B013B0193019B46
:101CD000002BF9D12268936813F0805F40F09C805C
:101CE000636D43F010036365A36D43F00103A365C7
:101CF0000125936813F0040300D00123616D11F0F6
:101D0000100F40F0C180002B40F0BE80636D23F4C3
:101D1000817343F002036365936813F0010F21D1CF
:101D20006249634B9A4218BF8A420CBF01220022CB
:101D300074D18B6813F0010300D001235C498968DA
:101D400011F0010100D001210B430CBF012300233E
:101D500043B1002A6BD0574963688A6822F47C1229
:101D600013438B60FFF7DAFA41F20303984202D97A
:101D7000A368102B5DD0627D236B43EA4233A268D7
:101D80001343227F43EA0243227F012A5CD0626A26
:101D900022B102F47872A16A0A4313432168C86829
:101DA000454A02401343CB6021688B6813F004035B
:101DB00000D001238A6812F0080200D001221343E8
:101DC0001BD1227DE36A43EA8232C8683B4B034061
:101DD0001343CB6094F83830012B3AD02268136952
:101DE00023F0010313612268136923F07043616BD0
:101DF0000B4313612046FFF787FEE368012B3AD0BF
:101E00002268136B23F00F031363636D23F0030346
:101E100043F0010363653CE000256AE7284B9B68BB
:101E200013F0010300D0012383F0010390E725495B
:101E300092E7617D226B42EA41321343227F43EAFB
:101E4000024343F00C039FE7226A013A43EA42430C
:101E50009DE7206802691C4B1340E26B511E226C07
:101E600042EA0142616C0A43A16C0A43134343F006
:101E700001030361B7E721680B6B23F00F03A2692D
:101E8000013A13430B63C0E7636D43F010036365CE
:101E90000125284603B030BD0125FAE7C0FFFF5FEA
:101EA000C0FFFF6F08000024632D3E0500200240A4
:101EB000002102400023024003C0F0FFFCBFFFFFEF
:101EC00000600258006302581EF800FC70B582B032
:101ED0000023019390F85030012B42D004460D4668
:101EE0001646012380F85030FFF7C8FD00282FD197
:101EF000626D1D4B134043F00203636522689168D5
:101F00001A4B0B4005F4803506F0804635432B43D1
:101F100043F00043936023689B68002B06DB636DEE
:101F200023F0030343F00103636515E0019B0133D4
:101F30000193019A0E4B9A42EDD3636D23F0120385
:101F400043F010036365002384F85030012006E05D
:101F5000636D43F010036365002384F8503002B0D2
:101F600070BD0220FBE700BFFDEEFFFFC0FFFE3F9C
:101F700000F8C3250649CB6823F4E0631B041B0C5F
:101F8000000200F4E0600343024A1A43CA6070474B
:101F900000ED00E00000FA0500B5174BDB68C3F365
:101FA0000223C3F1070CBCF1040F28BF4FF0040C4F
:101FB00003F1040EBEF1060F14D9033B4FF0FF3EB0
:101FC0000EFA0CFC21EA0C0199400EFA03F322EA06
:101FD00003031943002807DB0901C9B2074B195451
:101FE0005DF804FB0023E9E700F00F000901C9B226
:101FF000034B1954F4E700BF00ED00E000E400E0FB
:1020000014ED00E0002807DB00F01F024009012367
:102010009340024A42F82030704700BF00E100E0E0
:102020000138B0F1807F0BD24FF0E0235861054AB0
:10203000F02182F823100020986107221A6170476E
:102040000120704700ED00E0BFF35F8F044B5A6A38
:1020500022F480325A620022C3F89420704700BFF5
:1020600000ED00E040F00100054BC3F894005A6A0F
:1020700042F480325A62BFF34F8FBFF36F8F7047C5
:1020800000ED00E04278164BC3F898200378FBB1CE
:102090004368134AC2F89C30017BC37A1B0643EAAB
:1020A0000173817A43EAC143417B43EA8143817BE7
:1020B00043EA4143C17B43EA0143417A43EA0123B6
:1020C000017A43EA410301780B43C2F8A03070471C
:1020D000034B0022C3F89C20C3F8A020704700BF28
:1020E00000ED00E0042806D04FF0E022136923F051
:1020F0000403136170474FF0E022136943F00403B7
:1021000013617047F0B4876D0468664E664DAC424B
:1021100018BFB44242D01835AC423FD01835AC425B
:102120003CD01835AC4239D01835AC4236D01835D1
:10213000AC4233D01835AC4230D005F55675AC42C0
:102140002CD01835AC4229D01835AC4226D01835E1
:10215000AC4223D01835AC4220D01835AC421DD04B
:102160001835AC421AD01835AC4217D04F4DAC429E
:1021700014D01435AC4211D01435AC420ED0143505
:10218000AC420BD01435AC4208D01435AC4205D06B
:102190001435AC4202D01435AC4207D1446E856E82
:1021A0006560C46E14B1046F456F656004683D4E90
:1021B0003D4DAC4218BFB44252D01835AC424FD05E
:1021C0001835AC424CD01835AC4249D01835AC4229
:1021D00046D01835AC4243D01835AC4240D005F556
:1021E0005675AC423CD01835AC4239D01835AC42AB
:1021F00036D01835AC4233D01835AC4230D0183513
:10220000AC422DD01835AC422AD01835AC4227D07C
:10221000264E274DAC4218BFB44211D0254DAC42DA
:102220000ED01435AC420BD01435AC4208D0143566
:10223000AC4205D01435AC4202D01435AC4224D1A6
:10224000C46D04F01F050124AC407C600468636029
:102250008368402B20D0036899600368DA6014E03B
:10226000C46D04F01F0C3F2404FA0CF4BC60056834
:102270002C6824F480242C60046863608368402BFD
:1022800005D0036899600368DA60F0BC70470368A2
:102290009A600368D960F8E703689A600368D960B8
:1022A000F3E700BF10000240280002400854025823
:1022B0001C5402583054025803682749274A934255
:1022C00018BF8B422FD0183293422CD01832934231
:1022D00029D01832934226D01832934223D0183294
:1022E000934220D0183293421DD002F55672934289
:1022F00019D01832934216D01832934213D01832A4
:10230000934210D0183293420DD0183293420AD023
:102310001832934207D01832934204D023F0FF03BF
:102320008365806D704710B4D9B210390C4AA2FB96
:102330000142C2F302120B4CA25CC2655F2907D9AD
:10234000094A1A4004328265806D5DF8044B70477B
:10235000054A1A408265F7E7100002402800024053
:10236000ABAAAAAA78200B0800FCFFFF83699BB9DF
:10237000836A012B0AD0022B02D00BB100207047D8
:10238000C36A13F0807F2AD100207047C36AB3F17B
:10239000C07F26D000207047B3F5005F0AD0836A63
:1023A000022B26D9032B26D1C36A13F0807F24D1B8
:1023B00000207047836A032B03D8DFE803F014047E
:1023C000140A00207047C36A13F0807F0DD10020EB
:1023D0007047C36AB3F1C07F09D000207047012065
:1023E000704701207047012070470120704701208D
:1023F000704701207047002070470120704700009F
:1024000003682249224A934218BF8B4228D01432D3
:10241000934225D01432934222D0143293421FD0DB
:10242000143293421CD01432934219D01432934286
:1024300016D0DAB2103A1749A1FB02121209164956
:102440001944A8291FD9154B13449B000366144B4C
:10245000436602F01F02012303FA02F2826670470C
:10246000DBB2083B0F4AA2FB03230F4A02EB131215
:10247000920002660D4A4266C3F30413012202FA77
:1024800003F3836670470832DDE700BF0854025843
:102490001C540258ABAAAAAAF0FBFDBF0082001090
:1024A00080080240CDCCCCCC009600168058025853
:1024B00001794A1E072A2CD830B40368154D164CF2
:1024C000A34218BFAB4218D01434A34215D0143421
:1024D000A34212D01434A3420FD01434A3420CD020
:1024E0001434A34209D01434A34206D00B4B0B443E
:1024F0009B00C3660A4B036705E00A4B0B449B0035
:10250000C366094B0367012303FA02F2426730BC3A
:1025100070477047085402581C5402583F820010FC
:10252000400902403F9600164059025870B50446D3
:10253000FEF7DAFE002C00F09F8105462368A049D3
:10254000A04A934218BF8B420CBF0122002250D0F8
:1025500030318B424DD018318B424AD018318B42EA
:1025600047D018318B4244D018318B4241D01831BA
:102570008B423ED001F556718B423AD018318B42D6
:1025800037D018318B4234D018318B4231D01831CA
:102590008B422ED018318B422BD018318B4228D051
:1025A00018318B4225D08849884A934218BF8B4204
:1025B00000F01A81864A934200F016811432934249
:1025C00000F012811432934200F00E8114329342D3
:1025D00000F00A811432934200F0068114329342D3
:1025E00000F0028140236365032384F83530012025
:1025F0004AE0002184F83410022184F835107ABBB7
:10260000744A93422CD01832934229D01832934204
:1026100026D01832934223D01832934220D0183259
:1026200093421DD002F55672934219D0183293424C
:1026300016D01832934213D01832934210D0183269
:1026400093420DD0183293420AD01832934207D0E9
:102650001832934204D01A6822F001021A6003E093
:102660001A6822F001021A6023681A6812F0010F3A
:102670000BD0FEF739FE431B052BF5D920236365EC
:10268000032384F83530012070BD1A685248104089
:10269000A168E2680A4321690A4361690A43A169A2
:1026A0000A43E1690A43216A0A430243616A042931
:1026B00000F081801A602668756925F00705636A55
:1026C0001D43042B09D1A36A1D43E36A2BB12046A5
:1026D000FFF74CFE002840F0818075612046FFF72F
:1026E000EBFDE36D03F01F023F23934083602368FB
:1026F0003349344A934218BF8B4242D01832934236
:102700003FD0183293423CD01832934239D018321D
:10271000934236D01832934233D01832934230D09D
:1027200002F5567293422CD01832934229D01832B7
:10273000934226D01832934223D01832934220D0AD
:10274000183293421DD0183293421AD01832934255
:1027500017D01D4A934214D01432934211D0143230
:1027600093420ED0143293420BD01432934208D0CD
:102770001432934205D01432934202D01432934261
:1027800013D12046FFF73CFEA368802B67D0236E51
:1027900022791A60636EA26E5A606368013B072B50
:1027A00060D90023E3662367636700206065012327
:1027B00084F8353068E7E16A206B01430A4379E722
:1027C0001000024028000240085402581C540258CD
:1027D00030540258400002403F8010FE40236365A1
:1027E000012084F835004FE7002284F834200222CB
:1027F00084F835201A6821491140A268402A2CD05B
:10280000802A27D00022E06842EAD002206942EA0A
:10281000D002606942EAD002A06942EAD002E069CF
:1028200042EAD002206A42EA10120A431A60226881
:10283000134B1344134AA2FB03231B099B00E365BC
:102840002046FFF739FDE26D02F01F0101228A40A8
:1028500042604CE74FF48042D5E71022D3E70023D3
:10286000636094E72046FFF723FEE36E00221A60C0
:10287000236F626F5A6098E7012005E70F00FEFFA3
:10288000F8ABFDA7CDCCCCCC002800F03E8170B5D4
:10289000044690F83400012800F03981012084F8C2
:1028A000340094F83500C0B2012807D0002384F822
:1028B00034304FF400636365012070BD022084F85A
:1028C0003500002060652068924E934DA84218BFE5
:1028D000B0422FD01835A8422CD01835A84229D0A4
:1028E0001835A84226D01835A84223D01835A8425A
:1028F00020D01835A8421DD005F55675A84219D02C
:102900001835A84216D01835A84213D01835A84259
:1029100010D01835A8420DD01835A8420AD0183565
:10292000A84207D01835A84204D0056825F0010553
:10293000056003E0056825F0010505602046FFF706
:10294000E1FB23687349744A934218BF8B4238D025
:102950001832934235D01832934232D01832934213
:102960002FD0183293422CD01832934229D01832EB
:10297000934226D002F55672934222D018329342E7
:102980001FD0183293421CD01832934219D01832FB
:10299000934216D01832934213D01832934210D07B
:1029A000183293420DD01A6822F00E0242F00A0249
:1029B0001A60236C93B12268136843F00403136018
:1029C0000CE01A6822F01E0242F016021A60236C14
:1029D00023B12268136843F00803136023684D494C
:1029E0004D4A934218BF8B4242D0183293423FD097
:1029F000183293423CD01832934239D01832934265
:102A000036D01832934233D01832934230D002F588
:102A1000567293422CD01832934229D018329342E6
:102A200026D01832934223D01832934220D0183245
:102A300093421DD0183293421AD01832934217D0C5
:102A4000364A934214D01432934211D01432934236
:102A50000ED0143293420BD01432934208D0143269
:102A6000934205D01432934202D0143293420ED1D5
:102A7000236E1A6812F4803F03D01A6842F4807201
:102A80001A60E36E1BB11A6842F480721A60236800
:102A90002049214A934218BF8B4230D018329342CA
:102AA0002DD0183293422AD01832934227D01832B0
:102AB000934224D01832934221D0183293421ED030
:102AC00002F5567293421AD01832934217D0183238
:102AD000934214D01832934211D0183293420ED040
:102AE000183293420BD01832934208D018329342D6
:102AF00005D01A6842F001021A600020DDE61A686B
:102B000042F001021A600020D7E60120704702203F
:102B1000D3E600BF100002402800024008540258CB
:102B2000002800F0298108B5024690F83530DBB264
:102B3000022B03D080234365012008BD0368904821
:102B400090498B4218BF83420CBF0121002166D0FF
:102B50003030834263D01830834260D018308342D3
:102B60005DD0183083425AD01830834257D0183085
:102B7000834254D000F55670834250D018308342BF
:102B80004DD0183083424AD01830834247D0183095
:102B9000834244D01830834241D0183083423ED023
:102BA000183083423BD0196821F00E011960136878
:102BB000A0F5956073498B4218BF83426AD0724971
:102BC0008B4267D018318B4264D018318B4261D070
:102BD00018318B425ED018318B425BD018318B425A
:102BE00058D001F556718B4254D018318B4251D0D8
:102BF00018318B424ED018318B424BD018318B425A
:102C000048D018318B4245D018318B4242D0183110
:102C10008B423FD0196821F0010119603EE0042089
:102C200082F8350081BB584A93422DD01832934226
:102C30002AD01832934227D01832934224D0183227
:102C4000934221D0183293421ED002F5567293421D
:102C50001AD01832934217D01832934214D0183237
:102C6000934211D0183293420ED0183293420BD0B7
:102C70001832934208D01832934205D01A6822F0D5
:102C800001021A60002058E71A6822F001021A6057
:102C9000002052E7196821F00101196013683848D3
:102CA00038498B4218BF834242D018318B423FD003
:102CB00018318B423CD018318B4239D018318B42BD
:102CC00036D018318B4233D018318B4230D001F5D9
:102CD00056718B422CD018318B4229D018318B423F
:102CE00026D018318B4223D018318B4220D0183196
:102CF0008B421DD018318B421AD018318B4217D01D
:102D000022498B4214D014318B4211D014318B42A2
:102D10000ED014318B420BD014318B4208D01431B9
:102D20008B4205D014318B4202D014318B4217D123
:102D3000116E0B6823F480730B60906DD36D03F0FC
:102D40001F0101238B404360536E916E5960D36E17
:102D500033B1196821F480711960136F516F596094
:102D6000002382F83430012382F83530136D2BB103
:102D7000104698470020E0E6012070470020DCE67E
:102D8000100002402800024040000240085402584F
:102D9000144BDB6813F0010F09D0124B124A5A6032
:102DA00002F188325A60DB6813F0010F14D10D4B29
:102DB000D3F80C3113F0010F10D00A4B0A4AC3F8B4
:102DC000042102F18832C3F80421D3F80C3113F046
:102DD000010F05D100207047012070470020704787
:102DE0000120704700200052230167450D4BDA682F
:102DF00042F00102DA60DB6813F0010F0DD0094BDD
:102E0000D3F80C2142F00102C3F80C21D3F80C31A5
:102E100013F0010F03D000207047012070470120FC
:102E2000704700BF00200052F8B505460E46FEF779
:102E30005BFA0746012E09D0364C17E0FEF754FA2C
:102E4000C01BA84260D88DB903204EE004240DE0D9
:102E5000314BD3F8103124EA030333F000430CBFA5
:102E6000012300236BB1B5F1FF3FE7D134F0040338
:102E7000EED1294B1B6934EA03030CBF0123002365
:102E8000F0E7012E1CD0244BD3F8103123F0684317
:102E900023F480135B0C5B0443F0004333F00242E5
:102EA00017D1012E25D01C4BD3F8103113F4803FDD
:102EB0002ED0194B4FF48032C3F81421002014E0B7
:102EC000154B1B6923F0684323F480135B0C5B04F0
:102ED000E4E712498A691A438A61002B06DA23F073
:102EE00000430D4AC2F814310120F8BD0A4A53616B
:102EF000FAE7094B1B6913F4803F07D0064B4FF4E8
:102F000080325A610020F0E70320EEE70020ECE772
:102F10000020EAE70400008000200052CC59002481
:102F20002A4B1B7D012B4ED070B50D461446274B06
:102F300001221A7501F17841B1F5801F35D216468C
:102F4000224B00229A6131464CF25030FFF76CFF61
:102F500038BB012E2BD01E4AD2F80C3143F00203AD
:102F6000C2F80C31BFF36F8FBFF34F8F082354F8B3
:102F7000042B45F8042B013B13F0FF03F7D1BFF3FB
:102F80006F8FBFF34F8F31464CF25030FFF74CFF3D
:102F9000012E12D00E4AD2F80C3123F00203C2F8EF
:102FA0000C310A4B00221A7570BD0226C8E7084A88
:102FB000D36843F00203D360D4E7054AD36823F013
:102FC0000203D360EDE70220704700BFCC59002414
:102FD0000020005201F00303032B24D011F0010F55
:102FE0000BD01D4BDA6822F03002DA60DA68024357
:102FF000DA60DA6842F08802DA6011F0020F11D06C
:10300000154BD3F80C2122F03002C3F80C21D3F871
:103010000C211043C3F80C01D3F80C2142F08802B4
:10302000C3F80C2170470C4BDA6822F03002DA60EA
:10303000D3F80C2122F03002C3F80C21DA680243E5
:10304000DA60D3F80C211043C3F80C019A6942F0FE
:1030500010029A61704700BF0020005210B411F0B6
:10306000010F0CD0114CE36823F4E663E360E368DE
:1030700042EA002C43EA0C0343F08403E36011F0BE
:10308000020F0FD00949D1F80C3123F4E663C1F8DF
:103090000C31D1F80C3142EA00221A4342F084028A
:1030A000C1F80C215DF8044B704700BF00200052AE
:1030B000F8B5474B1B7D012B00F0888004460F4676
:1030C000434B01221A7500229A61436813F0010FE5
:1030D0000DD10025636813F0020F12D1CDB923681A
:1030E000012B1BD04FF0FF333B60A6684CE0012161
:1030F0004CF25030FFF798FE05460028EAD0012533
:10310000E8E702214CF25030FFF78EFE0028E5D0B0
:1031100001252F4B00221A752846F8BD61682069E9
:10312000FFF758FF636813F0010F12D1636813F0C3
:10313000020FEED002214CF25030FFF775FE00B1C5
:103140000125244AD2F80C3123F00803C2F80C31CF
:10315000DFE701214CF25030FFF766FE00B1012598
:103160001C4AD36823F00803D360DFE701214CF247
:103170005030FFF759FE0546164AD168164B0B40F2
:10318000D3600FE005BB0136E368A2681344B34285
:10319000BFD9226961683046FFF760FF636813F0AA
:1031A000010FE3D1636813F0020FEBD002214CF260
:1031B0005030FFF739FE0546064AD2F80C11064B8F
:1031C0000B40C2F80C31DDE73E60A2E70225A3E721
:1031D000CC59002400200052FBF8FFFFF0B583B06B
:1031E000002240E0092400E00024B44044EA0C043A
:1031F0000235734E46F825404FF0B044D4F8805065
:10320000DC4325EA03064F6817F4803F01D043EA08
:1032100005064FF0B045C5F88060D5F8845004EA43
:1032200005064F6817F4003F01D043EA05064FF04A
:10323000B045C5F884602D6804EA05064F6817F4A8
:10324000801F01D043EA05064FF0B0452E606D683F
:103250002C404E6816F4001F01D043EA05044FF0DD
:10326000B0435C6001320B6833FA02F400F0A580D1
:103270004FF0010C0CFA02FC1CEA0303F2D04C687C
:10328000122C18BF022C10D1D508083550F8257023
:1032900002F00704A6000F24B44027EA040E0C69CC
:1032A000B44044EA0E0440F8254005684FEA420E57
:1032B000032404FA0EF4E64325EA04054C6804F0FE
:1032C000030404FA0EF42C4304604C68651E112CB0
:1032D00018BF012D01D9122C10D185683540CC685A
:1032E00004FA0EF42C438460456825EA0C0C4D6802
:1032F000C5F30015954045EA0C054560C4682640B5
:103300008C6804FA0EF43443C4604C6814F0805F97
:10331000A8D02C4CD4F8F45045F00205C4F8F45071
:10332000D4F8F44004F002040194019C9508AE1C0A
:10333000234C54F8267002F00304A6000F24B44076
:1033400027EA040C204CA0423FF44EAF04F5806401
:10335000A04222D004F58064A04220D004F580640D
:10336000A0421ED004F58064A0421CD004F5806405
:10337000A0421AD004F58064A04218D004F58064FD
:10338000A04216D004F58064A04214D004F58064F5
:10339000A0423FF427AF0A2427E7012425E70224AF
:1033A00023E7032421E704241FE705241DE706245F
:1033B0001BE7072419E7082417E703B0F0BD00BF97
:1033C00000040058004402580000025803691942E2
:1033D00001D001207047002070470AB18161704719
:1033E000090481617047436931EA030301D08161B7
:1033F000704709048161704703689A6912F0020FEF
:1034000001D000229A6203689A6912F0010F03D179
:103410009A6942F001029A61704730B4029D0468D3
:1034200060684FEA555C0CF4806C4CF07F7C4CF487
:10343000583C4CF47F7C4CF0030C20EA0C00C1F3A8
:10344000090141EA0241194329430143616030BC4B
:10345000704711F0010F09D090F8413003F02803B4
:10346000282B01D0F22302E0422300E0002311F0D8
:10347000020F09D043F0440C90F8412002F02802DA
:10348000282A16D043F0F40311F0040F01D043F0C2
:10349000B80301F01102112A0DD001F01201122916
:1034A0000CD012290DD001680A6822EA03030B60D0
:1034B00070476346E8E743F09003EEE743F02003EC
:1034C000EFE743F04003EEE7F8B505460E46174632
:1034D00003689B6913F0100F01D10020F8BD2B6821
:1034E0009C6914F0200F17D1B6F1FF3FF7D0FDF71C
:1034F000FBFEC01BB04201D8002EF0D16B6C43F034
:1035000020036B64202385F84130002385F8423086
:1035100085F840300120E1E71022DA612B68202491
:10352000DC612846FFF768FF2A68536823F0FF73C1
:1035300023F48B3323F4FF7323F0010353606B6C8C
:1035400043F004036B6485F84140002385F8423062
:1035500085F840300120C1E770B504460D46164697
:1035600023689B6913F0020F1DD13246294620467D
:10357000FFF7AAFFC8B9B5F1FF3FF1D0FDF7B4FEE0
:10358000801BA84201D8002DEAD1636C43F02003D0
:103590006364202384F84130002384F8423084F8A7
:1035A0004030012000E0002070BD0120FCE72DE943
:1035B000F0410646884617461D463468A46938EA35
:1035C00004030CBF4FF0010C4FF0000CBC4518D1A8
:1035D000B5F1FF3FF1D0FDF787FE069BC01AA84268
:1035E00001D8002DE9D1736C43F0200373642023CC
:1035F00086F84130002386F8423086F840300120BA
:1036000000E00020BDE8F0812DE9F04182B00446E1
:1036100090461D46089E099F194B00934FF08073FA
:10362000EAB2FFF7FAFE3A4631462046FFF794FF2A
:10363000F8B9012D0ED123685FFA88F29A620097DB
:103640003346002280212046FFF7B1FFA8B902B01F
:10365000BDE8F08123684FEA18229A623A46314663
:103660002046FFF779FF30B923685FFA88F29A6243
:10367000E5E70120EBE70120E9E70120E7E700BFEC
:10368000002000802DE9F04182B0044690461D469E
:10369000089E099F184B00930023EAB2FFF7BDFE76
:1036A0003A4631462046FFF757FFF8B9012D0ED1B3
:1036B00023685FFA88F29A6200973346002240211D
:1036C0002046FFF774FFA8B902B0BDE8F081236877
:1036D0004FEA18229A623A4631462046FFF73CFFED
:1036E00030B923685FFA88F29A62E5E70120EBE7D8
:1036F0000120E9E70120E7E70020008070B50546DA
:103700000C4616462B689B6913F0200F1AD13246DF
:1037100021462846FFF7D8FEB0B9FDF7E5FD801B2E
:10372000A04201D8002CEDD16B6C43F020036B64F8
:10373000202385F84130002385F8423085F8403059
:10374000012070BD0020FCE70120FAE770B50446B7
:103750000D46164623689B6913F0040F3ED132468E
:1037600029462046FFF7B0FE0146002838D12368DD
:103770009A6912F0200F13D1FDF7B6FD801BA84205
:1037800001D8002DE6D1636C43F02003636420234D
:1037900084F84130002384F840300121084670BD90
:1037A0009A6912F0040F02D0228D002AF6D120224D
:1037B000DA6121684B6823F0FF7323F48B3323F421
:1037C000FF7323F001034B600023636484F84120FE
:1037D00084F8423084F840300121DFE70021DDE742
:1037E0000121DBE770470000002857D010B50446E0
:1037F00090F84130002B41D0242384F841302268D6
:10380000136823F0010313606368226823F0706378
:1038100013612268936823F400439360E368012BEB
:1038200031D0A368226843F404439360E368022B19
:103830002FD0226851681A4B0B4353602268D3681B
:1038400023F40043D360236962691343A1692268AA
:1038500043EA0123D360E369216A22680B431360C2
:103860002268136843F00103136000206064202382
:1038700084F84130206384F8420010BD80F8403065
:10388000FFF7B0FFB8E7A368226843F400439360F2
:10389000CCE723684FF400625A60CAE70120704702
:1038A000008000022DE9F04782B00F460A9E90F892
:1038B0004110C9B2202940F0A380044690469946A1
:1038C00090F84030012B00F09F804FF0010A80F803
:1038D00040A0FDF709FD05460090192352464FF41C
:1038E00000412046FFF763FE002840F08F8021232F
:1038F00084F84130102384F8423000236364C4F814
:103900002480A4F82A906363638D9BB2FF2B0AD9AD
:10391000FF222285414B00934FF0807339462046A9
:10392000FFF77BFD18E0628D92B222853B4B00933E
:103930004FF00073D2B239462046FFF76EFD0BE020
:10394000628D92B22285002300934FF00073D2B2B1
:1039500039462046FFF761FD638D9BB2002B33D0C3
:103960002A4631462046FFF7F7FD002850D1626A0B
:10397000236812789A62636A01336362638D9BB233
:10398000013B9BB26385238D013B9BB22385628DF6
:1039900092B2002AE0D0002BDED1009533460022FF
:1039A00080212046FFF703FEA0BB638D9BB2FF2B57
:1039B000C6D9FF222285002300934FF08073394639
:1039C0002046FFF72AFDC7E72A4631462046FFF783
:1039D00095FE08BB23682022DA6121684B6823F03A
:1039E000FF7323F48B3323F4FF7323F001034B6045
:1039F00084F84120002384F8423084F8403000E00D
:103A0000022002B0BDE8F0870220FAE70120F8E7C3
:103A10000120F6E70120F4E70120F2E70020008012
:103A20002DE9F04782B00F460A9E90F84110C9B2C6
:103A3000202940F0A28004469046994690F84030F4
:103A4000012B00F09E804FF0010A80F840A0FDF7A6
:103A50004BFC05460090192352464FF40041204686
:103A6000FFF7A5FD002840F08E80222384F8413026
:103A7000102384F8423000236364C4F82480A4F83F
:103A80002A906363638D9BB2FF2B0AD9FF222285A4
:103A9000414B00934FF0807339462046FFF7BDFC41
:103AA00018E0628D92B222853B4B00934FF0007379
:103AB000D2B239462046FFF7B0FC0BE0628D92B2DD
:103AC0002285002300934FF00073D2B2394620467E
:103AD000FFF7A3FC638D9BB2002B32D02A46314600
:103AE0002046FFF733FE00284FD123685A6A636AE5
:103AF0001A70636A01336362228D013A92B22285A1
:103B0000638D9BB2013B9BB26385638D9BB2002B9F
:103B1000E0D0002ADED10095334680212046FFF711
:103B200046FDA0BB638D9BB2FF2BC7D9FF22228528
:103B3000002300934FF0807339462046FFF76DFC59
:103B4000C8E72A4631462046FFF7D8FD08BB236860
:103B50002022DA6121684B6823F0FF7323F48B3352
:103B600023F4FF7323F001034B6084F8412000230A
:103B700084F8423084F8403000E0022002B0BDE812
:103B8000F0870220FAE70120F8E70120F6E701209C
:103B9000F4E70120F2E700BF002400802DE9F04F98
:103BA00083B00D46BDF834A00E9F90F84110C9B205
:103BB000202940F0BC800446904699460C9BBAF1FF
:103BC000000F18BF002B16D090F84030012B00F0EA
:103BD000B2804FF0010B80F840B0FDF785FB064640
:103BE000009019235A464FF400412046FFF7DFFCAE
:103BF00030B101209CE04FF400734364012097E052
:103C0000212384F84130402384F842300023636448
:103C10000C9A6262A4F82AA06363019600974B464F
:103C2000424629462046FFF7EFFC70B9638D9BB2F0
:103C3000FF2B0FD9FF222285002300934FF08073C2
:103C400029462046FFF7E9FB21E0002384F84030B5
:103C500058466DE0628D92B22285002300934FF0AA
:103C60000073D2B229462046FFF7D7FB0FE0628DE2
:103C700092B22285002300934FF00073D2B22946FE
:103C80002046FFF7CAFB638D9BB2002B33D0324630
:103C900039462046FFF760FC00284ED1626A23684F
:103CA00012789A62636A01336362638D9BB2013B4F
:103CB0009BB26385238D013B9BB22385628D92B2BB
:103CC000002AE0D0002BDED100963B460022802166
:103CD0002046FFF76CFC90BB638D9BB2FF2BC6D9CF
:103CE000FF222285002300934FF08073294620464F
:103CF000FFF793FBC7E7324639462046FFF7FEFC45
:103D0000F8B923682022DA6121684B6823F0FF7339
:103D100023F48B3323F4FF7323F001034B6084F807
:103D20004120002384F8423084F8403000E0022033
:103D300003B0BDE8F08F0220FAE70120F8E7012088
:103D4000F6E70120F4E700002DE9F04F83B00D46BF
:103D5000BDF834A00E9F90F84110C9B2202940F060
:103D6000BD800446904699460C9BBAF1000F18BFDF
:103D7000002B16D090F84030012B00F0B3804FF0AC
:103D8000010B80F840B0FDF7AFFA0646009019230A
:103D90005A464FF400412046FFF709FC30B101209C
:103DA0009DE04FF400734364012098E0222384F8DF
:103DB0004130402384F84230002363640C9A6262ED
:103DC000A4F82AA06363019600974B464246294611
:103DD0002046FFF757FC70B9638D9BB2FF2B0FD9BC
:103DE000FF222285434B00934FF0807329462046E3
:103DF000FFF713FB21E0002384F8403058466EE0C3
:103E0000628D92B222853B4B00934FF00073D2B289
:103E100029462046FFF701FB0FE0628D92B2228512
:103E2000002300934FF00073D2B229462046FFF7DB
:103E3000F4FA638D9BB2002B34D000963B460022EF
:103E400004212046FFF7B3FB00284DD123685A6AAE
:103E5000636A1A70636A01336362228D013A92B217
:103E60002285638D9BB2013B9BB26385638D9BB2C0
:103E7000002BDED0002ADCD100963B468021204674
:103E8000FFF795FB90BB638D9BB2FF2BC5D9FF223B
:103E90002285002300934FF0807329462046FFF7C8
:103EA000BCFAC6E7324639462046FFF727FCF8B988
:103EB00023682022DA6121684B6823F0FF7323F422
:103EC0008B3323F4FF7323F001034B6084F841200C
:103ED000002384F8423084F8403000E0022003B030
:103EE000BDE8F08F0220FAE70120F8E70120F6E7AD
:103EF0000120F4E70024008008B5036899691A6876
:103F0000436B03B1984708BD7047704710B504462E
:103F1000002380F8423090F84130DBB2292B05D0E5
:103F200090F84130DBB22A2B0FD010BD282380F847
:103F30004130212303630121FFF78BFA002384F82A
:103F400040302046FFF7E0FFEFE7282380F84130BC
:103F5000222303630221FFF77CFA002384F8403018
:103F60002046FFF7D2FFE0E77047F8B5044690F827
:103F7000413003F02803282B06D003680822DA61B9
:103F8000002380F84030F8BD03689E69C6F3004600
:103F90009A69120C02F0FE059A68C2F30902DF6802
:103FA00007F0FE07C168022921D185EAD21515F074
:103FB000060F10D1816C01318164816C0229E2D13C
:103FC000002181640820D86184F8401031462046E1
:103FD000FFF7CAFFD7E70421FFF73BFA002384F875
:103FE00040303A4631462046FFF7BEFFCBE704217A
:103FF000FFF72FFA002384F840302A463146204646
:10400000FFF7B2FFBFE7704710B50446174BC36216
:1040100000230363202280F8412080F8423043636C
:1040200011F0040F13D003685A6A436A1A70436A86
:1040300001334362038D53B1013B0385438D9BB232
:10404000013B9BB24385436C43F004034364072167
:104050002046FFF7FEF923681022DA61002384F876
:1040600040302046FFF7CFFF10BD00BF0000FFFF2C
:104070007047704710B5044690F84130002084F82E
:104080004200364AE2626085626C0A436264283B01
:10409000DBB2022B24D803212046FFF7DAF92823CC
:1040A00084F84130002323632D4B636323681A682F
:1040B00012F4804F24D01A6822F480421A60A36B55
:1040C000002B3FD0274A1A65002384F84030A06BAC
:1040D000FEF726FD002835D0A06B036D984731E030
:1040E00007212046FFF7B5F994F84130DBB2602B89
:1040F00002D0202384F84130002323636363D5E793
:104100001A6812F4004F12D01A6822F400421A60A2
:10411000E36BBBB1134A1A65002384F84030E06BAF
:10412000FEF7FEFC70B1E06B036D98470AE094F86F
:104130004130DBB2602B06D0002384F840302046AB
:10414000FFF796FF10BD202384F84130002384F848
:1041500040302046FFF78DFFF4E700BF0000FFFF6F
:10416000654304081F45040870B504460D460368FE
:104170001E682022DA610721FFF76BF92268536875
:1041800043F4004353602268536823F0FF7323F421
:104190008B3323F4FF7323F0010353602046FFF7B2
:1041A0002BF916F4804F70D0A36BBBB31B686A4920
:1041B0006A4A934218BF8B422DD0183293422AD0BC
:1041C0001832934227D01832934224D018329342A7
:1041D00021D0183293421ED0183293421BD002F5E0
:1041E0005672934217D01832934214D01832934229
:1041F00011D0183293420ED0183293420BD018329D
:10420000934208D01832934205D01832934202D01C
:104210005B689BB201E05B689BB2638515F0040F9D
:1042200011D025F0040523685A6A636A1A70636A1C
:1042300001336362238D33B1013B2385638D9BB2D0
:10424000013B9BB26385638D9BB21BB1636C43F0F2
:10425000040363640023236384F842306363636C64
:10426000002B51D1E36A13F5803F5BD194F84130C4
:10427000DBB2222B65D0202384F84130002384F860
:1042800040302046FFF740FE5AE016F4004FC5D0FC
:10429000E36B002BC2D01B682F49304A934218BFF2
:1042A0008B422DD0183293422AD01832934227D015
:1042B0001832934224D01832934221D018329342BC
:1042C0001ED0183293421BD002F55672934217D07B
:1042D0001832934214D01832934211D018329342BC
:1042E0000ED0183293420BD01832934208D01832B5
:1042F000934205D01832934202D05B689BB201E032
:104300005B689BB2638589E7616C2046FFF7B2FE6C
:1043100094F84130DBB2282B12D129462046FFF712
:1043200073FE0DE02046FFF7F1FD0D4BE362202305
:1043300084F84130002384F840302046FFF763FEC4
:1043400070BD202384F84130002384F8403020469B
:10435000FFF7DBFDF4E700BF100002402800024039
:104360000000FFFFF8B5C76A90F84030012B00F05D
:104370009F8004460D461646012380F8403011F018
:10438000200F02D012F0200F19D115F0100F3FD0DE
:1043900016F0100F3CD0638D9BB243BB94F84130B4
:1043A000DBB2282B0ED094F84130DBB2292B11D090
:1043B00023681022DA61002084F84000F8BDFFF77E
:1043C000D3FEE2E7B7F1007FEDD129462046FFF7A3
:1043D0001BFEF0E717F5803FEAD023681022DA6170
:1043E0002046FFF709F82046FFF790FDE3E7236832
:1043F0001022DA61636C43F004036364B7F1807FD9
:1044000018BF002FD7D1616C2046FFF733FED2E7EB
:1044100015F0040F1FD016F0040F1CD0638D9BB253
:1044200073B123685A6A636A1A70636A01336362FC
:10443000238D013B2385638D9BB2013B9BB263853A
:10444000638D9BB2002BB6D117F5803FB3D02046C9
:10445000FFF75CFDAFE715F0080F02D016F0080F6C
:1044600018D115F0020FA6D016F0020FA3D0638D5D
:104470009BB2A3B1626A236812789A62636A0133BD
:104480006362638D9BB2013B9BB26385238D013BCD
:10449000238590E729462046FFF767FD8BE7002F2D
:1044A00018BFB7F1807F86D12046FFF72FFD82E746
:1044B000022083E710B502689369116813F4807FC6
:1044C00009D011F0800F06D0446C44F0010444641C
:1044D0004FF48074D46113F4806F0AD011F0800F10
:1044E00007D0426C42F00802426402684FF48064D4
:1044F000D46113F4007F0AD011F0800F07D0436C11
:1045000043F00203436403684FF40072DA61416CC4
:1045100011F00B0F00D110BDFFF7ACFDFBE708B5A4
:10452000806B826B00231365C26B136590F841307A
:10453000DBB2602B02D0FFF79BFD08BD202380F883
:104540004130FFF796FDF8E790F84130DBB2202BC1
:1045500024D190F84030012B22D0012380F8403044
:10456000242380F841300268136823F001031360AC
:104570000268136823F480531360026813681943B8
:1045800011600268136843F001031360202380F870
:104590004130002380F840301846704702207047B1
:1045A000022070472DE9F04383B0D0F80080C1EBC2
:1045B000C10300EB83035A6D1B6D9A4254D8074622
:1045C0000C469B1AC1EBC10200EB8202526C9A426C
:1045D00000D31A4602F103094FEA990915E006F1E2
:1045E00003094FEA9909C4EBC40507EB8505A96CDB
:1045F0003B7C0093B3B2E2B2404607F097F9AB6C54
:104600003344AB646B6D33446B6508EB441303F5C3
:1046100010639B699BB24B4512D3C4EBC40207EBFA
:104620008202516D136D99420AD24BB15B1AC4EBF1
:10463000C40207EB8202566C9E42D0D31E46CEE7E0
:10464000C4EBC40007EB80073A6D7B6D9A420FD82C
:1046500004F00F040123A340D8F8344824EA0304EB
:10466000C8F83448002000E0012003B0BDE8F08322
:104670000020FAE770B58AB0002800F09780054660
:10468000046890F8BD333BB3032385F8BD33E36B77
:1046900013F4807F01D100232B61286806F000FF0E
:1046A0002C4654F8106BEC460FCCACE80F000FCC46
:1046B000ACE80F0094E803008CE803002B1D0ECB40
:1046C000304606F02FFE044658B1022385F8BD336C
:1046D000012420460AB070BD80F8BC330BF03EF8D0
:1046E000D2E70021286806F0E1FE234616E0C3EB7E
:1046F000C30205EB8202012182F83D1082F83C30B2
:10470000A2F84230002182F83F1051649164C3EB5B
:10471000C30205EB820211650133DBB269688B428B
:10472000E5D316E0C4EBC40305EB8303002283F852
:10473000FD2183F8FC4183F8FF21C3F80422C3F86C
:104740000822C4EBC40305EB8303C3F81022013431
:10475000E4B2A142E6D82C4654F8106BEC460FCCDC
:10476000ACE80F000FCCACE80F0094E803008CE835
:1047700003002B1D0ECB304606F0DEFE044660B96A
:10478000002385F83830012385F8BD336B6A012B8F
:1047900008D0286807F082FA9BE7022385F8BD332A
:1047A000012496E7284600F0E1FCF2E7012490E7B7
:1047B000026890F8BC33012B19D010B504460123D0
:1047C00080F8BC33836A012B09D0206807F05AFABD
:1047D000206806F05FFE002084F8BC0310BD8369EA
:1047E000012BF2D0936B43F480339363EDE7022007
:1047F0007047000070B504460D460068066C00EB7B
:10480000411303F530639A682169012911D03449B5
:104810008E424ED03DB9C5EBC50304EB8303D3F8FC
:104820001032002B56D0E9B220460BF0A1F8002040
:1048300070BD12F0080F09D02A498E42F7D912F440
:10484000004FF4D04FF400429A60F0E712F0200FCE
:1048500002D020229A60EAE712F0280FE7D121491E
:104860008E4206D912F4004F03D04FF400429A60F2
:10487000DDE7C5EBC50204EB8202D2F804121B6926
:10488000C3F31203CB1AC2F81432D2F808320B4425
:10489000C2F8083215B9D2F8103223B1E9B2204675
:1048A0000BF066F8C3E704F57172012107F048FACE
:1048B000F4E712F4004F03D04FF400429A60B6E7D9
:1048C00012F0200F01D020229A60E9B220460BF0AE
:1048D0004FF8ACE704F57172002107F031FAA2E756
:1048E0000A31544F0A30544F38B5044603681D6CE2
:1048F00003EB4113D3F8081B0E4A954207D903F581
:10490000306311F4004F02D04FF400429A60204609
:104910000BF026F8074B9D4202D92369012B01D0E9
:10492000002038BD04F571720121206807F008FAF3
:10493000F6E700BF0A30544F2DE9F84F04460568EA
:10494000284607F0E8F908B1BDE8F88F0646206868
:1049500007F0B0F90028F7D0206807F0ABF910F0A5
:10496000020F04D02268536903F0020353612068E8
:1049700007F0A0F910F0100F14D02268936923F00B
:10498000100393612F6A07F00F08C7F34343022B0C
:1049900000F08580062B00F0A1802268936943F027
:1049A00010039361206807F085F910F4002F40F0A0
:1049B000A780206807F07EF910F4802F40F0E9808E
:1049C000206807F077F90028C0F25381206807F0CB
:1049D00071F910F4006F0AD0D5F8083813F0010F00
:1049E00040F061812268536903F4006353612068D9
:1049F00007F060F910F0006F15D02268536903F0DA
:104A00000063536194F8F433002B40F0508101218E
:104A100084F8F41323685B6DC3F38303C4F8F8339D
:104A2000204600F0B7FB206807F044F910F4805FDF
:104A300040F04181206807F03DF910F4005F40F03C
:104A40009581206807F036F910F0080F40F0A68134
:104A5000206807F02FF910F4801F40F0A88120682B
:104A600007F028F910F4001F40F0AB81206807F030
:104A700021F910F0804F40F0AE81206807F01AF95C
:104A800010F0040F3FF460AF23685D6815F0040F69
:104A900040F0AA81226853682B43536054E747F6DD
:104AA000F0731F423FF479AF4FEA171BC8EBC809F8
:104AB00004EB8909C7F30A12D9F80812284607F04F
:104AC00067F8CBF30A02D9F808321344C9F8083260
:104AD000D9F814321A44C9F814225EE7082204F502
:104AE0007171284607F054F8C7F30A17C8EBC802DB
:104AF00004EB8202D2F814321F44C2F814724CE75D
:104B0000206807F0DBF80746B04616E005EB4813CF
:104B10000122C3F8082B41462046FFF76BFE1BE03D
:104B200005EB48130822C3F8082B41462046FFF73F
:104B3000DBFE14E008F101087F08002F3FF439AFD5
:104B400017F0010FF6D05FFA88F1206807F0C6F879
:104B5000814610F0010FD9D119F0080FE0D119F0FA
:104B6000100F04D005EB48131022C3F8082B19F0DE
:104B7000200F04D005EB48132022C3F8082B19F4AA
:104B8000005FD7D005EB48134FF40052C3F8082B51
:104B9000D0E7206807F09AF80746B04629E051466A
:104BA00020460AF0F1FE19F0080F04D005EB481377
:104BB0000822C3F8082919F0100F04D005EB481398
:104BC0001022C3F8082919F0400F04D005EB481350
:104BD0004022C3F8082919F0020F04D005EB48134E
:104BE0000222C3F8082919F0800F3DD108F101080D
:104BF0007F08002F3FF4E4AE17F0010FF6D05FFA04
:104C000088FA5146206807F072F8814610F0010FCB
:104C1000C9D008F00F03012101FA03F2D5F83438A6
:104C200023EA0203C5F8343805EB4813C3F8081922
:104C300023698B42B3D1C8EBC80304EB8303596CDF
:104C40009A6C0A449A64B8F1000FA8D1C8EBC80363
:104C500004EB83031B6D002BA1D104F571720121BC
:104C6000206807F06DF89AE741462046FFF79AFC66
:104C7000BCE7D5F8043823F00103C5F8043894F8EC
:104C8000F433012B08D020460AF0A6FE22685369AF
:104C900003F00043536199E6002184F8F4132046A1
:104CA00000F078FAF2E720460AF090FE9AE62046F5
:104CB0000AF08CFEB7E605F500677B6823F0010378
:104CC0007B601021206806F009FC20E005EB46130C
:104CD0004FF67F31C3F80819D3F8002922F40012E7
:104CE000C3F80029D3F8002942F00062C3F8002974
:104CF000C3F8081BD3F8002B22F40012C3F8002BD2
:104D0000D3F8002B42F00062C3F8002B0136636831
:104D1000B342DBD8FB6943F00113FB61236BDBB1CA
:104D2000D7F8843043F00B03C7F884307B6C43F032
:104D30000B037B64D5F8003823F4FE63C5F8003814
:104D400004F57172217C206806F0FAFF226853692D
:104D500003F4805353616DE67A6942F22B031343E7
:104D60007B613B6943F00B033B61E3E7206806F09E
:104D7000D7FF206806F0A4FCE060256800F0CEFFB5
:104D80000146227B284606F013FB20460AF00DFE62
:104D90002268536903F40053536152E620460AF037
:104DA000FEFD2268536903F00803536150E60021B9
:104DB00020460AF01DFE2268536903F480135361F4
:104DC0004DE6002120460AF00DFE2268536903F4E7
:104DD000001353614AE620460AF010FE2268536928
:104DE00003F08043536148E620460AF00DFE51E689
:104DF00090F8BC33012B0DD010B50446012380F888
:104E0000BC3380F83810006806F02CFF002084F8CE
:104E1000BC0310BD0220704738B505468C4611F022
:104E2000800F29D101F00F0ECEEBCE04A40004F5C3
:104E3000FC740444211DCEEBCE0E00EB8E0E002040
:104E40008EF8FD010CF00F0C81F800C08A60CB7069
:104E50004A780AB1A1F806C0022B1DD095F8BC33E0
:104E6000012B1CD0012385F8BC33286806F038FCE0
:104E7000002085F8BC0338BD01F00F00C0EBC00175
:104E80008900383129440431C0EBC00005EB8000B3
:104E9000012480F83D40D5E700230B71DEE70220B6
:104EA000E9E710B504460A4611F0800F20D101F061
:104EB0000F00C0EBC0039B0003F5FC732344191DD6
:104EC000C0EBC00004EB8000002380F8FD3102F04D
:104ED0000F020A7094F8BC33012B19D0012384F817
:104EE000BC33206806F04AFC002084F8BC0310BDE7
:104EF00001F00F00C0EBC0039B0038332344191DA1
:104F0000C0EBC00004EB8000012380F83D30DEE7F9
:104F10000220ECE710B501F00F04C4EBC4018900D6
:104F200001F5FC7101440431C4EBC40C00EB8C0CA2
:104F3000CCF80822CCF810320023CCF814328CF8CC
:104F4000FD318CF8FC410369012B06D064B9DAB25B
:104F5000006806F05DFC002010BDC4EBC40C00EB43
:104F60008C0CCCF80C22F1E7DAB2006806F0F6FC03
:104F7000F1E701F00F01C1EBC10100EB8101D1F8B4
:104F80001402704710B501F00F04C4EBC40189008E
:104F9000383101440431C4EBC40C00EB8C0CCCF868
:104FA0004820CCF850300023CCF8543001238CF842
:104FB0003D308CF83C400369012B06D064B9DAB26D
:104FC000006806F025FC002010BDC4EBC40C00EB0B
:104FD0008C0CCCF84C20F1E7DAB2006806F0BEFC8D
:104FE000F1E738B501F00F054268954239D804461B
:104FF0000B4611F0800F1FD1C1EBC101890001F5F3
:10500000FC7101440431C3EBC30300EB83030022B2
:1050100083F8FD2101238B700D7094F8BC33012BB4
:1050200021D0012384F8BC33206806F0C0FD8DB187
:10503000002084F8BC0338BDC5EBC50189003831B8
:1050400001440431C5EBC50300EB8303012283F85F
:105050003D20DFE704F57172217C206806F070FEC8
:10506000E6E70120E7E70220E5E701F00F034268E9
:10507000934231D810B5044611F0800F1ED1C3EB16
:10508000C301890001F5FC7101440431C3EBC30283
:1050900000EB8202002082F8FD0100228A700B7072
:1050A00094F8BC33012B19D0012384F8BC33206859
:1050B00006F0AAFD002084F8BC0310BDC3EBC301B9
:1050C0008900383101440431C3EBC30200EB820292
:1050D000012082F83D00E0E7012070470220ECE764
:1050E00090F8BC33012B14D010B50446012380F88E
:1050F000BC3311F0800F06D1006806F003FA0020DF
:1051000084F8BC0310BD01F00F01006806F0E6F959
:10511000F5E70220704710B40468606A31B940EACC
:105120000240A06200205DF8044B70478C46A36AE1
:1051300000EB1340002308E003F1400104EB810180
:10514000496800EB11400133DBB20CF1FF318B42B7
:10515000F2D340EA02400CF13F0104EB81014860C8
:10516000E0E70368596200207047000003460268C8
:105170000121C0F8FC13002083F8F403936943F085
:1051800000639361516D024B0B435365704700BF41
:105190000300001070470000024A136843F4807354
:1051A0001360704700480258134BDB6813F0040F7C
:1051B00007D1114BDB6803F0070383421AD00120AB
:1051C000704710B50C4AD36823F007031843D0602A
:1051D000FCF78AF80446084B5B6813F4005F07D1BC
:1051E000FCF782F8001BB0F57A7FF4D9012000E0CB
:1051F000002010BD0020704700480258024AD368C2
:1052000043F08073D360704700480258002800F0D4
:10521000DC8238B50446036813F0010F25D09F4A9D
:10522000136903F03803926A102B15D0182B0FD096
:105230006368B3F5803F3ED0002B54D1974B1A687A
:1052400022F480321A601A6822F480221A6037E051
:1052500002F00302022AEBD1904B1B6813F4003FCB
:1052600003D06368002B00F0B282236813F0020FB2
:105270007BD08A4A1369926A13F038035ED0182BE8
:1052800059D0E368002B00F0B68084490A6822F008
:10529000190213430B60FCF727F805467F4B1B6888
:1052A00013F0040F40F08F80FCF71EF8401B02281B
:1052B000F4D9032092E2794A136843F480331360EF
:1052C00063683BB3FCF710F80546744B1B6813F496
:1052D000003FCAD1FCF708F8401B41F288339842DE
:1052E000F3D903207AE2B3F5A02F09D06B4B1A68EB
:1052F00022F480321A601A6822F480221A60DFE7F2
:10530000664B1A6842F480221A601A6842F48032AE
:105310001A60D5E7FBF7E8FF0546604B1B6813F4FE
:10532000003FA2D0FBF7E0FF401B41F288339842D8
:10533000F3D9032052E212F0030FA2D1574B1B689E
:1053400013F0040F03D0E368002B00F04282FBF758
:10535000E5FF41F2030398422CD8504A536823F4E6
:105360007C33216943EA01335360236813F0100F43
:1053700070D04A4A136903F03803926A082B52D05E
:10538000182B4CD0E369002B00F0A280434A13682D
:1053900043F080031360FBF7A7FF05463F4B1B68F4
:1053A00013F4807F7CD1FBF79FFF401B0228F5D9C7
:1053B000032013E2394A536823F0FE43216943EA8C
:1053C00001635360D1E7FBF7A9FF41F20303984261
:1053D00008D8324A536823F47C33216943EA013305
:1053E0005360C2E72D4A536823F0FE43216943EA24
:1053F00001635360B9E7294A136823F0010313607E
:10540000FBF772FF0546254B1B6813F0040FACD069
:10541000FBF76AFF401B0228F5D90320DEE102F00A
:105420000302012AAED11D4B1B6813F4807F03D009
:10543000E369802B40F0CF81FBF770FF41F203035B
:10544000984222D8154A536823F0F843216A43EA68
:1054500081635360236813F0080F61D06369002BE8
:105460004AD00E4A536F43F001035367FBF73CFFEA
:1054700005460A4B5B6F13F0020F51D1FBF734FF67
:10548000401B0228F5D90320A8E1044AD36823F081
:105490007C53216A43EA0163D360DBE7004402588E
:1054A000FBF73CFF41F20303984208D8814A536856
:1054B00023F0F843216A43EA81635360CAE77D4AD7
:1054C000D36823F07C53216A43EA0163D360C1E7C8
:1054D000784A136823F080031360FBF705FF054645
:1054E000744B1B6813F4807FB4D0FBF7FDFE401BA8
:1054F0000228F5D9032071E16E4A536F23F00103AE
:105500005367FBF7F1FE05466A4B5B6F13F0020F22
:1055100006D0FBF7E9FE401B0228F5D903205DE128
:10552000236813F0200F29D0A3699BB1614A136847
:1055300043F480531360FBF7D7FE05465D4B1B68B1
:1055400013F4005F1AD1FBF7CFFE401B0228F5D9F8
:10555000032043E1574A136823F480531360FBF799
:10556000C3FE0546534B1B6813F4005F06D0FBF7E0
:10557000BBFE401B0228F5D903202FE1236813F05E
:10558000040F21D1636A002B00F02781494A126978
:1055900002F03802182A00F0EF80022B75D0454A3D
:1055A000136823F080731360FBF79EFE0446414BA3
:1055B0001B6813F0007F00F0DD80FBF795FE001BF9
:1055C0000228F4D9032009E13B4A136843F48073AD
:1055D0001360FBF789FE0546374B1B6813F4807F89
:1055E00006D1FBF781FE401B6428F5D90320F5E0C6
:1055F000A368012B0AD00BBB2E4B1A6F22F00102BD
:105600001A671A6F22F004021A6704E0294A136F1E
:1056100043F001031367A36833B3FBF765FE054648
:10562000244B1B6F13F0020FACD1FBF75DFE401B48
:1056300041F288339842F3D90320CFE0052B09D0FB
:105640001C4B1A6F22F001021A671A6F22F0040233
:105650001A67E0E7174B1A6F42F004021A671A6FD5
:1056600042F001021A67D6E7FBF73EFE0546114BF2
:105670001B6F13F0020F85D0FBF736FE401B41F283
:1056800088339842F3D90320A8E00A4A136823F02C
:1056900080731360FBF728FE0546064B1B6813F06A
:1056A000007F0BD0FBF720FE401B0228F5D903201A
:1056B00094E000BF00440258004802584F4B996ADA
:1056C0004F4A0A40A16AE06A41EA00110A439A621D
:1056D000226B013AC2F30802616B0139490289B2B7
:1056E0000A43A16B0139090401F4FE010A43E16B8D
:1056F0000139090601F0FE410A431A63DA6A22F011
:105700000102DA62596B3F4A0A40A16C42EAC102C7
:105710005A63DA6A22F00C02216C0A43DA62DA6A0E
:1057200022F00202616C0A43DA62DA6A42F48032E1
:10573000DA62DA6A42F40032DA62DA6A42F4802229
:10574000DA62DA6A42F00102DA621A6842F08072C2
:105750001A60FBF7C9FD0446284B1B6813F0007F55
