:020000040800F2
:10000000F8FF0120FD920A0899930A08E1A4050867
:1000100099930A0899930A0899930A080000000026
:1000200000000000000000000000000099930A0892
:1000300099930A080000000099930A08FD620508D8
:1000400099930A0899930A0899930A0899930A08B8
:1000500099930A0899930A08291F0408311F040874
:10006000391F0408411F0408491F0408290700001C
:100070003D070000510700006507000079070000F8
:100080008D070000A107000099930A0899930A08B8
:1000900099930A0899930A0899930A08511F04082A
:1000A00099930A087D49040899930A086D49040840
:1000B0008D4904089D490408AD4904083116040817
:1000C00025160408651604085916040899930A08A9
:1000D00099930A088D100000E1110000351300000B
:1000E000591F040899930A0800000000694A04088F
:1000F000414A0408794A0408314A0408B507000057
:1001000099930A08153F0408BD49040899930A0801
:1001100089140000DD150000CD490408B9CA09089A
:10012000C9070000DD070000F10700000508000016
:100130001908000099930A0899930A0899930A08E4
:1001400000000000000000000000000000000000AF
:100150002D0800004108000055080000311700007C
:10016000991604088D16040899930A0899930A08A9
:1001700099930A0899930A0899930A0800000000C5
:1001800099930A0899930A0885180000D919000064
:1001900099930A0899930A0899930A0899930A0867
:1001A00099930A0899930A0899930A0899930A0857
:1001B00099930A0899930A0899930A08CD16040896
:1001C000C116040899930A0899930A0899930A0892
:1001D00099930A0841B9090899930A0899930A085A
:1001E00099930A0899930A0899930A0899930A0817
:1001F00099930A0899930A0899930A0899930A0807
:1002000099930A0899930A0899930A0899930A08F6
:10021000894A0408994A0408A94A040899930A08D3
:1002200099930A0899930A0899930A080000000014
:10023000193F040899930A080000000099930A08DE
:1002400099930A0899930A0899930A0899930A08B6
:1002500099930A0899930A0899930A0899930A08A6
:1002600099930A0899930A0899930A0899930A0896
:1002700099930A0899930A082D1B000000000000BA
:1002800099930A080000000099930A0800000000F2
:080290000000000099930A0828
:020000040804EE
:100000004368426D30B49A61EFF31182502383F359
:1000100012884168D2B2856C0B68046D23EA05032F
:1000200023430B6082F31188436981681A68096869
:1000300022F00102D0E908541A60826A1D605C61F6
:100040005A60D0E90B429C60DA600023B0F86C2063
:1000500030BCCA6203777047002A4FEA014C03465E
:1000600030B508BFE64600F1C00514BF8E468C4689
:10007000002419680C3353F8042C43F8084C41EA67
:100080000C0142EA0E02AB4243F80C1C43F8042C6C
:10009000EFD1D0F8C03043EA0E03C0E93144C0F8D4
:1000A000C03030BD10B40C4C6368002B11DD002053
:1000B00004F1080C0146DCF8AC3003F1C0025960D1
:1000C0000C339342FBD1013063680CF5867C83428C
:1000D000F1DC5DF8044B704704000020F0B5454C9E
:1000E00004EB401C9CF8543403B9F0BD4FF4B47ECB
:1000F000414B002642010EFB004E9EF83A558EF809
:100100003A658CF83A541D7893F801C065450CD0D7
:100110000CEB4C0E03EBCE0E9EF804604FEA4C0E37
:10012000771E012F5AD9032E52D02244A2F8381438
:10013000EFF31181902383F3128892F83A34C9B215
:10014000B2F8380443EA400300209BB282F83A0434
:1001500081F311881909207881EA13215940D8B117
:10016000C9431B01D2F850540124D2F83C049BB27D
:1001700001F00F01D5F8AC2084400B4302F1C00020
:10018000590013F4004F8BB202D1516821435160E2
:100190000C329042F4D1F0BDD2F83C041B01D2F8ED
:1001A000502401F00F0110309BB20124D2F8AC2092
:1001B0000B43844002F1C000590013F4004F8BB28E
:1001C00002D15168214351600C329042F4D1F0BD0C
:1001D0000CF1010606F00306AE42A6D0E64403EB9E
:1001E000CE030344597C00299FD0A318012083F833
:1001F0003A049AE704000020981C0024704700BFCE
:10020000024B03EB401393F85504704704000020A1
:10021000704700BF0A4810F84C1C81B101EB410146
:1002200000234438490010B41C4650F823200633FC
:1002300002B114608B42F8D15DF8044B70477047EF
:10024000FC1000200A4810F84C1C81B101EB410160
:1002500000234438490010B41C4650F823200633CC
:1002600002B114608B42F8D15DF8044B70477047BF
:10027000FC1000200120704700EB4000024B03EB14
:10028000C00313F8330C7047FC1000202DE9F04335
:100290001D4C14F84C3CABB30022A4F144034FF0C6
:1002A000500E1A4E4FF02C0C194F154607E053F81C
:1002B000181B01320D6014F84C1C914222DD197C90
:1002C0000029F4D05968FE204FEA9128A8F580183B
:1002D000B8F1520F98BF17F80800EFF311888EF3AA
:1002E0001288D1F824900CFB00605FFA88F809F1BD
:1002F0000109C0F88C90486940F00100486188F31A
:100300001188D4E7BDE8F083FC100020981C00247D
:1003100048B30A0800EE100AB8EE400A704700BF62
:10032000BCEEC00A10EE103A98B2704703460122A4
:1003300000205A77704700BF826908B50346006BFA
:10034000D96A02449A6101B18847002008BD00BF04
:10035000436A02461B681B6A5B685B7813F0010006
:1003600008BF5077704700BFC2628161704700BF0D
:10037000704700BF043070470C4B93F8FC22D3F851
:10038000F81202440144D2B2C3F8F81283F8FC22F6
:1003900093F8FC22120605D593F8FC2282F0800225
:1003A00083F8FC22024B01221A707047981C00242B
:1003B000000000242DE9F84F164FD7F80053ED0A3E
:1003C00023D00026DFF850A007F54179B046741914
:1003D000D7F804134FF01003524648BF0134D1F848
:1003E00028B04846C7F830836410E102D8470F2888
:1003F0000BDD094B03F1100153F8042B013207D137
:100400008B42F9D12546B542E1DCE802BDE8F88F20
:10041000661CF8E7981C0024801F0124194BD3F8B0
:100420003813D3F83C238A1A322A15D8D3F850232C
:100430008A4200D37047D3F84023F2B110683231BA
:10044000928810B44469C3F8501322425DF8044BFB
:1004500018BF120482617047D3F8401349B193F872
:100460004C23888802F001020968120100FA02F2A6
:100470008A610022C3F8502370473231C3F8501309
:10048000704700BF981C0024074BD3F840234AB1A3
:1004900093F84C33918803F0010312681B0101FAB1
:1004A00003F3936100207047981C0024044B4FF421
:1004B000007C0020D3F86033A2F800C00B607047C6
:1004C000981C0024002070470120704701207047CD
:1004D0000020704710B41C6994420CD394460A461D
:1004E00061448C42996938BFA4EB0C0261445DF809
:1004F000044B6AF069BB5DF8044B704738B5074B95
:1005000014460D46D3F890331B6A984702464FF4C1
:100510000073002012682A60238038BD981C0024D4
:1005200008B5064BD3F8903323B15B69984701387F
:1005300040B208BD4FF0FF3008BD00BF981C00243A
:10054000002070472DE9F04113B316460F4603EB28
:100550000208134CD4F89053002339463046AD6856
:100560001A46A8470028F5D0D4F89033002BFBD0CA
:100570005B6998470028F7D0013607F50077B0454A
:10058000E8D1D4F838330020C4F83C33BDE8F0811A
:10059000034C0020D4F83833C4F83C33BDE8F08174
:1005A000981C00242DE9F04143B316460F4603EB97
:1005B0000208164C04E0D4F8901319B14B6998471F
:1005C000D4F8901300230D69304639461A46A847DF
:1005D0000028F0D1D4F89033002BFBD05B6998470A
:1005E0000028F7D0013607F50077B045E8D1D4F8F8
:1005F00038330020C4F83C33BDE8F081034C0020C0
:10060000D4F83833C4F83C33BDE8F081981C00249A
:1006100000207047002070472DE9F047DFF89080F8
:1006200015F0BEFE4FF4867900210646D8F8045036
:100630001D4F002D2DDD00231C4609FB03820133D5
:1006400092F80521AB4244EA0204F6D121435FFA55
:1006500081FA7B68C3F30803C3B9EFF31183ABB925
:1006600019F03CF9801BB0F5FA6FCCBF002104F003
:1006700001010029DDD1BAF1000F04D00B4B93F832
:100680009423542A08D05046BDE8F08715F05AFE4E
:10069000E8E78A460024DCE7B3F89C2350460132A1
:1006A000A3F89C23BDE8F08700ED00E0981C00242F
:1006B000040000202DE9F04FBA4D87B02B781BB90C
:1006C000012007B0BDE8F08F6B68DFF8FC92002BCB
:1006D000D9F8386318DD05F108040020B249D4F8D0
:1006E000F430BFF34F8F03F59072C1F85C322033C2
:1006F0009342FAD1BFF34F8FBFF36F8F01306B6816
:1007000004F586749842EADBA84AA94BA2FB0612BC
:10071000DFF8B8A25209A3FB0213DB0803EB830343
:10072000A2EB4303A34A02F18007D9B207EB830B84
:10073000D36F0591049302F55873009300239846F4
:10074000049B984580F20C81DAF81830DAF80460DE
:10075000D3E93D4515F024FE974999F894E3012229
:1007600069180190BEF1540F99F8A80302FA06F235
:1007700004EB410104EB400301D1A9F89E03994227
:1007800040F25F811E88164200F054815E88164256
:1007900000F065819E88164200F06381DE88083390
:1007A0001642ECD11C1B99424FEA640440F2498185
:1007B000281B452828BF452003EB4000834280F0DA
:1007C000448100251E46AC462946CDE9028EB3F889
:1007D00000E00EEA020E8E451CD1B3F802E00EEAEC
:1007E000020E714540F00F81B3F804E00EEA020EEC
:1007F000714540F00A81B3F80680083308EA020820
:10080000414508D1984209D9B3F800E00EEA020E3A
:100810008E45E2D00233984200F2DA80BCF1110F2B
:10082000DDE9028E40F21181DCF1150200F10D814B
:100830006249D9F8AC034B689C4238BF4C60019CBC
:10084000231A002B12DB5E4B03449C4201D9234642
:100850000533C9F8AC334B68052B40F20481053BE6
:10086000DBB289F8A8334FF0FF334B603AB105FA99
:1008700002F2CCF1140C012505FA0CF51543514B8D
:10088000C5F3C43203EB8202506D05F01F0203EB87
:100890008202516DC5F34412C5F3842503EB820235
:1008A00041EA0031526D03EB850341EA02115B6DB1
:1008B00041EA03213F4B81EA1122D3F8683382EAEF
:1008C0001212013302F00F020F2A40F0A080B1F59E
:1008D000803F80F09C80BEF1540F4FEA111147D049
:1008E000344AB1F5606FC2F868334DD0009B9981EE
:1008F00097F858300598834210D0DBF808203B6801
:100900009B1A3B607B68DBF830209B1A7B600023DE
:10091000CBF80830CBF8303087F858003B6801330B
:100920003B60DBF808300133CBF808304FF6FF733B
:10093000994207D17B6801337B60DBF830300133AB
:10094000CBF83030009B08F101085C370BF15C0BF1
:100950001433B8F1080F0AF1200A00937FF4F0AEC7
:100960000123144A012082F8643407B0BDE8F08FF7
:10097000B9F89823B1F5606F02F10102A9F8982344
:100980000C4AC2F86833B1D199F8013003EB430344
:1009900009EBC30343445B7C0D2BA7D18023009A52
:1009A0009377A5E70400002000ED00E01F85EB51E0
:1009B000CDCCCCCCFC100020C7FFFF7F0000002472
:1009C00020A1070048B30A08981C00243C0400201A
:1009D000A3EB060E254E33F8021C4FEA6E0E1140B3
:1009E0000EF1010E86FB0E86A6EBEE764FF0010EA1
:1009F000012EB8BF0126B540B444013E0EFA06F6FA
:100A000035431E46E3E6043305E7063303E7BEF14C
:100A1000540F04D1B9F898230132A9F89823144A45
:100A20004FF6FF71C2F86833D2F864330133C2F86D
:100A300064335DE702331C1B99424FEA64043FF6BE
:100A4000B7AE10B1013889F8A803BEF1540F7FF496
:100A500079AFB9F89A330133A9F89A3372E70433BE
:100A6000A0E606339EE60023FBE600BF565555552B
:100A7000FC10002010B5044669F074FC01462046C5
:100A800089B2BDE81040FFF729BB00BF00EB400072
:100A900010B5084C04EBC00414ED0F7A54ED0E7A37
:100AA000E7EE007AB0EE670A69F05CFC54F8443C6B
:100AB000186010BDFC100020264B70B51A785B78CA
:100AC0009A4242D1244E7368002B22DD06F10800C1
:100AD0000025224CD0F8AC30BFF34F8F03F1E00279
:100AE000C4F8683220339342FAD1BFF34F8FBFF37B
:100AF0006F8F337813B1037F012B20D0426901350A
:100B0000716800F586701368A94243F00103136011
:100B1000E0DC15F045FC124BD3F86844002C0DDDE9
:100B200003F26C4303EBC4041968083333F8042C54
:100B3000C8689C4242EA0002CA60F5D170BD002339
:100B400080F8FC30FFF75CFAD8E767F0DDF90028A1
:100B5000B8D170BD981C00240400002000ED00E016
:100B6000FC100020F8B54FF0B043D3F88050D3F814
:100B7000882015400540C3F888507DB1084F0126F4
:100B8000B5FA85F4C4F11F0407EB840306FA04F4F4
:100B9000D3F8B00303689847A543F1D1F8BD00BF6F
:100BA000981C002402692DE9F843C36812EA03087F
:100BB00028D005460E464FF00047B8FA88F327FACA
:100BC00003F21B3BD24308EA02082A61042B16D821
:100BD000DFE803F03B30251A0300B36A002B3FD057
:100BE00003F1FF3900231FFA89F9B362746A34B143
:100BF00023682046494698476468002CF8D1B8F12C
:100C0000000FDAD1BDE8F88370680028F7D0696B6F
:100C1000036889B29847B8F1000FCED1F2E7B06807
:100C20000028ECD0A96B036889B29847B8F1000F8F
:100C3000C3D1E7E7F0680028E1D0E96B036889B227
:100C40009847B8F1000FB8D1DCE730690028D6D05A
:100C5000296C036889B29847B8F1000FADD1D1E78C
:100C6000EB6A1FFA83F9C1E78069B43057F01ABC08
:100C700038B590F828300446012B06D0407F08B9DB
:100C8000012038BD0023637738BD406A03681A7BB2
:100C90009AB9637F002BF3D00A4D022305F120029D
:100CA00005F1400110F030FF95F82130D84303F0F2
:100CB000010300F001006377E6E71B6A002BE8D030
:100CC000002038BD801F012438B5044694F8283030
:100CD000012B07D0637F0BB100236377012038BD60
:100CE0001B6A23B1606A03681A7B002AF8D1637F0C
:100CF000002BF3D0074D022305F1200205F140013E
:100D000010F002FF95F8213003F00102DB07627753
:100D1000E4D5DBE7801F0124F0B511F0010583B0B5
:100D20000AD190F828600446012E07D0C368B3F1B9
:100D3000807F01D90123037703B0F0BD0A4B476AD6
:100D4000D3F8900410F0ECFFE368B880B3F1807F33
:100D5000F2D9B7212A46384633468DF8041001A946
:100D6000267710F0D1FEE7E7981C0024F0B50023A9
:100D700095B0224E0446069302200B9306F18002A2
:100D8000109313931193009206F1A002277F1C4D3C
:100D90000192626A04950D460290CDE90E3301235B
:100DA0008DF80C3007938DF820308DF834308DF8A5
:100DB000483006F1C0030593124B099306F1600316
:100DC0000A933B1D10680C9367F01AF89FB12A0E26
:100DD00006F1620386F861202A0A9D70280C694694
:100DE0005A701870606A10F073FD636A186867F0D3
:100DF00007F815B0F0BD06F16103EDE7801F01248F
:100E0000510304082D03040810B594B00446502281
:100E10000649684669F0D8FE6946606A10F058FDD8
:100E2000636A186866F0ECFF14B010BD1CB40A08C1
:100E30002DE9F8431F46436A0446884618689146E0
:100E400066F0DEFF237FA069002B3BD0254E020E0B
:100E5000052386F8E120E236234D012FB070AB6305
:100E60004FEA10434FEA1020337070704FF00000CB
:100E7000D8F800306B64D9F80030EB642363E86580
:100E800023D0022F1CD1D9F8042068651344D8F868
:100E9000041085F850002A660122A9652363134BCC
:100EA00085F86420AB66124B627FA3F11401606A7F
:100EB000002A08BF194610F00BFDE36A63B1206BEE
:100EC000BDE8F88304230B4EC6E7084B85F8507045
:100ED000A86528666B65E6E7636A186866F090FFA8
:100EE000EDE700BF801F012400000024390304083F
:100EF0001C0000246120012400B583B081610192AF
:100F000001A9049A00930123C2626A46FFF790FF89
:100F100003B05DF804FB00BF2DE9F0411F46436AB2
:100F200094B01446064618680D4666F069FF0B94A7
:100F30000022274C069204F590738DF8202013921E
:100F4000009304F5A0730C9701930223CDE90922C5
:100F500002930123CDE90E22CDE910221D4A8DF81E
:100F60000C308DF834308DF84830049204F58072DE
:100F7000337F05921A1D07922BB32B0E04F5817453
:100F800004F8013C2B0CA570DFF84C802D0A23706F
:100F90006570D8F8900410F0C3FE746A737FA08067
:100FA000A3B16946204610F093FC746A206866F08D
:100FB00027FFD8F8940410F0B3FE03463846A38008
:100FC00014B0BDE8F08104F20114DBE705A9E9E7FC
:100FD000801F012451030408981C00242DE9F843C4
:100FE000DDF820800F4616460021202204461D46CB
:100FF00069F090FFB8F1000F0CD0D8F80030B8F8C5
:101000000A20E3811B0C2382D8F804306282E38239
:101010001B0C2383384667F023FCF30619D4431EC8
:10102000B8B107EB000C01E0013B12D31CF801ED55
:10103000BEF12E0FF8D1C01A03F10109421EB944C6
:10104000032AA8BF0322082BA8BF082390461A46EC
:1010500006E008280246B9464FF00008A8BF08225B
:101060004FF02033394620462360636069F0ACFDC1
:10107000164B04F10800424649462381837069F00B
:10108000A3FD611EE21D11F801CFACF16103ACF1CB
:10109000200C192B98BF81F800C09142F3D104F1C4
:1010A0000A0011F8013FA3F16102203B192A98BF01
:1010B0000B708142F5D1182365832D0CE6722373E2
:1010C000099BA582E361BDE8F88300BF20202000D2
:1010D0002DE9F04FDFF8509485B0D9F83803C9F8FE
:1010E0003C03002B5ED00C46154601F5FE7603EB63
:1010F000020B1DE0002D62D0D9F86C33AB4200F03A
:10110000C580D9F86833AB4200F0F780D9E9DC310B
:10111000AB424BD88D42C0F07281691A20465FF015
:101120009BFE013504F5007406F500765D4539D067
:10113000D9F87823AA42DDD8AA1AD9F88873D30837
:10114000396B02F0070802338B4202D3BA6B934229
:101150000BD93946184603935FF04EFE039B0746B2
:10116000002800F06C81C9F888033A79002A40F021
:101170001D81D7F828A0BAF1000F00F059813A6B11
:10118000013520464FF400719B1AFA6804F500748B
:1011900006F5007608EBC3083B4602EB4822D04731
:1011A0005D45C5D1002005B0BDE8F08F8D42B4D2B9
:1011B0004FF400720021204669F0ACFEB1E74FF415
:1011C00000722946204669F0A5FE8023CA4A84F8A9
:1011D000BE310C2384F8C231D9F86813D9F86033D2
:1011E0009142C4F8C611C4F8CA3100F30D81C34A54
:1011F000013BC34F82FB0102C81787FB01C70A44AA
:10120000C0EB6212C0EB2730BE4F87FB02C7C2EBB8
:10121000821C84F8C1018010A1EB0C01174420F05E
:101220003F0001310843D117C1EBE71184F8C00139
:101230000A4484F8BF21B04A934200F3F180AF4AD8
:10124000AF4882FB0312D91780FB03701A44C1EB2D
:101250006212C1EB2031AB4880FB0270C2EB8217F7
:1012600084F8C5118910DB1B104421F03F010133C4
:101270001943D317C3EBE01384F8C4111A4484F85C
:10128000C3214AF65523A4F8FE314AE74FF0FF3355
:1012900000274FF4F072201D84F8EC31394684F8B1
:1012A000ED3184F8EE3184F8EF315223237063700E
:1012B0006123A37084F8E7314123E37084F8E631B9
:1012C000722384F8E43184F8E531D9F88033C4F826
:1012D000E83169F01FFE5523C4F8F07184F8FE313F
:1012E0006FF05503C4F8F471C4F8F87184F8FC7118
:1012F00084F8FD7184F8FF3113E74FF40072002188
:10130000204669F007FE804B022203CB45F6EB0333
:101310002274227323809023A273A370F82384F88D
:101320002C200822C4F803006273C4F80710637508
:10133000D9F86813D9F860335B1A2362D9E9DC1352
:101340005B1A4AF6552163620023E372E373637705
:10135000A377E37784F82D3084F82E3084F82F308B
:1013600084F83130694BA3613E232377012384F84D
:101370003030802384F84030654BC4F84230654BF0
:1013800084F84620A4F8FE11634A03CBC4F84B103E
:101390001988C4F847009B78A4F84F1084F851309E
:1013A00003CAC4F85200C4F85610BAE64FF40072EB
:1013B0000021204669F0AEFD3B6CB8F1000F45D12D
:1013C00004F1200A002B00F081803B6B112253496D
:1013D0002046CDE90088FFF701FE3B6C1A6C002A1D
:1013E00000F081801B6B504611224D49CDE90088E9
:1013F000FFF7F4FD04F1400A4FF4E07871E0E91AD8
:1014000020465FF029FD8CE6FF22013B84F8C121D4
:101410004FF6FF72A4F8BF21374A93427FF70FAF10
:10142000FF2384F8C5314FF6FF73A4F8C33128E7D2
:1014300051464FF40072204669F06CFD71E6231F9F
:10144000384A43F8042F9E42FBD16AE6002B7F6C9A
:1014500014BF02230123C3EB0813002F3FF461AE36
:10146000013BBF6C002B01DD002FF9D1A2464FF4E8
:101470000078002F3FF455AE0AEB080303959A4617
:101480000BE00025A8F12008CDE900E5FFF7A6FD57
:10149000BF6CCFB1B8F11F0F16D93D7907F11C0E03
:1014A000112239683B6BAAEB0800002DE9D17A794B
:1014B000A8F120083D6942F02102CDE900E5FFF7DF
:1014C0008DFDBF6C002FE5D1039D2AE6CDE9008894
:1014D00043464FF4F0780822D9F864132046FFF70A
:1014E0007DFD7F6CC5E75046434611220C49CDE98E
:1014F0000088FFF773FD7DE7FF03FB008320088270
:10150000975545418180808048470B083F00FF0088
:1015100029940E0D54470B0860470B0840470B08F1
:1015200044470B08DEADBEEF981C002410B50F4CED
:10153000D4F840234AB194F84C33918803F0010366
:1015400012681B0101FA03F393615FF017FCD4F8F2
:101550009033002BFBD05B6998470028F7D0D4F874
:1015600038330020C4F83C3310BD00BF981C002461
:1015700010B4294C94F86C3B6BB3D4F88C24904293
:1015800035D0012B27D0D4F86825824237D0022BE2
:1015900021D0D4F84426904233D0032B1BD0D4F86A
:1015A000202790422FD0042B15D0D4F8FC2790424E
:1015B0002BD0052B0FD0D4F8D828904227D0062B5B
:1015C00009D0D4F8B429904223D0072B03D0D4F803
:1015D000902A824211D0DC22591C02FB034284F87B
:1015E0006C1BC2F88C0418465DF8044B704700234E
:1015F000DBB25DF8044B184670470723F8E7012378
:10160000F6E70223F4E70323F2E70423F0E70523D8
:10161000EEE70623ECE700BFFC1000200020704737
:10162000704700BF014858F085B800BF482100242A
:10163000084810B4D0F8B034D0F8E44499691A6876
:101640002CB1234600F596605DF8044B18475DF811
:10165000044B7047981C0024014858F06BB800BF39
:10166000AC210024084810B4D0F81435D0F848450F
:1016700099691A682CB1234600F214505DF8044BA6
:1016800018475DF8044B7047981C0024014858F037
:1016900051B800BF10220024084810B4D0F87835A3
:1016A000D0F8AC4599691A682CB1234600F5AF60B3
:1016B0005DF8044B18475DF8044B7047981C0024F4
:1016C000014858F037B800BF74220024084810B40D
:1016D000D0F8DC35D0F8104699691A682CB1234649
:1016E00000F2DC505DF8044B18475DF8044B70477E
:1016F000981C00242DE9F04784B08DF80F30431C6E
:1017000000F09F800328044600F39B80824E6423F0
:1017100003FB0063D3F8B004002800F0928093F834
:10172000F154202D40F0878093F8F054012D00F003
:1017300082800125D6F8287683F8F05404E0D6F8A4
:101740002836DB1B192B66D8856915F40045F6D1C0
:101750004FF0640A714B00974FEA41080AFB04FA04
:1017600041460AEB0309B24421234846CAF8E4542F
:101770008AF8F13440238AF8F2340DF10F03CAF8E5
:10178000F454CAF8D4340123AAF8DA340A2361F0F5
:1017900095FB002873D1BAF8DA349BB2FF2B40F2E4
:1017A0009180DAF8B014FF235D48AAF8D8344B686A
:1017B0005C4A034043EA08031A434A60642505FB78
:1017C000046505E0B5F8DA349BB2002B00F08C809C
:1017D0003A460A21484657F0EBFF60BBD5F8D434AF
:1017E000D5F8B01413F8010BB5F8D8248862C5F801
:1017F000D434013AB5F8DA3492B2013BA5F8D824D2
:101800009BB2A5F8DA34B5F8DA349BB2002BD9D004
:10181000002AD7D11EE064232020002103FB0463AB
:10182000D3F8F42483F8F0140243C3F8F42483F8C3
:10183000F10483F8F214B6F82C3601339BB2A6F803
:101840002C36002004B0BDE8F087D6F82836DB1B24
:101850000A2B27D88A6912F08002F6D0B5F8DA345C
:101860009BB2FF2B0ED94B682D4A13402D4A43EAF9
:1018700008031A43FF23A5F8D8344A60A2E78AF880
:10188000F054D8E7B5F8DA3425489BB24A68A5F891
:10189000D834DBB2024048EA0343134343F00073F9
:1018A0004B608FE76423202103FB0464D4F8F434F5
:1018B00084F8F0240B43C4F8F43484F8F11484F869
:1018C000F224B8E7BAF8DA34DAF8B0149BB2144864
:1018D0004A68AAF8D834DBB2024048EA034313430B
:1018E00043F000734B6069E73946484661F092FA6D
:1018F000034600289FD1D5F8B02420240A48D4619B
:10190000516801400120516085F8F14485F8F034B8
:1019100085F8F23496E700BF981C00244821002483
:10192000009C00FC0000FF0100E800FEB0F1FF3F5A
:1019300000F00A8103282DE9F047064682B000F343
:10194000A3808F4C642000FB0640D0F8B074002FB9
:1019500000F09A8090F8F154202D40F08F8090F89C
:10196000F054012D00F08A80012580F8F054D4F85D
:101970002856B86910F4004909D0D4F82806401B4D
:10198000192800F28580B86910F40049F5D14FF0AC
:10199000640A7C4F4FEA41080A990AFB06FA00954F
:1019A0005744A244CAF8D41422213846CAF8E49411
:1019B0008AF8F11440218AF8F2144146CAF8F494E6
:1019C000AAF8DA340A2361F0EDF9002840F0BE806D
:1019D000BAF8DA349BB2FF2B6BD8BAF8DA34DAF8FB
:1019E000B0149BB268484A68AAF8D834DBB2024007
:1019F00048EA03431343654A1A434A604FF06409B7
:101A000009FB064904E0D4F828365B1B0A2B26D8CC
:101A10008A6912F00402F6D04A6AD9F8D4341A70EE
:101A2000B9F8DA34D9F8D424013B01329BB2C9F8B1
:101A3000D424A9F8DA34B9F8D834B9F8DA24013B57
:101A400092B29BB2A9F8D8340BB9002A3FD1B9F8A9
:101A5000DA349BB2002B7CD0D9F8B014D8E76423D9
:101A6000202003FB0643D3F8F41483F8F024014349
:101A7000C3F8F41483F8F10483F8F224B4F82C3694
:101A800001339BB2A4F82C36002002B0BDE8F087E9
:101A900064232020002103FB0643D3F8F42483F8B9
:101AA000F0140243C3F8F42483F8F10483F8F21429
:101AB000E4E7DAF8B014FF233348AAF8D8344B68C7
:101AC000334A034043EA08031A434A6096E7D9F8C9
:101AD000B01404E0D4F828365B1B0A2B24D88A699A
:101AE00012F08002F6D0B9F8DA349BB2FF2B0BD992
:101AF0004B68284A1340284A43EA08031A43FF2345
:101B0000A9F8D8344A60A2E7B9F8DA3421489BB280
:101B10004A68A9F8D834DBB2024048EA03431343C9
:101B200043F000734B6092E76423202103FB0646D9
:101B3000D6F8F43486F8F0240B43C6F8F43486F86B
:101B4000F11486F8F22499E7002070478AF8F0949F
:101B500094E72946384661F05DF9034600288DD1A7
:101B6000D9F8B02420240D48D461516801400120E7
:101B7000516089F8F14489F8F03489F8F23484E747
:101B8000981C002448210024009800FC00240082B6
:101B90000024FF81009C00FC0000FF0100E800FE23
:101BA000114A037A0168D35C10B4CC58CA1824F0E7
:101BB0000104CC501368DB07FCD4037D1F2B09D92B
:101BC000203B20225DF8044B02FA03F343F0180394
:101BD000CB60704720225DF8044B02FA03F343F018
:101BE00018038B60704700BF64480B082DE9F04173
:101BF0000468D4E90435A8611A7D1F681F2A49D9F1
:101C0000203A20212E6801FA02F242F01802FA600E
:101C10002A7D1F2A48D9203A202101FA02F242F0F7
:101C20001802F2606A680021586801603846116045
:101C3000116841F01001116093F80880A2694146D3
:101C400062F0B8FB2D7AE2693046294662F0B2FBB9
:101C5000226A63689468184A12F80800515D5A684D
:101C60006FF30F0222435A603A5842F001023A5091
:101C7000725842F0010272509A6842F440429A60EF
:101C80001A6842F001021A601A6842F400721A607F
:101C9000BDE8F08120212E6801FA02F242F018021C
:101CA000BA602A7D1F2AB6D8202101FA02F242F03A
:101CB0001802B260B6E700BF64480B0810B10368B1
:101CC00082889A61704700BF18B1838802681B043C
:101CD0009361704708B51D2010F0B2FB08B18379FD
:101CE0004BB11E2010F0ACFB08B1837903B108BDE5
:101CF0005523C38008BD5523C380F2E7D3B20F2B11
:101D000029D8164B4FF0000C00B505E00CF1010C82
:101D10000333BCF12A0F1BD093F800E08645F5D1C0
:101D200093F801E08E45F1D10CEB4C0C0C4B02EB1F
:101D300042020C48634400EB8201803093F8263164
:101D400000EB8200C1F8883081F880305DF804FB38
:101D500000205DF804FB0020704700BF6CB40A0847
:101D600048B30A080000002410B40C4C002304F50A
:101D7000C66C01E0152B0CD003EB430201331CF8B9
:101D800002108142F6D1144494F932065DF8044BF6
:101D900070474FF0FF305DF8044B7047981C0024EB
:101DA00030B5124D002305F5D27C02E001331A2B29
:101DB0001AD05CF833408442F8D10CEBC30EDC003F
:101DC0009EF804E08E45F1D102EB4202084B254417
:101DD00003EB8201803395F8A94103EB8200C1F83F
:101DE000884081F8804030BD002030BD48B30A08EB
:101DF00000000024F0B1002310B504460E4894F80A
:101E000004E000F5C66C01E0152B11D003EB430292
:101E100001331CF802107145F6D1831861792068EE
:101E200093F93226D3B20F2B02D8BDE81040B7E7A2
:101E3000002010BD00207047981C002401380E4B74
:101E40000E4A00EBC000D2F8D81003EB800310B4A8
:101E5000D3F8403183B00A4CA34214BF02230123BC
:101E60001943C2F8D810D2F8D82013400193019B2F
:101E700003B05DF8044B7047000000240044025892
:101E8000000002400138F8B500EBC000124C1D46BE
:101E9000124B04EB800417460E46D4F840019842DA
:101EA00014BFA120A02061F06DF8B4F95601B90962
:101EB000C4F85061C4F8585161F038F8B4F956319B
:101EC000002B07DB03F01F0001225B09044982405D
:101ED00041F82320F8BD00BF0000002400000240AC
:101EE00000E100E0800AA0F58010522806D8044BDB
:101EF0001B5C0D2B02D8034AD05670470020704758
:101F000048B30A0854480B0860B182884FF0B041CA
:101F10004FF00043B2FA82F2D1F88000D34003437D
:101F2000C1F88030704700BF0120FEF71BBE00BF24
:101F30000220FEF717BE00BF0420FEF713BE00BF4D
:101F40000820FEF70FBE00BF1020FEF70BBE00BF3B
:101F50004FF47870FEF706BE4FF47C40FEF702BEE9
:101F600030B1036882881B691A4214BF0120002027
:101F7000704700BF70B50D4682B00446164640B1AA
:101F800001680C4B0C4A0B449B0A02EB4303B3F869
:101F9000740260F0F7FFC5F38101C5F3411305F04A
:101FA0001302CDE90016A188206863F045FA02B05B
:101FB00070BD00BF0000FEA748B30A0800B1D9E712
:101FC00070472DE9F84FC14F6423044603FB0073AB
:101FD000D3F89864002E00F06481D3F8A084B8F19F
:101FE000000F04D098F80630002B40F05A8164238B
:101FF00003FB0473D3F8A4541DB1AB79002B40F05C
:102000005081631CDBB2B8F1000F04D0152288F8B0
:10201000073088F8062015B11622EB71AA714FF02F
:10202000640A308B60F0AEFF29460AFB04FA404692
:1020300065F0EAFE404607EB0A09DFF8B48299F83A
:10204000AA3499F8A824002B0CBF4FF01E0B4FF0B8
:102050003E0B5946FFF7B2FF28469D4D594699F869
:10206000A9245544FFF7AAFF4C220021284668F016
:1020700051FFD9F89834974A5B689342C9F8B03455
:10208000DFF8709240F00F8157F0BAFED9F8203097
:10209000C3F30213434493F8883203F01F039FED08
:1020A0008E7A9FED8E5AB0EE084AD8406423F7EE40
:1020B000003A4FF0000C07EE900A03FB047340F265
:1020C0001458F8EE677AB3F8ACA4C7EE275A07EEB7
:1020D00090AA9FED837AF8EEE77AC7EE274ADFED04
:1020E000817AB0EE007AE5EE877AA5EE875A25EE82
:1020F000844A37EE856A74EEE72ABAF5C87F0CF198
:10210000010ED5BF4FF4967278226423322307EE76
:1021100090EAD8BF4FF416791344A2F13202F8EED8
:10212000E76AC8BF4FF4827907EE903AD4BF4146C0
:102130004FF4FA7166EEA56AB8EEE77AC7EE267A32
:1021400007EE102A01EB0902B8EEC77A37EE447A9F
:1021500077EEE37AFCEEE77A17EE903AC7EE267A4E
:10216000FCEEE77A17EE900A07EE909AB8EEE73A9F
:1021700007EE902AF8EEE77A23EE243A83EE277AE8
:1021800037EE453A32EEC77AC3EE267A77EEE37A37
:10219000FCEEE77A17EE901AC7EE267A77EEE37A2E
:1021A000FCEEE77A17EE902A02F1020909EB010B27
:1021B000B0EE467A07EE90BAF8EE677AA6EEA77A06
:1021C000F4EEC74AF1EE10FA79DC43EA00095FFA4F
:1021D00089F9B9F10F0F74D841EA02091FFA89F998
:1021E000B9F1FF0F6DD81B05000403F07F6392B2B5
:1021F00000F47F0003433C4843EA0C7300EA0121EA
:102200000B4313436422284602FB04740027C4F8DE
:10221000B4340123C4F8B874C4F8BC34C4F8C0742E
:10222000C4F8C474C4F8CC74C4F8D07463F0B6F8BD
:1022300094F8F134202BD9B21AD194F8F034012B50
:1022400016D0242384F8F134D4F8B0341A6822F07C
:1022500001021A601A6822F480521A601A681A6021
:102260001A6842F001021A6084F8F11484F8F074DC
:102270000021F07E60F05AFEF37E01241B4D5A09C6
:1022800003F01F03002104FA03F345F82230B07E67
:1022900060F04CFEB37E5A0903F01F039C4045F8E2
:1022A0002240BDE8F88F57F0ABFDD9F81C30C3F3DE
:1022B0000213984498F88832EFE6F4461DE701319E
:1022C00074E7BEF10F0FF8D100239BE7981C0024A0
:1022D00048210024001C0058286B6E4E0000164355
:1022E000002474490000704200FFFF0000E100E09C
:1022F00048B30A08004402582DE9F047984D05EB11
:102300000013D3F87046002C00F08F80B3F87A7673
:1023100006464FEA0019384660F034FE01227B0978
:1023200007F01F07023BBA40082B0FD8DFE813F075
:10233000BF00C700CF00D700DF000900E700EF00B3
:10234000B7008849CB6F23EA0203CB6705EB09038B
:10235000013693F87406F6B210F072F8074610B121
:102360001223C671837105EB090393F8750610F00B
:1023700067F8824610B11323C671837105EB090318
:1023800093F8760610F05CF8804610B11423C671FD
:1023900083714D4450462E2195F87826FFF70EFEA6
:1023A00095F8792640460E21FFF708FE95F8772626
:1023B0002E213846FFF702FE23686B4A23F0010303
:1023C0009442236033D0694B9C423ED1654BD3F895
:1023D000902042F48042C3F89020D3F8902022F459
:1023E0008042C3F89020E36843F00043E360A368B1
:1023F00023F4F073A3602368DA0716D4A1685C4A5B
:102400005C4B0A401343A360E368DB0042D5E268FB
:10241000594B134043F0E863E360236823F40063FF
:102420002360236D23F001032365BDE8F0874D4B46
:10243000D3F8982042F48052C3F89820D3F898201B
:1024400022F48052C3F89820CDE74C4B9C4213D025
:102450004B4B9C4263D04B4B9C426ED1414BD3F8CB
:10246000982042F48012C3F89820D3F8982022F4E0
:102470008012C3F89820B6E73A4BD3F8902042F484
:102480000042C3F89020D3F8902022F40042C3F811
:102490009020A8E7236843F480532360B7E73149CD
:1024A000D1F89C3023EA0203C1F89C304EE72D4955
:1024B000D1F8983023EA0203C1F8983046E7294959
:1024C000D1F8903023EA0203C1F890303EE7254965
:1024D000D1F8943023EA0203C1F8943036E7214959
:1024E000D1F8803023EA0203C1F880302EE71D497D
:1024F000D1F8843023EA0203C1F8843026E7194971
:10250000D1F88C3023EA0203C1F88C301EE715495C
:10251000D1F8883023EA0203C1F8883016E7114B5E
:10252000D3F8982042F40052C3F89820D3F89820AA
:1025300022F40052C3F8982055E7134B9C427FF4D5
:1025400052AF03F50C33D3F89C2042F02002C3F8BD
:102550009C20D3F89C2022F02002C3F89C2042E764
:10256000981C00240044025800300140003800400C
:10257000E0FFBF8F07000020FFFF39D8003C00407C
:1025800000340140005001400014005808B10022FE
:10259000F0E470470D4B70B5DE6F002E14DD0C4C6F
:1025A000002503E001352034B5420DD0237F002BF8
:1025B000F8D0E06800220028F4D00135217DFFF733
:1025C000D9FC2034B542F1D1012070BDFC100020AF
:1025D0003C04002070B590F8EE311C09013C062C3B
:1025E0000FD81A4E054603F00F0306EB4402B2F86B
:1025F000B80240FA03F2D20703D595F8F921012A6F
:1026000001D0012070BD9A402644013A104068F084
:10261000D5FC96F8C8320E4A034402EBC30452F8C4
:102620003320A38810691840ECD0002395F8EF21DF
:102630000221204685F8F931FFF79CFCD5F850219E
:10264000136843F008031360DBE700BF48B30A08D0
:1026500068230024014B53F8200070475040005875
:10266000014B43F8201070475040005819481A4B4E
:1026700001681A4A41F4807130B4016082B0D3F825
:10268000F410FF24CA2041F48031C3F8F410D3F8C9
:10269000F41001F4803101915321019D5462506284
:1026A0005162D3F8D030DB010CD40C4B00220C4922
:1026B0005A659A65DA651A665A669A66196502B0AD
:1026C00030BC7047126D064B9A42EED102B030BC5E
:1026D000704700BF004802580044025800400058AC
:1026E000316665422DE9F84FD0F85C710446534BD2
:1026F00000F59676FDB227F0FF09826800F1E00A46
:10270000103D4846D2F80080A3FB05352D09294627
:1027100061F0ACFED4F81C210023B2F5807F84F870
:1027200020317FD00DD8102A00F084805DD8012A96
:1027300046D0042A16BF6FF400616FF008013C23F5
:102740000EE0B2F5805F71D0B2F5803F3BD0B2F5BC
:10275000806F15BF6FF400616FF008013C23042304
:10276000324608F11806404656F803C001EA0C014B
:10277000F150D4F81CB1594661F026FBBBF5807FBF
:102780002ED024D8BBF1100F3FD037D8BBF1010FAA
:1027900002D0BBF1040F34D14FF0080C336852461D
:1027A0002946484643EA0C0333604023C4F8E83026
:1027B00061F000FE3B6843F010033B60BDE8F88F1A
:1027C0006FF00801CCE76FF008013C23C8E7BBF5C8
:1027D000805F22D0BBF5803F1AD0BBF5806F10D14F
:1027E00008F11C064FF0080CD8E7402A15BF6FF41B
:1027F00000616FF008013C230023B1E7BBF1400FFB
:10280000CAD03C364FF4006CC8E74FF4006CC5E703
:1028100008F154064FF0080CC0E708F11C064FF40D
:10282000006CBBE76FF00801042399E76FF40061C7
:10283000042395E76FF4006192E700BFABAAAAAA50
:102840002DE9F04F464D85B02B781BB9012005B01E
:10285000BDE8F08F434BD3F8384313F0A1FD424954
:1028600091F8B83B002B00F0C381404B01F1800888
:102870003F4E05F5A765A3FB042301F5587A002711
:102880005B09A6FB0326F60806EB8606A3EB4606C5
:10289000D1F87C3BC31AF2B208EB86069946039244
:1028A000B9F1000F04DBD5F824314B4500F38781E3
:1028B0004FF4B4732A4A03FB072393F85836002BCE
:1028C00000F0C180D5F85C11AB682A481A68CBB219
:1028D00021F0FF01103BA0FB030327481B09C35C49
:1028E0000B44A9895C68D368A4B223EA0103C4F14C
:1028F0001604D360072C40F2A6801B4A0121D2F8AF
:1029000068338B460133C2F868330022D5F864314E
:10291000944618689E46CDE9017314E0BCF1140F8B
:102920002CDC13F1080748BF03F117073B110CEB30
:10293000271C5F1E013102FA03F30BFA07F78C42E2
:1029400047EA03021AD303468C425EF8040FA0EB59
:102950000303E3D8CCF115034FF0150CE9E700BFF2
:1029600004000020981C0024FC1000201F85EB515F
:10297000CDCCCCCCABAAAAAA64480B08BCF1150FED
:10298000DDE9017340F011819D4CC2F38421C2F353
:10299000441004EB810104EB8000D1F8D012D0F890
:1029A000D002090241EA001102F01F00C2F3C43252
:1029B00004EB800004EB8202D0F8D002D2F8D022DF
:1029C000014341EA023282EA122181EA111101F047
:1029D0000F010F2940F0E980C2F30F124FF6FF718B
:1029E0008A4200F0E280B2F5606F00F0EC80AAF855
:1029F0000C2098F858300398834210D0B168D8F86A
:102A000000305B1AC8F80030D8F80430316B5B1A1C
:102A1000C8F804300023B360336388F85800D8F84E
:102A200000300133C8F80030B3680133B3604FF6AB
:102A3000FF739A4207D1D8F804300133C8F8043044
:102A4000336B0133336328460137FFF74BFE6D4B81
:102A500005F5B47508F15C0893F8B83B5C360AF1EB
:102A6000140ABB423FF71CAF66480121002280F8E0
:102A70006414C0F87C2B002B3FF4E8AE6248D0F819
:102A8000402590F81016126811F0020FD0F8540685
:102A9000116A0CBF014341EA8001012B11623FF42E
:102AA000D5AE5948D0F8A82690F87817126811F0DA
:102AB000020FD0F8BC07116A0CBF014341EA800144
:102AC000022B11623FF4C2AE4F48D0F8102890F8A4
:102AD000E018126811F0020FD0F82409116A0CBF37
:102AE000014341EA8001032B11623FF4AFAE464837
:102AF000D0F8782990F8481A126811F0020FD0F82F
:102B00008C0A116A0CBF014341EA8001042B116257
:102B10003FF49CAE3C48D0F8E02A90F8B01B126815
:102B200011F0020FD0F8F40B116A0CBF014341EA17
:102B30008001052B11623FF489AE3348D0F8482C50
:102B400090F8181D126811F0020FD0F85C0D116A90
:102B50000CBF014341EA8001062B11623FF476AEBF
:102B60002948D0F8B02D90F8801E126811F0020F9D
:102B7000D0F8C40E116A0CBF014341EA8001082B52
:102B800011627FF463AE204AD2F8183F02F58051FB
:102B900092F8E82F1B68C96A12F0020F1A6A14BF74
:102BA00042EA81020A431A6250E61649D1F86423C8
:102BB0000132C1F86423AFB14FF6FF7219E700206C
:102BC00005B0BDE8F08F11494B7803EB430301EBEF
:102BD000C3033B445B7C0D2B7FF409AF80238AF851
:102BE0001E3006E719465822094867F0EDFFE3E773
:102BF00004490122C1F87C3B81F8642426E600BF29
:102C000048B30A08FC10002004000020981C00248F
:102C100008150020464A92F8541A013949B24B1C53
:102C200000F08480434B480103EB411100B5C2F82A
:102C3000581A811D13F801E003EB010C92F85C1A9D
:102C40008E455BD09CF802E08E4555D000F10A011C
:102C500013F801E003EB010C92F85D1A8E4546D0A3
:102C60009CF802E08E4540D000F10E0113F801E01F
:102C700003EB010C92F85E1A8E4531D09CF802E00D
:102C80008E452BD092F8521A31B300F1120113F88D
:102C900001E003EB010C92F85F1A8E4535D09CF8E9
:102CA00002E08E452FD000F1160113F801E003EB8E
:102CB000010C92F8601A8E4533D09CF802E08E45E4
:102CC0002DD01A3092F8611A13F800C003448C45D5
:102CD00021D0987888421DD05DF804FB0CF1020CDD
:102CE000BCF80010A2F8641ACCE70CF1020CBCF896
:102CF0000010A2F86E1AB7E70CF1020CBCF8001035
:102D0000A2F86C1AA2E70CF1020CBCF80010A2F8B1
:102D1000661AC8E702331B88A2F86A3ADCE70CF1AE
:102D2000020CBCF80010A2F8681ACAE7704700BF8E
:102D3000981C002498B60A080120704738B5134D36
:102D400041F20D13124941F28832D5F8B40AD5F890
:102D5000704A0004A060E068014020460B430D214A
:102D6000E36057F033FE38B1D5F8A42A03460020BB
:102D70001343C5F8A43A38BD606900F4F050A0F5DB
:102D80000060B0FA80F0400938BD00BF981C0024F4
:102D9000C0E0FEFF08B5FFF7D1FFA0B10B4BD3F8A1
:102DA000400B58B1026893F83D3B8088126910408F
:102DB0002BB9003818BF0120013840B208BDB0FA65
:102DC00080F04009F8E74FF0FF3008BD981C002460
:102DD000C74BD3F8E01BD3F8E42B70B58C0F93F8F6
:102DE000685C100EC2F3072C83F8104CC1F38364A7
:102DF0000001012D83F8114CC1F3016483F8124CDA
:102E0000C1F3074483F8134CC1F30724C9B283F814
:102E1000144CC2F3035483F8151CA3F8160CC2F328
:102E2000C030B3F8161C89B241EA0401C2F303446E
:102E3000A3F8161CC2F3403183F8184CC2F3803457
:102E400083F8190C4FF0000083F81A4C83F81B1C10
:102E5000C2F3003183F81C1CD3F8E81B83F81D0C67
:102E600040F2EF80022D00F0C3802A204FEA4C0C84
:102E700083F8294CC1F3C01201F07F010CF07E0CE5
:102E800083F82ACC4FF0010C93F82A4C1443D3F862
:102E9000EC2B83F82A4CD40F83F82B1C910D83F86C
:102EA0002C4CC2F3417401F00C01C2F3815583F83C
:102EB0002D4CC2F3826483F82E4C83F82F1C93F8B8
:102EC0002F1CD3F8F04B294383F82F1CC2F3405139
:102ED00083F8301C002183F8311CC2F3004183F8D1
:102EE000321CC2F3C03183F8331CC2F3803183F843
:102EF000341CC2F3403183F8351CC2F3003183F82F
:102F0000361CC2F3812183F8371CC2F30121C2F3BE
:102F1000460283F8381CC4F3074183F8392C220E8B
:102F2000090283F83ACC83F83C2CC4F30722A3F8B7
:102F30003E1C2406B3F83E1C89B21143A3F83E1C84
:102F4000D3F8F41BC3F8404C0C0ED3F8402C42EAE3
:102F50000442C3F8402C0A0AD3F8404C02F47F42E2
:102F60002243C1F30724C9B2C3F8402CD3F8405C14
:102F7000D3F8F82B2C43C3F8404C83F8441C110EB3
:102F800083F8451C110C0906C3F8481C1102D3F83C
:102F9000484C0A4601F47F01214392B2D3F8FC4B1E
:102FA000C3F8481CD3F8481C0A43C3F8482CC4F3A0
:102FB0000352D3F8481C41EA1461C3F8481C93F843
:102FC0004C1C1143C4F3072283F84C1C210A01F462
:102FD0007061A3F84E1CB3F84E1C89B21143C4F3C0
:102FE0004602A3F84E1C83F8502C83F851CC70BDD8
:102FF0001204C1F3072C0D0E02F47C12C3F8202C2E
:10300000C1F30742D3F8204C44EA0524C3F8204C0E
:10301000D3F8204C22434FF40074C3F8202CD3F88B
:10302000202CC3F8604C013240F10004A40244EAB1
:1030300092549202C3F85C4CC1F38034C3F8582C0C
:1030400014E74FEA8C2CC1F3C26594000CF4406283
:10305000C1F3072C04F47F74C3F8202CD3F8202C80
:103060001443CA0BC3F8204C02F00602D3F8204CDC
:1030700044EA9174C3F8204CC1F3026483F8245CE1
:10308000012583F8254CC1F3425483F8264CC1F343
:10309000824483F8274CC1F3C03483F8282C93F87A
:1030A000282C224383F8282CD3F8204C93F8282C82
:1030B00093F8186C023205FA02F2B540D617A2FB5B
:1030C000052EC3F8605C05FB06EE04FB0EEE013432
:1030D000A2FB0424A644520AC1F3803442EACE5231
:1030E000C3F8582C4FEA5E22C3F85C2CBEE600BF42
:1030F000981C00240E4838B5D0F8403B0D461446C5
:103100003BB1196890F83D2B9B8809690B4052B17F
:103110005BB9FFF75DFE074A4FF400730020926C25
:103120002A60238038BD002BF3D14FF0FF3038BD2B
:10313000981C0024A82800242DE9F04FDFF8CCA229
:103140009BB09AF8691C31B1A74B93F88043204695
:103150001BB0BDE8F08F01200AF527657C228AF8B4
:10316000690C284667F0D6FEDAF8586A4FF48052A8
:103170009AF8527A3468CAF8782ACAF8704A1FB1A5
:103180004FF48042CAF87C2A01224FF4003CC5E982
:1031900004C29AF8A02A002A00F095810322934FD6
:1031A0008AF8A02AFA6CD60340F132810AA856F0B8
:1031B00061FE0C988E4A010AA2FB012109094D000B
:1031C0006668A8428B4A02EA060242EA010262608D
:1031D000226842F00302226080F0F880DAF82816B4
:1031E000DAF82826521A022AFAD9002282497E4E9B
:1031F0000492A260E2681140D6F8842341F4805121
:10320000E1607E49A1FB021B41F288324FEA5B2B51
:1032100002FB0BFB5A46002A00F0BE80616B013AAC
:103220000806F8D5764A7449A2634FF4D572A260B5
:10323000E268114041F208120A43E260BBF1000F5C
:1032400009D05A46616B11F0450F02D0890440F154
:103250008681013AF6D10022CAF8AC2AA260664AF9
:10326000E1680A4042F48052E2605A46002A00F0C7
:103270009380616B013A0D06F8D5614A0025A2637F
:1032800004994FF6FE72914200F2B281DFF8689124
:103290005C4FDFF86C8100222046A26041F23712B9
:1032A000E16801EA09010A433721E26041F288320C
:1032B00057F08CFB002871D1A76041F22912E16818
:1032C00001EA09010A43E260BBF1000F08D05A4647
:1032D000616B11F0450F01D0880404D5013AF7D194
:1032E0004FF080505AE0626B510700F10D83C4F833
:1032F00038806169049A002902F101020492049A5B
:1033000003DB4FF6FE708242C5D904984FF6FE7279
:10331000904200F28F834A0040F16E8122680127BB
:103320009307CAF8A87A00F0F7820022DFF8C88075
:103330002046A26041F20232E16801EA08010A4334
:10334000E26057F0E5FB48BB626904F1180304F141
:103350001C09CAF8DC2AA2690193CAF8E02AE269CA
:10336000CAF8E42A226ACAF8E82A41F20312A060E5
:10337000E16801EA080104F120080A43E260BBF1B8
:10338000000F09D0626B12F0450F02D0910440F19A
:103390005483BBF1010BF5D14FF0004001228AF8B4
:1033A000A02ADAF8A42A0243CAF8A42A2A2420462A
:1033B00086F880431BB0BDE8F08F616805460D4A72
:1033C0000A406260226842F0030222600E49B0FBAC
:1033D000F5F5B1FBF5F1DAF828060231DAF828261E
:1033E000121A9142FAD800E7000000240044025863
:1033F000598B4F01002CC0FFC0E0FEFFD34D62107F
:10340000C5002000000010C110210100981C0024FC
:10341000BD6AB96AFE6A11F47C7F7A6BC1F305104C
:10342000CBD0C2F3CC0206F0010605F0030507EE8F
:10343000900A06FB02F2012DF8EEE76A07EE102A69
:10344000BAEEE97A00F08982022D00F0AD80002DFD
:1034500040F083823A68950640F1F9843968B7EE06
:10346000006A3A6BC1F3C101C2F30803584A07EE80
:10347000903ACA40F8EEE77A77EE867A37EE877AA6
:1034800007EE902AB8EEE76AC6EE267A67EE877AEC
:103490005049F7EE006A504D0A6B0A6B096BC2F394
:1034A000064307EE103AB8EEC77A37EE267AC7EE33
:1034B000876AFCEEE67A17EE900A010AA5FB015135
:1034C00009094D007CE6454A944200F06982444A6D
:1034D000944200F081829AF86C0A0EF0B1FF8346A4
:1034E0009AF86E0A0EF0ACFF05469AF8640A0EF0E0
:1034F000A7FF9AF8663A04469AF8689A9AF86A8A90
:103500000193BBF1000F05D058469AF86D2A0E21A1
:10351000FEF730FD2DB128469AF86F2A0E21FEF7EE
:1035200029FD2CB120469AF8652A0E21FEF722FDCE
:10353000002F40F0F4810021B6F904005FF0F6FCA2
:10354000B6F90420002A07DB02F01F04012152090A
:103550002448A14040F82210DAF8704A1EE6626B57
:10356000520700F1AA82626BD3071AD4626B570626
:1035700001D54022A263002201251B492046CAF83A
:10358000AC5AA260E268114041F237120A43372177
:10359000E26041F2883257F019FA00283FF470AE29
:1035A0009EE60122A26356E6DFED107A87EEA66A58
:1035B0003A6BC2F3080307EE903AF7EE005AF8EEC2
:1035C000E77A77EEA57A77EE877A67EE867A5FE715
:1035D0000090D00300440258598B4F0100700052F4
:1035E0000024024800E100E0C0E0FEFF0024F44AAD
:1035F0000499914200F21E822268900700F08C81AB
:10360000DAF8A87A032F7FF490AEDAF8CC1ADAF859
:10361000D02AA069000DCAF8B00A880F8DF82800DA
:10362000C1F383608DF82900C1F301608DF82A0091
:10363000C1F307408DF82B00C1F30720C9B28DF804
:103640002C008DF82D10110DADF82E10C2F3034192
:103650008DF83010C2F3C0318DF83110C2F38031D3
:103660008DF83210C2F340318DF83310C2F30031BF
:103670008DF8341000218DF83510002F40F07A813C
:1036800040F6FC7101EA8202DAF8D41A42EA917239
:103690000E92C1F3C2628DF83C20C1F302628DF834
:1036A0003D20C1F342528DF83E20C1F382428DF895
:1036B0003F20C1F3C2328DF8402001220E989DF8C0
:1036C00040C010440CF0070C0CF1020C00FA0CF096
:1036D0009DF830C00CF00F0CCAF8B80A02FA0CF2D0
:1036E000CAF8BC2A520A00FB02F2CAF8C02ADAF869
:1036F000B40A4FF4007BDAF8D82A4FF001094FEAF8
:103700000048C1F38030CAF8C4BA8DF84100C1F353
:10371000C61001F07F018DF8420020468DF843105D
:10372000D10F8DF84410C2F341718DF84510C2F3EA
:1037300082618DF84610C2F383518DF84710C2F3B1
:1037400040518DF8481000218DF84910C2F3004116
:103750008DF84A10C2F3C0318DF84B10C2F380319E
:103760008DF84C10C2F340318DF84D10C2F300318A
:103770008DF84E10C2F381218DF84F10C2F3012154
:10378000C2F346028DF850108DF8512041F2071215
:103790008DF85290C4F80880E16821F48F3121F44B
:1037A0009F7121F001010A430721E26041F2883252
:1037B00057F00CF900287FF4F1ADC4F808B041F2DD
:1037C000101BE2681021204622F48F3222F49F72EF
:1037D00022F0010242EA0B02E26041F2883257F025
:1037E000F5F8002840F0BC80DAF82896626991016B
:1037F00000F18F80402310212046A360E26822F46C
:103800008F3222F49F7222F0010242EA0B02E26040
:1038100041F2883257F0DAF800284CD1C4F8088019
:1038200041F23712E168204621F48F3121F49F7173
:1038300021F001010A433721E26041F2883257F05A
:10384000C5F8002837D14FF0FF3240236262A362EF
:1038500001301F28FCD9E26A2046A14922F0FF026C
:1038600042F06302E2620022A260E268114041F28B
:103870000D120A430D21E26041F2883257F0A6F89A
:10388000C8B90AA806E0DAF82826A2EB0902013234
:1038900000F01781626B12F4957F626B40F0148127
:1038A0001204F0D500F12001D4F8802040F8042B58
:1038B0008142F9D1E7E7DAF8A42ACAF8A42A894AAA
:1038C0000121A263DAF8A42A02432046CAF8A42AF6
:1038D0008AF8A01A4FF40071814AA160E1680A4099
:1038E00041F21011114341F28832E160102157F08A
:1038F0006DF800283FF45AAD7A4AA2630122CAF853
:10390000A40A8AF8A02A51E504224FF08050A2634D
:1039100044E54FF40060D2E74FF080603EE5019847
:103920000EF08EFD20B19AF8672A0E21FEF722FBD9
:1039300048460EF085FD20B19AF8692A0E21FEF75F
:1039400019FB40460EF07CFD9AF86B2A00283FF4E4
:10395000F2AD0E21FEF70EFBEDE5DFED637A25E615
:10396000604AA263DAF8A42A0243CAF8A42A8AF8B1
:10397000A09A1BE5012F4FD11204DAF8D41A02F4F1
:103980007C1242EA11420E924FF40072CAF8BC2A2D
:103990000E9A01329202CAF8B82ACAF8C02AA6E6DC
:1039A000524AD2F8D41021F48031C2F8D410D16F29
:1039B00041F48031D167D16F21F48031D167D2F8E1
:1039C000D41041F48031C2F8D410D2F8D42002F4DB
:1039D00080320392039A7EE5444AD2F8DC1021F447
:1039E0000071C2F8DC10D2F8841041F40071C2F802
:1039F0008410D2F8841021F40071C2F88410D2F837
:103A0000DC1041F40071C2F8DC10D2F8DC2002F4C2
:103A100000720292029A5EE5324A01214FF0805014
:103A2000A263DAF8A42A42F08052CAF8A42A8AF8DB
:103A3000A01AB3E44FF08070B0E4626B520700F15B
:103A40000F82626BD30700F106822269D2B2032A89
:103A500040F00382264AA263626912F4604F0AD0E2
:103A6000540400F10B8212F4004F14BF4FF4805045
:103A70004FF4803092E4120C19492046CAF8B42A57
:103A80001204A260E268114041F209320A43E26086
:103A900057F03EF800287FF481AC6169019BCAF8B9
:103AA000CC1A1A68CAF8D02AD9F80000CAF8D40A81
:103AB000D8F80000CAF8D80AABE50422A263FFF7E1
:103AC000CABB4FF00040FAE6130700F1D581626BE4
:103AD000910700F1CF81626B920615D5C8E100BF56
:103AE000C0E0FEFFFF0FE01F0024744A00440258AC
:103AF000C5002000D4F88010DAF8282640F8041B0E
:103B0000A2EB09020132DCD0626BD304F2D4DDE90E
:103B10000C120A984FF4007B4FEA11490B9B5FFA95
:103B200082FE4FEA102C29F0FF091BBA49EA0E0960
:103B30002CF0FF0CDFF860E34CEA106CC4F838E0BE
:103B4000C0F3811EC0F340101FFA8CFC8DF814E006
:103B50008DF81500C8B2ADF816C006938DF81C009C
:103B6000C1F30720C1F303518DF81D0020468DF8E5
:103B70001E10C2F38521ADF820908DF82210C2F3FB
:103B800001218DF82310C2F3031102F00F028DF80A
:103B900024108DF825209DF83B20BA498DF8262069
:103BA000C4F808B0E268114041F210120A43102133
:103BB000E26041F2883256F009FF00287FF49CAEA3
:103BC0009DF82420012F9DF82510D2B2DAF87C9AB6
:103BD000C9B200F0B5800322CAF8C80A8AF8A02A40
:103BE000B9F5004F00F0C580B9F5804F00F00581B0
:103BF000B9F1000F00F0C480DAF8A42A42F00062A4
:103C0000CAF8A42ADAF8A42A02B39F494FF4007232
:103C10002046A163A2609B4AE1680A4041F210116C
:103C2000114341F28832E160102156F0CFFE0028A6
:103C300000F0DE80944AA2630122DAF8A41A084355
:103C4000CAF8A40A8AF8A02AFFF7B0BBDAF8840AF7
:103C5000DAF8742A0328DAF8783ADAF8801A09D8F8
:103C6000DAF8C8EABEF5007F04D0BEF5807F14BF45
:103C7000042002201A4363680A43844919400A4316
:103C800042EA0902DFF8FC910243204662604FF4E9
:103C90000072A26041F21012E16801EA09010A43D0
:103CA0001021E26041F2883256F090FE0028C1D126
:103CB000012241F20D1B8AF8A02ADAF82836019376
:103CC0000AE0DAF8A42A0243CAF8A42ADAF8282675
:103CD000019BD21A013243D0C4F808800D21E2685A
:103CE000204602EA090242EA0B02E26041F288320F
:103CF00056F06CFE0028E4D1626902F4F052B2F58D
:103D0000006FE3D1002F624F4FF00101CAF8A40AFF
:103D1000A7F58A7218BF0225CAF89C0A0446A7F5BF
:103D2000827C8AF8A01A8AF8685C07F110050FCA2D
:103D300087E80F009CE80F0085E80F00FFF737BB0E
:103D40000A4305D00322CAF8C8BA8AF8A02A47E76E
:103D50004FF48072CAF8C82A03228AF8A02A3FE7E3
:103D60004FF000410122CAF8A41A8AF8A02AFFF7EE
:103D70001DBBDAF8A42A42F08052CAF8A42A41E70F
:103D80006269002000219201CDE90A015CD40AA8F1
:103D90005EF05AFD024628BB0B9AD30365D5C4F8E2
:103DA000088041F23712E1682046DFF8D8B001EA16
:103DB0000B010A433721E26041F2883256F006FED9
:103DC000024678B9C4F80890E16841F2061220462C
:103DD00001EA0B010A430621E26041F2883256F003
:103DE000F5FD0246DAF8A41A0A43CAF8A42A09E73C
:103DF00001228AF8A02AFFF7D9BA002062690021BF
:103E0000CDE90A0190011FD40AA85EF01DFD02460B
:103E10000028E7D10B9A510327D5C4F8088041F256
:103E20003712E1682046DFF85CB001EA0B010A4373
:103E30003721E26041F2883256F0C8FD0246002880
:103E4000D0D10222A260BFE74FF40062CAE7DFEDE3
:103E5000117AFFF7ABBB0122A2630120FFF79EBAE4
:103E600004221046A263FFF799BA4FF08062B9E7C7
:103E7000202024E5022022E5082020E54FF4005010
:103E8000FFF78CBAC0E0FEFFFF0FE01F002CC0FF61
:103E9000782800240024744C3A0F001810B51C4CEC
:103EA00094F86D0C0EF0CCFA28B11F210022C180CD
:103EB0002021FEF75FF8D4F840234AB194F84C3340
:103EC000918803F0010312681B0101FA03F3936167
:103ED00094F9532A00210320FDF710FF50B1D4F8C4
:103EE000403B5BB1196894F83D2B9B8809690B40F6
:103EF00012B91BB9012010BD002BFBD1FFF71CF933
:103F00000028F7D1D4F83833C4F83C3310BD00BFD3
:103F1000981C00245EF0A8B95EF0A6B92DE9F04720
:103F2000344C94F86C0A0EF08BFA064694F86E0A3C
:103F30000EF086FA054694F8640A0EF081FA94F8B9
:103F4000528A074694F868AA94F8660A94F86A4A6E
:103F50000EB11823F3800DB11923EB800FB11A2392
:103F6000FB80B8F1000F15D138460121FDF7A6FE00
:103F7000FEF70CFB30460121FDF7A0FE2846FDF7B9
:103F80009DFE3046FEF702FB28460121BDE8F047C2
:103F9000FEF7FCBA0EF054FA814608B11B23C38029
:103FA00050460EF04DFA804608B11C23C3802046CF
:103FB0000EF046FA044638460CB11D23E380012179
:103FC000FDF77CFEFEF7E2FA4846FDF777FE404635
:103FD000FDF774FE2046FDF771FE01214846FEF70D
:103FE000D5FA40460121FEF7D1FA01212046FEF71D
:103FF000CDFABFE7981C00242DE9F8432422D0F81D
:10400000505181680023C0F8D02104462A6800F589
:10401000A87622F001022A602B606B60AB60C0F8CA
:10402000D83180F8CC31C0F8D031C0F85411407983
:10403000C4F8D431C4F86831C4F870318302BB4A83
:1040400003F480539542C4F858314FEA003303F427
:104050000053C4F85C314FEA002303F48063C4F8D2
:10406000603100F0B9812379D90703F0020200F131
:104070003C81002A40F06E81C4F86421AC4B03F10E
:104080002C0153F8042B944200F076818B42F8D136
:104090000707D4F8D03140F18381002B00F0C281B2
:1040A00024233046C4F8D0312B6823F001032B6061
:1040B00056F03AFA012817D0D4F87831002B40F0A6
:1040C000B8816B68304623F490436B60AB6823F093
:1040D0002203AB60AB6843F00803AB602B6843F08E
:1040E00001032B6060F084FA94F8048018F0010F4B
:1040F0006FD0D4F82C71002F00F07281002304F1EE
:104100003C094FF48070E7632366E366C4E911332A
:10411000C4E91433C4E91933D4F83431C4F8B830DD
:104120004FF48063E3644FF48033C4E916034846D8
:1041300061F078FD484654F001FDD4F8D431C4F85C
:10414000C891202B666741D1E368626998B2EAB3EF
:10415000B0FA80F14909C8B394F8CCC1BCF1010FA1
:1041600034D04FF0220CC4F8D811A4F8AC010120CF
:10417000C4F8D4C1DFF8D0C1C4F8A821C4F878C00D
:10418000DFF8C8C1C4F88C10C4F87CC0DFF8C0C127
:1041900084F8CC01C4F888C094F870C084450CD071
:1041A00084F8700094F87100012800F046814FF403
:1041B000006384F87010C4F890301023C4F8D8312C
:1041C000002384F8CC312023C4F8D0317B68C4F8B4
:1041D000443118F0020F00F08680D4F83051002DE1
:1041E00000F01181D4F83821002304F1B407C4F899
:1041F000C0303846C4F8C830C4E92D524022C4F853
:10420000BC204FF48062C4F8C4204FF48032C4E96B
:104210003333C4E93633C4E93833C4F8D42061F009
:1042200001FD384654F08AFC002840F0A480414B40
:104230004149424A8D4218BF9D42414801F1600107
:10424000C4F8C4710CBF01230023C4F8EC6095428C
:1042500008BF43F001033032854208BF43F0010339
:104260006030954208BF43F0010330328D4208BFF1
:1042700043F0010301F56871954208BF43F0010363
:1042800002F55C72854208BF43F0010300F56870D7
:10429000954208BF43F0010330328D4208BF43F01E
:1042A00001036031954208BF43F00103303285427B
:1042B00008BF43F00103954208BF43F001033032C9
:1042C0008D4208BF43F00103954208BF43F001034C
:1042D0003BB91C4BEB1AB3FA83F35B09002B00F0DC
:1042E000C48000236B60BDE8F8830423C4F8643104
:1042F00072B10C23C207C4F864317FF5BFAED4F8A5
:1043000078314FF4803243F00203C4F8802129E071
:10431000C3077FF5B3AED4F8783143F00203C4F895
:1043200078314FF48033C4F88031A7E6000C005890
:10433000BC1C002010000240280002404000024047
:1043400058000240B8040240B1520908E552090879
:10435000E95209080823C4F86431C3077FF58EAE1B
:10436000D4F8783143F00103C4F878314FF40033C6
:10437000C4F87C3182E6FEE794F8F831002B3FF474
:1043800087AED4F87831070743F00803C4F87831D2
:104390004FF40043C4F88831D4F8D0313FF57DAEF6
:1043A000002B3CD024233046C4F8D0312B6823F0B6
:1043B00001032B6056F0B8F801283FF495AED4F80D
:1043C0007831002B31D16B68304623F490436B6019
:1043D000AB6823F02A0380E60423C4F8743142E674
:1043E000D4F8DC311A6842F480721A609A6842F09C
:1043F00001029A601A6842F020021A601A6842F0BC
:1044000010021A60E5E6D4F8DC311A6842F0800246
:104410001A601A6842F040021A60BDE8F88384F816
:10442000CC31BFE784F8CC313AE6304656F076FA24
:10443000C9E7304656F072FA43E69BB2484605F1AA
:10444000240154F01BFD00287FF4B7AE84F8CC01A2
:104450002B6843F480732B60AB6843F00103AB60BF
:10446000AB6843F04003AB60B0E66B603BE700BF76
:10447000F8B50446EFF31185502383F31288D0F882
:1044800030311B6803F001031BB1EDB285F31188D5
:10449000F8BDD0F8D021D0F8D4110A4302F021029F
:1044A000212AF2D0D0E90912914250D090B24BD8D3
:1044B000194623691B1A9BB2A162002184F8E011FE
:1044C000D4F8D0112029E0D1A1698918DDD0B3FA40
:1044D00083F25209002BD8D094F8CC010128D4D013
:1044E0002120A4F8A6314FF0010CC4F8D821C4F85B
:1044F000D001D4F8C401D4F85061C4F8A011A4F8D4
:10450000A43184F8CCC160B31B4F90F834E0C7638A
:104510001A4FE64502650764194FC7640AD090F840
:10452000357080F834C0674515D04FF4006380F8CB
:1045300034204365102100222023C4F8D81184F8C8
:10454000CC21C4F8D031A0E7081A83B2B4E7012324
:1045500080F8E03199E706F1280254F08FFC00283A
:10456000E8D100234022326284F8CC31B36843F0B2
:104570008003B36089E700BF89520908AD5209087A
:10458000E95209082DE9F0474C4C04EB8004D4F8BB
:10459000C04B002C41D0D4F8E8511F46484B904600
:1045A000A1600646236020466B68E98FC4F8DC31C1
:1045B000D5E90D32E160C4E90523AB8F2361414B9E
:1045C000C4F8E4310EF062FAD5F80490A88DC4F86E
:1045D000509100285FD194F8EE010DF031FF0221D7
:1045E00017F00802034694F8ECA184F8F91117D0EB
:1045F00040B317F0510F51D017F0410F0CBF2A21D3
:104600004A210B2201361846DE719A7194F8EF2187
:10461000FDF7B0FCD4F82C314BB32046BDE8F08751
:1046200018F0020F0ED068B14FF00B0C3B0680F86B
:1046300006C006F1010C80F807C031D494F8EF21D0
:10464000FDF798FC50460DF0FBFE0028E2D018F074
:10465000010FDFD00C2201360221C671827194F85D
:10466000ED21FDF787FCD4F82C31002BD5D195F83E
:10467000321095F8300089095EF058FC95F830301A
:104680000122114903F01F005B098240204641F8D6
:104690002320BDE8F0875EF075FC9CE73A21B0E787
:1046A000D9F80030202123F00803C9F80030012395
:1046B00084F8F931FDF75EFCC4E700BFFC10002070
:1046C000D8B60A08D525040800E100E0BFF34F8FF3
:1046D0000549064BCA6802F4E0621343CB60BFF39E
:1046E0004F8F00BFFDE700BF00ED00E00400FA05BA
:1046F0001C481D4AC1681D4B10B44FF6FF0485B01D
:1047000021401B4C0A43C260D3F8D010D3F8DC2000
:10471000C4F8741C42F00052C3F8DC20D3F8DC204B
:1047200002F000520192019AD3F8DC2042F080425C
:10473000C3F8DC20D3F8DC2002F080420292029A17
:10474000D3F8DC2042F00042C3F8DC20D3F8DC30A0
:1047500003F000430393039B05B05DF8044B11F095
:10476000A5BD00BF00ED00E00005FA0500440258B9
:10477000981C002408B51D480023C0F88430BFF3FE
:104780004F8F436923F480334361BFF34F8FD0F8D9
:10479000803043F6E074C3F34E3CC3F3C90E4FEAD6
:1047A0004C1C0CEA0401734641EA8372013BC0F8D9
:1047B00074225A1CF8D1ACF1200C1CF1200FF0D15E
:1047C000BFF34F8FBFF36F8FBFF34F8FBFF36F8F69
:1047D0004369002223F400334361C0F85022BFF341
:1047E0004F8FBFF36F8F72B6FFF770FF00ED00E0E1
:1047F00003689B0AA3F58013522B53D870B5354C30
:1048000014F803C0BCF10D0F4BD843794FF04C0E98
:10481000314802249E080EFB0C0E0CEB8C03B440B6
:10482000DEF8785C0CEB4303B6463344EE680029AF
:104830003ED0344300EB8306B166B267EC60EFF321
:104840001185502383F312882C2202FB0C014B6E3E
:104850004BB31A1DC1F88830204B0CEB8C01204C57
:104860000CEB410189000C4410310B4453F8041F38
:1048700009B111600A1DA342F8D10023EDB2136003
:1048800085F311882C2303FB0C03D3F88830BBB1CC
:104890004C2303FB0C03D3F8782CD36843F00103BB
:1048A000D36070BD70470D4B02FB0C322432D4E74D
:1048B00026EA0404EC6000EB8304A166A267BEE76D
:1048C0004C2303FB0C00D0F8782CD36823F00103B1
:1048D000D36070BD48B30A08981C0024FC1C002457
:1048E0001C1D002403689B0AA3F58013522B00D9DA
:1048F00070470E4AD35C0D2BFAD84FF04C0C10B415
:104900000B4C42790CFB03400223D0F8780CDA40C0
:104910009340C26829B922EA03035DF8044BC360DF
:10492000704713435DF8044BC360704748B30A08EF
:10493000981C002403689B0AA3F58013522B10D8FF
:10494000084AD25C0D2A0CD84079022306494FF060
:104950004C0CD8400CFB02128340D2F8782CDB437D
:104960001361704748B30A08981C002401490248A3
:10497000FCF718B9FC1C0024000001400149024862
:10498000FCF710B9FC1C00240000014002494FF064
:104990008040FCF707B900BF281D002401490248E8
:1049A000FCF700B9541D00240004004001490248EE
:1049B000FCF7F8B8801D00240008004001490248B7
:1049C000FCF7F0B8AC1D0024000C0040F8B5164D03
:1049D000164E2A69EB681A404FF00040B2FA82F393
:1049E000EAB120FA03F3012A6FEA030302EA0301A2
:1049F0002B610A46F2D1D6F868718FB1013F0023CE
:104A0000BFB2C6F86831D6F8644134B12368204695
:104A1000394698476468002CF8D10022DCE7F8BDDD
:104A2000EF6ABFB2EFE700BF00100040981C0024FF
:104A300001490248FCF7B6B8301E002400040140CA
:104A400010B5064C064804F5CC71FCF7ABF804F53C
:104A5000F8710448BDE81040FCF7A4B8981C002485
:104A600000040140001C004001490248FCF79AB8CC
:104A70005C1E00240018004001490248FCF792B86F
:104A8000B41E00240020004001490248FCF78AB807
:104A9000E01E00240040014001490248FCF782B8B2
:104AA0000C1F00240044014001490248FCF77AB879
:104AB000381F0024004801402DE9F0414FF42572D1
:104AC0008EB00021744866F025FA744B744D4FF097
:104AD0000008D3F8F02040F26127A5F5707605F6BE
:104AE000841442F00102C3F8F020D3F8F02002F061
:104AF00001020092009AD3F8E82042F00102C3F8C4
:104B0000E820D3F8E82002F001020192019AD3F8DC
:104B1000E82042F00202C3F8E820D3F8E82002F0CF
:104B200002020292029AD3F8E82042F00402C3F88B
:104B3000E820D3F8E82002F004020392039AD3F8A5
:104B4000E82042F00802C3F8E820D3F8E82002F099
:104B500008020492049AD3F8E82042F01002C3F845
:104B6000E820D3F8E82002F010020592059AD3F865
:104B7000E82042F02002C3F8E820D3F8E82002F051
:104B800020020692069AD3F8F02042F00202C3F8FF
:104B9000F020D3F8F02002F002020792079AD3F82F
:104BA000E82042F04002C3F8E820D3F8E82002F001
:104BB00040020892089AD3F8E82042F08002C3F835
:104BC000E820D3F8E82002F080020992099AD3F88D
:104BD000E82042F48072C3F8E820D3F8E82002F419
:104BE00080720A920A9AD3F8F02042F48032C3F815
:104BF000F020D3F8F02002F480320B920B9AD3F815
:104C0000F02042F40032C3F8F020D3F8F02002F490
:104C100000320C920C9AD3F8F02042F48022C3F8B0
:104C2000F020D3F8F03003F480230D930D9B55F85A
:104C30002810002302E00133112B29D054F833202F
:104C40009142F8D106EBC303B3F8480D08F1070809
:104C50005EF098F9B845EAD14FF0000840F26127BC
:104C600055F82810002302E00133112B12D054F81C
:104C700033209142F8D106EBC303B3F8480D08F195
:104C800007085EF07FF9B845EAD10EB0BDE8F081C3
:104C90000020DBE70020F2E7FC1C0024004402585F
:104CA00008B70A08800AA0F5801052280DD8074BD3
:104CB0001A5C0D2A09D8064B4C2101FB0233D3F8AC
:104CC000782C136843F001031360704748B30A0857
:104CD000981C002410B590F83DE0BEF1020F76D08C
:104CE000144690F83D208446012A02D1022280F821
:104CF0003D200C2921D8DFE801F0072020202220C8
:104D000020203A2020205200DCF824003449DCF82E
:104D10000020C1633349C16490F8341001290CD0DC
:104D2000012180F8341090F83510012952D000226A
:104D30004FF4006380F834204365002010BDDCF898
:104D400028002749DCF80020C1632649C16490F897
:104D500034100129F1D0012180F8341090F8351079
:104D60000129E4D13832214654F088F8E5E7DCF82F
:104D70002C001B49DCF80020C1631A49C16490F87B
:104D800034100129D9D0012180F8341090F8351061
:104D90000129CCD13C32214654F070F8CDE7DCF843
:104DA00030000F49DCF80020C1630E49C16490F85F
:104DB00034100129C1D0012180F8341090F8351049
:104DC0000129B4D14032214654F058F8B5E75FFAD2
:104DD0008EF010BD3432214654F050F8ADE700BFDC
:104DE00029520908D15109081F4B984210B50ED01D
:104DF00003F5806398420AD01C4A03F58043984229
:104E000018BF904203D003F5806398421BD154F041
:104E1000F7FF174B1749DC69DA69C4F3022CC2F3B8
:104E2000022201EB0C0393F8883203F01F03D840F1
:104E30000F4B11491B69C3F3C03342EAC303CB5C78
:104E400003FB00F010BD54F0DBFF094B0949DC699E
:104E5000DA69C4F30214C2F302120B1993F8883210
:104E600003F01F03D840E3E7000001400040014089
:104E70000044025848B30A0840480B082DE9F04F97
:104E8000002393B0AD4C0193AD4BAE4FA3F6CC567F
:104E9000AB4D4FF00009AC4BD5F800A09A794FEA22
:104EA0009A23A3F58013522B00F2D280F35C0D2BD2
:104EB00000F2CE80012A17F903B000F01281022A15
:104EC00002D1BBF1080F3BD14FF0000841465846D4
:104ED00015F0C4F915F04AFA90F800C0BCF1000FC3
:104EE00018BFBCF1540F14BF4FF0010C4FF0000C71
:104EF00040F0EB8008F104081FFA88F8B8F1100FB1
:104F0000E4D1019B002B00F0AE808C4A0AE0F35CF8
:104F10000D2B0ED8FB565B450ED002F586729442DF
:104F200000F09D8091680B689B0AA3F58013522BBB
:104F3000EDD900235B45F0D14B7969799942ECD1E9
:104F400009F101091C35B9F1080FA4D1019B04F541
:104F500086740133042B01939AD17C4B4FF0000BE4
:104F6000DFF8049201937A4BDB6F5B456DDD764B86
:104F700099F81020D9F80C601B7F0292002E64D0A3
:104F8000744AD6F800A055687348B288002D504482
:104F900003924FEA902040F3B380684A002405E072
:104FA000013402F58672AC4200F0A780116881429C
:104FB000F6D1624B4FF48672039D02FB0434029BD0
:104FC00003220BF1010BC9F80C6089F81030039B28
:104FD000C9F81840B3FA83F7C7F11F035800C9F89E
:104FE0000430B27186F807B002FA00F6A16C012213
:104FF000D4F854C0314302FA00F002FA03F3A1647A
:10500000216D0143D4F8AC00216552490E7899B264
:10501000002E00F0DC8043EA0C036365CAF81850E8
:10502000FBF71AF8204609F12009FAF7E9FF40F2E8
:1050300001120123BBF1080F29F8042C019A02F197
:10504000180202F8073C01928DD113B0BDE8F08F31
:10505000013A012A7FF674AF4FF0000B34E7BCF140
:10506000000F7FF46DAFA86800223C4904E00132D4
:105070000C31102A00F081834B689842F7D152B26C
:1050800050466979FCF78CFE354A40680023516828
:105090000133884216D0102B02F12402F7D14FF0D1
:1050A000FF3303EBC3032F4A02EB830393F85C3116
:1050B000002B7FF445AFC9EBC909214B03EB8903F2
:1050C000A36043E7DBB2013BEBE7019B002B7FF4DE
:1050D0001CAF09F101091C35B9F1080F7FF4DBAEF3
:1050E00034E7BBF1010F3FF4EFAE09F101091C35C4
:1050F000B9F1080F7FF4CFAE28E7042C00F05982F5
:105100004FF48671134A01FB0522116905910029AC
:1051100000F006839060013054219C46C4B20F48D1
:1051200082F8101182F811416A1C0A494A60059AF6
:10513000116897680491517900221CE00C0000204E
:1051400014C10A0854480B08902D0024B810002000
:10515000FC100020040000200000FEA780000024B6
:1051600040010024000000243C04002001320C30E7
:10517000102A00F0028343689F42F7D152B204988C
:10518000CDF818C0FCF70CFE954B4FF48672DFF893
:10519000908202FB05310022069BD0E90170C1E933
:1051A000077041464868013287421ED0102A01F13B
:1051B0002401F7D18B488C498C4A8D4BC0F8101CC8
:1051C000C0F8082CC0F8183C13B0BDE8F08FC7F148
:1051D0002F072D0402FA07F3324643EA0C036365F6
:1051E000CAF81850FAF738FF1CE7D2B28149013AE1
:1051F00002EBC20201EB820292F85C1108910029D5
:10520000D8D14FF4867182F85D410793542401FB95
:1052100005F3794882F85C419A107849069300FBBF
:1052200002F201F560746E48C2EBC20C02EBC202DE
:10523000184401EB4C1104EB4212C0F80CA0C0F86A
:10524000B410C0F8FC203322C0F8B8208C22C0F87B
:1052500000216B4A0498D418FFF7C6FD079B062B64
:1052600000F0AB81072B6749674B684A18BF1A46A5
:10527000674B18BF0B464FF48671DDF810A0B0FBEA
:10528000F3F3B0FBF2F2013B5548013A01FB050193
:105290009BB2A1F8BC20A1F874302366069B03F1F1
:1052A000580100F10803504619440023A4F858306F
:1052B0006366E3655EF006FFDAF8003043F08003D2
:1052C000CAF80030059B5B791A4607930C2A0ED862
:1052D000DFE812F0D0010D000D000D00AA010D0055
:1052E0000D000D00EF010D000D000D0085013C4A81
:1052F0004FF4867304984FF0000A03FB05234FF028
:10530000020E0AAACDF830A059690368099123F06A
:105310000103CDF83CA0CDF844A0036060230A93BC
:105320004FF48073109301230B930A23CDE90D3EB4
:105330005EF04AFD0999B1F5807F0DD040F24081C1
:10534000B1F5805F00F0FE81B1F5803F00F0F4819F
:10535000B1F5806F40F0EB8108234FF0040A049A06
:1053600002F1180151F80A20134341F80A30059B55
:105370001879002840F0C281049A136843F00103B1
:1053800013600023D8F804200133974200F0B28163
:10539000102B08F12408F5D14FF0FF33154A03EB29
:1053A000C30302EB8303D3F840011A4B984214BFA6
:1053B000A120A0205DF0E6FD079A0C2A00F298815A
:1053C000154B03EB4203B3F8AC7E4FF48673044AEB
:1053D000124903FB052304981F83002329E000BF23
:1053E00004000020FC100020F5EC0408F1EC040897
:1053F000FDEC0408000000246B4CA4072087012466
:105400000C000020D0DD0600449508001055220055
:1054100040771B000000024048B30A0868150020CE
:1054200040010024904200F08B810133042B00F0F6
:10543000A78151F83320002AF4D1C548D0F8682458
:105440000132C0F8682400EBC3020498DB00C2F804
:105450006C041944089823469022B1F804C047EA26
:105460000C078F800027BB49FCF70CFD4FF48673B7
:10547000B94A40214FF4403CB84803FB052A4FF499
:105480008052DAF81C502B6843F010032B602B6815
:1054900043F014032B60C4E91F77C4E92777C4E9FC
:1054A0002977DAF82030A167E9B2C4F8943007937D
:1054B00010394FF48063C4F898C0A0FB01014FF489
:1054C000804CC4F88430DAF8B8000909069BC4F8A7
:1054D000900025F0FF00DAF80C80C4F8882008F16D
:1054E000180208F11008226703F170029C4B1A445D
:1054F000DAF8B430C4F88CC06367CDE904015EF01B
:1055000059FFD5F800C0069BC4F820C0D5F814C0D8
:1055100003F1B802924BC4F824C0D5F804C01A4471
:10552000079BC4F828C0D5F808C0C4F82CC0D5F82B
:105530000CC0C4F8DC304FF48063C4F8C870C4F801
:10554000CC304FF40033C4F830C0C4F8E030C4E9C4
:105550003077C4E93977C4E93B774FF40067DAF86C
:105560000031C4F8B880C4F8D0704FF48047C4F854
:10557000D830DAF8FC30C4F8D470C4F8BC30DDE9B7
:1055800004015EF017FF2B68D6F800A063636B6917
:10559000A3636B68E363AB682364EB6863642B68A5
:1055A00043F010032B602B6843F014032B60B58885
:1055B00005E503236B4A5377FCE56B4A6B4B5AE6D0
:1055C000102900F0D78000F2AF80012900F0D080D0
:1055D000042940F0AC8008234FF0000ABFE604988D
:1055E0004FF486725C494FF0020A036802FB051211
:1055F0004FF4805123F0010351610AAA0360002394
:105600000C930F93119360230A934FF480731093BC
:1056100001230B930A23CDE90D3A5EF0D5FB4FF041
:10562000040A4FF400639AE604984FF486724A49DC
:105630004FF0000A03684FF0020E02FB0512102122
:1056400023F00103CDF830A051610AAA0360602362
:10565000CDF83CA00A934FF48073CDF844A010938A
:1056600001230B930A23CDE90D3E5EF0ADFB4FF411
:10567000006374E604984FF4867237494FF0020CC9
:10568000036802FB0512012123F0010351610AAAFC
:10569000036000230B910C930F93119360230A93E3
:1056A0004FF4807310930A23CDE90D3C5EF08CFB20
:1056B00091E704984FF4867227494FF0020C036873
:1056C00002FB05124FF4807123F001035161602247
:1056D0000360002310910C930F9311930123CDE9E4
:1056E0000A230A230AAACDE90D3C5EF06DFB33E6DE
:1056F00000276AE6DBB20893013B4FE60CF0A0FE00
:10570000824638B1059B0221DA79FCF733FC542339
:10571000AAF80630049A536C43F4004353642BE612
:105720000223104A537745E540293FF454AF4FF424
:1057300000634FF03C0A12E608234FF03C0A0EE6E5
:10574000DB0086E64FF400634FF0040A07E600BF73
:10575000FC1000200100000004000020ABAAAAAA4F
:105760000C000020902D0024882A1100A0BB0D0001
:105770000823F4E54FF40063F1E500235B68FFDEE6
:1057800000239B88FFDE00BF08B9002070472DE989
:10579000F04F00228FB02F21044614F03DFE064644
:1057A000C8B190F80590A24FD0F800A0A7F83C949B
:1057B000FCF720FB78B1D0E9015301935DB1DFF82C
:1057C000AC82002342464146486801332431854279
:1057D00005D0102BF8D100200FB0BDE8F08FDBB260
:1057E0009449013B03EBC30301EB83019B0091F858
:1057F0005CB1BBF1000FEED11A442F23C7F8F0A320
:1058000050469383FFF7F0FA8B4B984280F0EE807E
:10581000012303935B4650460293FFF7E5FA029B90
:1058200086490022C7F8F433039BC7F80024C7F861
:10583000F823B0FBF3F31B0A8148A1FB0331814B32
