:020000040800F2
:10000000F8FF01208D930A0829940A0889B205088F
:1000100029940A0829940A0829940A080000000073
:1000200000000000000000000000000029940A0801
:1000300029940A080000000029940A088963050829
:1000400029940A0829940A0829940A0829940A0874
:1000500029940A0829940A08F11F0408F91F0408C2
:1000600001200408092004081120040839070000B1
:100070004D070000610700007507000089070000B8
:100080009D070000B107000029940A0829940A0876
:1000900029940A0829940A0829940A0819200408AE
:1000A00029940A08314B040829940A08214B0408B2
:1000B000414B0408514B0408614B0408F91604082D
:1000C000ED1604082D1704082117040829940A08BE
:1000D00029940A08A5100000F91100004D13000032
:1000E0002120040829940A08000000002D4C04086F
:1000F000054C04083D4C0408F54B0408C5070000F6
:1001000029940A0899400408714B040829940A08A4
:10011000A1140000F5150000814B0408A5C10908D1
:10012000D9070000ED0700000108000015080000D5
:100130002908000029940A0829940A0829940A0821
:1001400000000000000000000000000000000000AF
:100150003D08000051080000650800004917000034
:10016000611704085517040829940A0829940A08F5
:1001700029940A0829940A0829940A080000000012
:1001800029940A0829940A089D180000F119000012
:1001900029940A0829940A0829940A0829940A0823
:1001A00029940A0829940A0829940A0829940A0813
:1001B00029940A0829940A0829940A08951704081A
:1001C0008917040829940A0829940A0829940A0816
:1001D00029940A08EDC7090829940A0829940A08ED
:1001E00029940A0829940A0829940A0829940A08D3
:1001F00029940A0829940A0829940A0829940A08C3
:1002000029940A0829940A0829940A0829940A08B2
:100210004D4C04085D4C04086D4C040829940A08F0
:1002200029940A0829940A0829940A080000000061
:100230009D40040829940A080000000029940A0837
:1002400029940A0829940A0829940A0829940A0872
:1002500029940A0829940A0829940A0829940A0862
:1002600029940A0829940A0829940A0829940A0852
:1002700029940A0829940A08451B00000000000080
:1002800029940A080000000029940A0800000000D0
:080290000000000029940A0897
:020000040804EE
:100000004368426D30B49A61EFF31182502383F359
:1000100012884168D2B2856C0B68046D23EA05032F
:1000200023430B6082F31188436981681A68096869
:1000300022F00102D0E908541A60826A1D605C61F6
:100040005A60D0E90B429C60DA600023B0F86C2063
:1000500030BCCA620377704730B5FAB18E464FEABA
:10006000014C034600F1C005002419680C3353F815
:10007000042C43F8084C41EA0C0142EA0E02AB4260
:1000800043F80C1C43F8042CEFD1D0F8C03043EAFD
:100090000E03C0E93144C0F8C03030BD4FEA014E14
:1000A0008C46DEE710B40C4C6368002B11DD002099
:1000B00004F1080C0146DCF8AC3003F1C0025960D1
:1000C0000C339342FBD1013063680CF5867C83428C
:1000D000F1DC5DF8044B704704000020F0B5474C9C
:1000E00004EB401292F8543403B9F0BD4FF4B47CE1
:1000F000434B00264FEA401E0CFB004C9CF83A553F
:100100008CF83A6582F83A541D785A7895420DD0A9
:1001100002EB420C560003EBCC0C9CF804C00CF133
:10012000FF37012F5DD9BCF1030F55D004EB0E0052
:10013000A0F83814EFF31183902282F3128890F81C
:100140003A24DBB2B0F8381442EA4102002192B2FC
:1001500080F83A1483F311881309247883EA122370
:1001600083EA0201DCB11301C943D0F85024012411
:10017000D0F83C049BB201F00F01D2F8AC208440CF
:100180000B4302F1C000590013F4004F8BB202D1AF
:100190005168214351600C328242F4D1F0BD130109
:1001A000D0F83C44D0F8502401F00F0104F11000C5
:1001B0009BB20124D2F8AC200B43844002F1C00072
:1001C000590013F4004F8BB202D1516821435160A2
:1001D0000C329042F4D1F0BD571C07F00307AF4238
:1001E000A4D0324403EBC2030344597C00299DD0C0
:1001F00004EB0E03012283F83A2497E70400002061
:10020000981C0024704700BF024B03EB401090F88D
:100210005504704704000020704700BF0A4810F8DA
:100220004C1C81B101EB410100234438490010B45A
:100230001C4650F82320063302B114608B42F8D1DB
:100240005DF8044B70477047FC1000200A4810F816
:100250004C1C81B101EB410100234438490010B42A
:100260001C4650F82320063302B114609942F8D19D
:100270005DF8044B70477047FC1000200120704768
:10028000034B00EB400003EBC00010F8330C704749
:10029000FC1000202DE9F0431D4C14F84C3CABB38E
:1002A0000022A4F144034FF0500E1A4E4FF02C0CD4
:1002B000194F154607E053F8181B01320D6014F86A
:1002C0004C1C914222DD197C0029F4D05968FE2093
:1002D0004FEA9128A8F58018B8F1520F98BF17F887
:1002E0000800EFF311888EF31288D1F824900CFBEC
:1002F00000605FFA88F809F10109C0F88C9048693C
:1003000040F00100486188F31188D4E7BDE8F0832C
:10031000FC100020981C0024D8B00A0807EE900AB0
:10032000B8EE670A704700BFBCEEC00A10EE103A84
:1003300098B270470346012200205A77704700BFE9
:1003400008B5D0E90B2183690B4483610AB10846E3
:100350009047002008BD00BF436A02461B681B6A25
:100360005B685B7813F0010008BF5077704700BFEF
:10037000C2628161704700BF704700BF04307047A0
:100380000C4B93F8FC22D3F8F81202440844D2B282
:10039000C3F8F80283F8FC2293F8FC22120605D574
:1003A00093F8FC2282F0800283F8FC22024B0122A7
:1003B0001A707047981C0024000000242DE9F84FA3
:1003C000154FD7F80053ED0A20D00026DFF84CA0D7
:1003D00007F54179B046AC19D7F8041310235246FB
:1003E0006410D1F828B04846C7F83083E102D847F6
:1003F0000F280BDD094B03F1100253F8041B0131E8
:1004000007D19342F9D12546B542E4DCE802BDE8C4
:10041000F88F661CF8E700BF981C0024801C01249C
:10042000184BD3F83813D3F83C238A1A322A15D83C
:10043000D3F850238A4200D37047D3F84023E2B167
:1004400010683231928810B44469C3F850132242C4
:100450005DF8044B18BF120482617047D3F8402343
:100460003AB193F84C031168C007928848BF120450
:100470008A610022C3F8502370473231C3F8501309
:10048000704700BF981C0024064AD2F840333BB1A5
:1004900092F84C131A68C9079B8848BF1B049361E4
:1004A00000207047981C0024044B4FF4007C00206F
:1004B000D3F86033A2F800C00B607047981C00248A
:1004C00000207047012070470120704700207047CE
:1004D00000B596461A6972450CD38C4671448A421F
:1004E000996938BFA2EB0E0C71445DF804EB6246CB
:1004F0006AF0FEBB5DF804FB38B5074B14460D46A9
:10050000D3F890331B6A984702464FF400730020DB
:1005100012682A60238038BD981C002408B5074B58
:10052000D3F8903333B15B69984780F001004042C3
:1005300040B208BD4FF0FF3008BD00BF981C00243A
:10054000002070472DE9F04123B3164688469F18D6
:10055000144DD5F89043002341463046A4681A460E
:10056000A0470028F5D0D5F8903333B15B699847A0
:1005700020B9D5F89033002BF8D1FEE7013608F505
:100580000078B742E5D1D5F838330020C5F83C33C0
:10059000BDE8F081034D0020D5F83833C5F83C3371
:1005A000BDE8F081981C00242DE9F0415BB31646AC
:1005B0000F4603EB0208184C04E0D4F8901319B16D
:1005C0004B699847D4F8901300230D69304639469B
:1005D0001A46A8470028F0D1D4F8903333B15B69AC
:1005E000984720B9D4F89033002BF8D1FEE70136B4
:1005F00007F50077B045E5D1D4F838330020C4F8CA
:100600003C33BDE8F081044C0020D4F83833C4F802
:100610003C33BDE8F08100BF981C002400207047E7
:10062000002070472DE9F84315F000FF224F4FF0EE
:10063000000C05464FF48678204E7968002930DD9D
:1006400000231C4608FB0372013392F805218B42FC
:1006500044EA0204F6D144EA0C0C5FFA8CF97368A0
:10066000C3F30803D3B9EFF31183BBB91AF00CF845
:10067000431BB3F5FA6FCCBF4FF0000C04F0010C34
:10068000BCF1000FD9D1B9F1000F04D00C4B93F895
:100690009423542A08D04846BDE8F88315F098FE04
:1006A000E6E7E1460024DAE7B3F89C234846013246
:1006B000A3F89C23BDE8F8830400002000ED00E0CF
:1006C000981C00242DE9F04FBD4D87B02B781BB945
:1006D000012007B0BDE8F08F6B68BA4A002BD2F852
:1006E000387318DD05F108040020B749D4F8F43058
:1006F000BFF34F8F03F59072C1F85C322033934201
:10070000FAD1BFF34F8FBFF36F8F01306B6804F5E1
:1007100086749842EADBAD4BAD4EA3FB0723AD4F89
:10072000DFF8C8A25B09A7F17C0BA6FB0326F6083D
:1007300006EB8606A3EB4606F3B207EB86060593A7
:1007400007F53873029300239946DBF864344B4570
:1007500040F30F81DAF81830DAF80480D3E93D5419
:1007600015F064FE0122049002FA08F39A490193FD
:100770006118944B05EB410193F8A80393F8943367
:100780001A46039305EB4003542A00F04181019A75
:10079000994240F24481B3F800C01CEA020F00F015
:1007A0004D81B3F802C01CEA020F00F04A81B3F891
:1007B00004C01CEA020F00F04781B3F806C00833FA
:1007C0001CEA020FE4D10192A3EB050E99424FEA15
:1007D0006E0E40F22481A4EB0E04452C28BF452464
:1007E00003EB4404A34280F01F8100259C46019A3C
:1007F000A8462946019618881040884214D1588886
:100800001040814240F0D78098881040814240F0EB
:10081000D480D88808331040814206D19C4207D941
:10082000188810408842EAD002339C4200F2A88027
:10083000B8F1110F019E40F2F780D8F1150200F1D6
:10084000F3806649049C4B689E455E4BD3F8AC032D
:1008500038BFC1F804E0231A002B13DB604B0344BC
:100860009C4200F2F6805748C0F8AC334B68052B29
:1008700040F2ED80053BDBB2524880F8A8334FF0E0
:10088000FF334B6042B105FA02F2C8F114080125AA
:1008900005FA08F848EA0205524BC5F3C43203EBE7
:1008A0008202506D05F01F0203EB8202516DC5F309
:1008B0004412C5F3842503EB820203EB850541EA6C
:1008C0000031536D41EA03116B6D41EA032181EA66
:1008D000112383EA131303F00F030F2B40F08880DA
:1008E000B1F5803F80F08480039B0909542B05D12A
:1008F000344AB2F898330133A2F89833DBF8643302
:10090000B1F5606F03F10103CBF8643300F0B380FD
:10091000029B998197F85830059883420CD0B268B1
:100920003B689B1A3B607B68326B9B1A7B600023A1
:10093000B360336387F858003B6801333B60B368AA
:100940000133B3604FF6FF73994205D17B680133E1
:100950007B60336B01333363029B09F101095C3720
:100960005C361433B9F1080F0AF1200A02937FF4C0
:10097000ECAE012301208BF8603407B0BDE8F08FA6
:10098000A3EB0C0C184833F8021C4FEA6C0C114016
:100990000CF1010C80FB0C60A0EBEC704FF0010C33
:1009A0000128B8BF01208540804401380CFA00F0CE
:1009B0009C4605431FE7043337E7063335E700BF9E
:1009C00004000020981C002400ED00E01F85EB517E
:1009D000CDCCCCCC78110020C7FFFF7F00000024D5
:1009E00020A10700D8B00A08565555553C040020F0
:1009F000039B542B33D0DBF864330133CBF86433DF
:100A0000DBF860334FF6FF710133CBF8603381E7D9
:100A1000204A9942A2F89E03019A3FF6BCAE18B153
:100A200001381C4B83F8A803039B542B94D1194A1B
:100A3000B2F89A330133A2F89A338DE70233019268
:100A4000C2E604330192BFE606330192BCE60023FE
:100A500012E704980F4B0530C3F8AC0306E70D4AC4
:100A6000B2F898330133A2F89833DBF864330133DA
:100A7000CBF86433C4E7074A537803EB430302EB34
:100A8000C3034B445B7C0D2B7FF442AF8023029A5F
:100A900093773FE7981C002410B5044669F0AAFB41
:100AA0000146204689B2BDE81040FFF717BB00BFE2
:100AB00000EB400010B5084C04EBC00414ED0F7AB5
:100AC00054ED0E7AE7EE007AB0EE670A69F092FB19
:100AD00054F8443C186010BDFC100020F8B5264BBB
:100AE0001A785B789A4242D1244E7368002B23DD3A
:100AF000002506F10800224C2F46D0F8AC30BFF399
:100B00004F8F03F1E002C4F8683220339342FAD1E8
:100B1000BFF34F8FBFF36F8F337813B1037F012B78
:100B200020D042690135716800F586701368A942CA
:100B300043F001031360E0DC15F078FC114BD3F8AF
:100B40006844002C0DDD03F26C4303EBC404196808
:100B5000083333F8042CC8689C4242EA0002CA6099
:100B6000F5D1F8BD80F8FC70FFF74AFAD9E762F0DA
:100B7000B3FD0028B8D1F8BD981C00240400002063
:100B800000ED00E0FC1000204FF0B042F8B5D2F8C4
:100B90008030D2F888502B4003EA0005C2F8885014
:100BA0007DB1084F0126B5FA85F4C4F11F0407EBA7
:100BB000840306FA04F4D3F8B00303689847A54306
:100BC000F1D1F8BD981C00240269C3682DE9F047F3
:100BD00012EA03092AD005460E464FF000474FF0AF
:100BE0000008B9FA89F327FA03F21B3BD24309EA5A
:100BF00002092A61042B16D8DFE803F03B30251ADE
:100C00000300B36A002B3FD003F1FF3AC6F82880F7
:100C10001FFA8AFA746A34B123682046514698470D
:100C20006468002CF8D1B9F1000FDAD1BDE8F08783
:100C300070680028F7D0696B036889B29847B9F1EA
:100C4000000FCED1F2E7B0680028ECD0A96B0368A2
:100C500089B29847B9F1000FC3D1E7E7F0680028DF
:100C6000E1D0E96B036889B29847B9F1000FB8D1B8
:100C7000DCE730690028D6D0296C036889B2984730
:100C8000B9F1000FADD1D1E7E96A1FFA81FAC1E7E6
:100C90008069B43056F0ACBD38B590F828300446C1
:100CA000012B04D0407F40B10023637738BD406AF8
:100CB00003681A7B9AB9637F0BB9012038BD0A4DCE
:100CC000022305F1200205F1400111F037FA95F8F1
:100CD000213003F0010383F001006377E6E71B6A2C
:100CE000002BE8D0002038BD801C0124F8B5144E3C
:100CF000044690F8281006F12007437F012904D00C
:100D00000BB1002363770120F8BD606A01680D7B99
:100D100085B9002BF7D002233A460A4911F00EFAA2
:100D200096F8213003F001036377002BEBD094F8A1
:100D30002810E3E70A6A002AE8D1002BE3D0EAE7AB
:100D4000801C0124C01C0124F0B511F0010583B002
:100D50000AD190F828600446012E07D0C368B3F189
:100D6000807F01D90123237703B0F0BD0A4B476A86
:100D7000D3F8900411F0ECFAE368B880B3F1807F07
:100D8000F2D9B7212A46384633468DF8041001A916
:100D9000267711F0D3F9E7E7981C002470B50023FB
:100DA00094B00546224C069302200B9304F12002D6
:100DB00010931393119301921E4E6A6A04960E4685
:100DC00000940290CDE90E3301238DF80C30079387
:100DD0008DF820308DF834308DF848302B7F002B83
:100DE00014BF052304230C9304F140030593124B15
:100DF0000993A4F120030A93106866F015FF2B7F76
:100E0000A3B1A4F18002330E1E3C82F86130320C93
:100E10006946330AA67022706370686A11F064F83C
:100E20006B6A186866F000FF14B070BD1F3CEEE7F7
:100E3000001D0124590304083503040810B594B0BB
:100E4000044650220649684669F052FF6946606AC6
:100E500011F04AF8636A186866F0E6FE14B010BD37
:100E6000ACB10A082DE9F8431F46436A0446884698
:100E70001868914666F0D8FE237F002B3BD0A0690E
:100E80000523264D264EAB63030EE23606F8013CE1
:100E9000B070030C000A012F337070704FF0000027
:100EA000D8F800306B64D9F80030EB642363E86550
:100EB00027D0022F1DD1D9F8042068651344D8F833
:100EC000041085F850002A660122A9652363154B9A
:100ED00085F86420AB66144B617F03F11402606AED
:100EE000002914BF1946114610F0FEFFE36A7BB1DA
:100EF000206BBDE8F883094D0423A0690B4EAB635A
:100F0000C6E7084B85F85070A86528666B65E2E770
:100F1000636A186866F088FEEAE700BF00000024F4
:100F2000801C01244103040808000024611D0124E1
:100F300000B583B08161019201A9049A0093012355
:100F4000C2626A46FFF78EFF03B05DF804FB00BF84
:100F50002DE9F0439846436A95B0054618680E4659
:100F6000344C914666F060FE0223334A0027029318
:100F700004F59073049204F58072009304F5A07355
:100F8000297F0193012305928DF80C3006970029E3
:100F900037D08DF8343004F581748DF84830330E35
:100FA000CDF82C9004F8013C05238DF82070CDF885
:100FB000308013970793CDE90977CDE90E77CDE916
:100FC0001077330CA6701D4F360A23706670D7F861
:100FD000900411F0BDF96C6A6B7FA0803BBB05A942
:100FE000204610F081FF6B6A186866F01DFED7F886
:100FF000940411F0ADF96B6A9880404615B0BDE8D5
:10100000F0838DF8343004F201148DF84830042355
:10101000CDF82C908DF82010CDF8308013910793E7
:10102000CDE90911CDE90E11CDE91011C9E76946E5
:10103000D6E700BF801C012459030408981C002433
:101040002DE9F843DDF820800F46164600212022C6
:1010500004461D4669F0C0FEB8F1000F0CD0D8F868
:101060000030B8F80A20E3811B0C2382D8F8043042
:101070006282E3821B0C2383384667F087FAF3060B
:1010800019D4431EB8B107EB000C01E0013B12D3A9
:101090001CF801EDBEF12E0FF8D1C01A03F10109C1
:1010A000421EB944032AA8BF0322082BA8BF082365
:1010B00090461A4606E008280246B9464FF0000856
:1010C000A8BF08224FF020333946204623606360D2
:1010D00069F00EFE04F10803174842464946208194
:1010E000A072184669F004FE04F1FF3C0346E21DBD
:1010F0001CF8011FA1F1610E2039BEF1190F98BF34
:101100008CF800106245F3D1184604F10B0110F879
:10111000013BA3F16102203B192A98BF00F8013C72
:101120008842F4D1182365832D0CE6722373099B42
:10113000A582E361BDE8F883202020002DE9F04F6F
:10114000DFF88C9487B0D9F83803C9F83C03002B3A
:1011500000F0DA801344154601F1200601F5FE7710
:10116000DFF870A403931FE0002D63D0D9F86C233F
:10117000AA4200F0CD80D9F86823AA4200F002818B
:10118000D9E9DC21AA424CD8A94200F2CF81691AE0
:10119000184661F00BF80135039B06F5007607F55C
:1011A00000779D4200F0B080D9F87843A6F1200383
:1011B000AC42D9D82C1BD9F88883E208D8F8301073
:1011C00004F0070402328A4203D3D8F838108A4266
:1011D0000DD9414610460593049260F0B7FF804652
:1011E000DDE90423002800F0C181C9F8880398F8DC
:1011F0000410002940F03F81D8F828B0BBF1000F5F
:1012000000F0AD811846D8F830304FF40071D21A92
:10121000D8F80C3004EBC20203EB42224346D84715
:10122000B9E7A942B3D918464FF40072002169F01A
:10123000D3FDB0E74FF400722946184669F0CCFDA3
:1012400080220346D94886F89E210C2286F8A221E6
:10125000D9F86813D9F860238142C3F8C611C3F8DE
:10126000CA2100F36881D24B013AD24C83FB0103BF
:10127000C81784FB01C40B44C0EB6313C0EB2430DC
:10128000CD4C84FB03C4C3EB831C86F8A101801002
:10129000A1EB0C011C4420F03F000131014386F812
:1012A000A011D917C1EBE4110B4486F89F31BF4B55
:1012B0009A4200F34C81BE4BBE4883FB0213D11708
:1012C00080FB02401344C1EB6313C1EB2031BA48E9
:1012D00080FB0340C3EB831486F8A5118910121B11
:1012E000184421F03F0101320A4386F8A421DA179D
:1012F000C2EBE010034486F8A331552386F8DE31B3
:10130000AA2386F8DF3146E7002007B0BDE8F08F5A
:101310004FF0FF320024A6F11C00049383F8EC2167
:10132000214683F8ED2183F8EE2183F8EF21522244
:101330001A705A7061229A7083F8E7214122DA709C
:1013400083F8E621722283F8E42183F8E521D9F8B5
:101350008023C3F8E8214FF4F07269F03DFD049B4F
:101360005522C6F8D041C6F8D441C6F8D84183F812
:10137000FE216FF0550283F8FC4183F8FD4183F8AC
:10138000FF2108E78D4C00214FF40072184669F0E8
:1013900023FD03464FF0000C022203CC46F8191C33
:1013A000EB2146F81D0C082006F8201C582106F8F1
:1013B0001F1C902106F81E1CF8211A7383F80BC01D
:1013C00006F8130C9A7383F80FC006F8102C06F871
:1013D0000B1C83F82C20D9F86813D9F8602383F804
:1013E00019C0521A83F81BC083F81DC01A6283F813
:1013F0001EC083F81FC083F82DC083F82EC083F869
:101400002FC0D9E9DC12521A80215A623F221A7683
:101410004FF0FF329A763E221A77012283F830206D
:1014200083F831C086F820102921654B86F82210F8
:10143000942186F8260086F823100E21614A86F84A
:1014400024100D2186F82510552186F8DE11AA21D9
:1014500086F8DF1103CBC6F82B101988C6F82700D1
:101460009B78A6F82F1086F8313003CAC6F83200F0
:10147000C6F836108FE64FF400721846002169F066
:10148000ABFCD8F840200346002C76D1002A00F0AF
:10149000A380D8F8303011224B49CDE90044FFF742
:1014A000CFFDD8F840301A6C002A00F0A1801B6BE9
:1014B000CDE900441122454930464FF4E07BFFF767
:1014C000BFFD06F12003D8F84480B8F1000F3FF4C7
:1014D00062AE03F120049B4404952346444698469B
:1014E00010E05CF81C1B0025236BCDE900C5FFF75D
:1014F000A7FDABEB0803A46C08F12008002C18BF73
:101500001F2B51D92379A44604F11C0E1122A8F1F6
:101510002000002BE5D162792569236B42F021027E
:101520002168CDE900E5FFF78BFDE2E7A91A18462F
:1015300060F03CFE2FE6FF23013A86F89F3186F8E3
:10154000A13186F8A031194B9A427FF7B4AEFF2340
:1015500086F8A33186F8A53186F8A431CDE6594640
:1015600018464FF4007269F037FC14E6A6F1240324
:1015700043F804AF9F42FBD10DE6002AD8F844801F
:101580000CBF01220222C2EB0414B8F1000F3FF499
:1015900002AE4246013C926C002C01DD002AF9D1DA
:1015A00090464FF4007B90E7049DF4E5FF03FB00B9
:1015B000832008829755454181808080C4450B086F
:1015C000D0450B08DC450B08BC450B08C0450B0893
:1015D000981C0024DEADBEEF23460822D9F8641320
:1015E0004FF4F07BCDE90044FFF72AFD33466AE76C
:1015F0002346CDE900445DE710B50E4CD4F84033E6
:101600003BB194F84C131A68C9079B8848BF1B0468
:10161000936160F05BFD02E05B69984720B9D4F804
:101620009033002BF8D1FEE7D4F838330020C4F80B
:101630003C3310BD981C002410B4294C94F88C3411
:101640006BB3D4F89424904235D0012B27D0D4F832
:101650007025824237D0022B21D0D4F84C269042FC
:1016600033D0032B1BD0D4F8282790422FD0042B43
:1016700015D0D4F8042890422BD0052B0FD0D4F8E5
:10168000E028904227D0062B09D0D4F8BC299042FC
:1016900023D0072B03D0D4F8982A824211D0DC2221
:1016A000591C02FB034284F88C14C2F894041846B7
:1016B0005DF8044B70470023DBB25DF8044B18461D
:1016C00070470723F8E70123F6E70223F4E7032333
:1016D000F2E70423F0E70523EEE70623ECE700BF7B
:1016E000FC10002000207047704700BF014857F0F1
:1016F0004BBB00BF48210024084810B4D0F8B034D8
:10170000D0F8E44499691A682CB1234600F5966034
:101710005DF8044B18475DF8044B7047981C002493
:10172000014857F031BB00BFAC210024084810B479
:10173000D0F81435D0F8484599691A682CB1234679
:1017400000F214505DF8044B18475DF8044B7047E5
:10175000981C0024014857F017BB00BF102200243A
:10176000084810B4D0F87835D0F8AC4599691A68B3
:101770002CB1234600F5AF605DF8044B18475DF8C7
:10178000044B7047981C0024014857F0FDBA00BF75
:1017900074220024084810B4D0F8DC35D0F8104684
:1017A00099691A682CB1234600F2DC505DF8044BAD
:1017B00018475DF8044B7047981C002403282DE956
:1017C000F04FD4BF0026012685B0B0F1FF3F08BF1F
:1017D00046F001068DF80F30002E40F08780864FCE
:1017E0006423044603FB0073D3F8B00400287ED0C2
:1017F00093F8F154202D40F08E8093F8F054012D91
:1018000000F089800125D7F8288683F8F05405E098
:10181000D7F82836A3EB0803192B6CD8856915F483
:101820000045F5D14FF0640B744BCDF800804FEAC2
:1018300041090BFB04FB49460BEB030ABB44212384
:101840005046CBF8E4548BF8F13440238BF8F23453
:101850000DF10F03CBF8F454CBF8D4340123ABF8DB
:10186000DA340A2361F0D4FF002879D1BBF8DA34E6
:101870009BB2FF2B40F29880DBF8B014FF23604846
:10188000ABF8D8344B685F4A034043EA09031A4374
:101890004A60642505FB047505E0B5F8DA349BB2AF
:1018A000002B00F0938042460A21504657F0AAFAD6
:1018B00088BBD5F8D434D5F8B02413F8010BB5F8AB
:1018C000D8149062C5F8D4340139B5F8DA3489B245
:1018D000013BA5F8D8149BB2A5F8DA34B5F8DA3490
:1018E0009BB2002BD9D00029D7D124E00026304666
:1018F00005B0BDE8F08F64232021002203FB0474AF
:10190000D4F8F43484F8F0240B43C4F8F43484F8A5
:10191000F11484F8F224B7F82C36304601339BB228
:10192000A7F82C3605B0BDE8F08FD7F82836A3EB22
:1019300008030A2B27D8916911F08001F5D0B5F87A
:10194000DA349BB2FF2B0ED953682D490B402D4939
:1019500043EA09031943FF23A5F8D83451609CE7F3
:101960008BF8F054D7E7B5F8DA3425489BB25168C4
:10197000A5F8D834DBB2014049EA03430B4343F0F6
:101980000073536089E7642303FB0474D4F8F434D0
:1019900084F8F01443F02003C4F8F434202384F8CE
:1019A000F13484F8F214B6E7BBF8DA34DBF8B0149B
:1019B0009BB213484A68ABF8D834DBB2024049EA1C
:1019C0000343134343F000734B6062E741465046C4
:1019D00061F09AFF00289ED1D5F8B03420210A4C3E
:1019E0000126D9615A6822405A6085F8F11485F8B9
:1019F000F00485F8F2047AE7981C002448210024BA
:101A0000009C00FC0000FF0100E800FE2DE9F0470B
:101A1000904C6425074682B005FB0045D5F8B0041C
:101A2000002800F0A28095F8F164202E40F0AF80ED
:101A30001FFA83FC002B00F0B48095F8F034012BE2
:101A400000F0A580012385F8F034D4F8285605E08D
:101A5000D4F828365B1B192B00F2A880866916F48F
:101A60000046F5D14FF0640A7B4B00954FEA4109DF
:101A70000AFB07FA49460AEB0308A2440A9B4046C0
:101A8000CAF8E464CAF8D43422238AF8F134402333
:101A90008AF8F2340A23CAF8F464AAF8DAC461F0C6
:101AA000F5FE002840F0D280BAF8DA349BB2FF2B62
:101AB00000F28D80BAF8DA34DAF8B0149BB26748D5
:101AC0004A68AAF8D834DBB2024049EA0343134318
:101AD000634A1A434A606426624AFF20DFF890A1F5
:101AE00006FB0746D6F8B01404E0D4F828365B1B92
:101AF0000A2B3DD88B6913F0040CF6D04B6AD6F84C
:101B0000D4140B70B6F8DA34B6F8D8C4013B0CF133
:101B1000FF3C9BB21FFA8CF1A6F8DA34D6F8D43425
:101B2000A6F8D8140133C6F8D434B6F8DA349BB228
:101B300009B9002B59D1B6F8DA349BB2002BD1D1B8
:101B40002946404661F0E0FE034600BBD6F8B024CB
:101B500020244548D461516801400120516086F835
:101B6000F14486F8F03486F8F23402B0BDE8F0872C
:101B70006423202203FB0747D7F8F43487F8F0C426
:101B80001343C7F8F43487F8F12487F8F2C4B4F8A3
:101B90002C36002001339BB2A4F82C3602B0BDE8ED
:101BA000F0874FF40073C5F8F434F0E76423202184
:101BB000002203FB0747D7F8F43487F8F0240B43DF
:101BC000C7F8F43487F8F11487F8F224DFE7DAF87D
:101BD000B014FF232148AAF8D8344B68234A0340A5
:101BE00043EA09031A434A6075E7D6F8B0E404E013
:101BF000D4F828365B1B0A2BBAD8DEF8183013F05D
:101C0000800CF5D0B6F8DA349BB2FF2B0BD9DEF896
:101C10000430A6F8D804134043EA090343EA0A0350
:101C2000CEF8043087E7B6F8DA34DEF804C09BB2A9
:101C30000CEA020CA6F8D834DBB249EA034343EAC3
:101C40000C0343F00073CEF8043074E78AF8F064B4
:101C50009DE700BF981C002448210024009800FC48
:101C600000240082009C00FC00E800FE0024FF81AC
:101C70000000FF01114A037A0168D35C10B4CC580C
:101C8000CA1824F00104CC501368DB07FCD4037D90
:101C90001F2B09D9203B20225DF8044B02FA03F3E5
:101CA00043F01803CB60704720225DF8044B02FA22
:101CB00003F343F018038B60704700BFE0460B0846
:101CC000F8B507680646D7E90454A0612B7D1F2BA1
:101CD00049D9203B2022286802FA03F343F0180375
:101CE000C360237D1F2B48D92022203B02FA03F337
:101CF000226843F01803D3606368002269680A60B1
:101D00001A601A6842F010021A60BA69297A63F000
:101D100027FCFA69217A206863F022FC33682E6878
:101D20001A6A5B6891685868184A024020680A433A
:101D300017495A602A7A8D5C725942F00102725139
:101D4000227A895C425842F0010242509A6842F479
:101D500040429A601A6842F001021A601A6842F41E
:101D600000721A60F8BD2022286802FA03F343F0DB
:101D700018038360237D1F2BB6D8202202FA03F3B9
:101D8000226843F018039360B6E700BF0000FFFF2E
:101D9000E0460B0810B1036882889A61704700BF63
:101DA00018B1838802681B049361704708B51D2031
:101DB00010F070FE08B183794BB11E2010F06AFE5E
:101DC00008B1837903B108BD5523C38008BD5523ED
:101DD000C380F2E7D3B20F2B2AD84FF0000C10B417
:101DE0006346144C04E001332A2B1DD014F803CFB2
:101DF0006045F8D194F801C08C45F4D10E4C03EB4A
:101E000043030E4902EB420C23445DF8044B01EB03
:101E10008C0201F1800093F8263100EB8C00C2F8AF
:101E2000883082F88030704700205DF8044B70479E
:101E300000207047FCB10A08D8B00A08000000244E
:101E400010B40C4C002304F5C66C01E0152B0CD02B
:101E500003EB430201331CF802108142F6D1224405
:101E60005DF8044B92F9320670474FF0FF305DF891
:101E7000044B7047981C002430B40023114C124DC1
:101E800004E001331A2B1AD054F8085FA842F8D1A5
:101E900025798D42F5D10D4C02EB42050C4904EB3E
:101EA000C30301EB850201F1800093F8A93100EB37
:101EB0008500C2F8883082F8803030BC704700203E
:101EC00030BC70477CB20A0800000140D8B00A0854
:101ED00000000024F0B1002310B504460E4894F829
:101EE00004E000F5C66C01E0152B11D003EB4302B2
:101EF00001331CF802107145F6D102446179206863
:101F000092F93226D3B20F2B02D8BDE81040B3E7C6
:101F1000002010BD00207047981C00240138074B9A
:101F2000074A00EBC00003EB8000D0F8400190426C
:101F30000CBFA020A12061F0B7BD00BF00000024AD
:101F40000000024001382DE9E84100EBC000134DCC
:101F50001E46134B05EB800590460F46D5F8400111
:101F600098420CBFA020A12061F09EFDB5F956015A
:101F70004FEA9811C5F85071C5F8586161F014FD29
:101F8000B5F95631002B07DB03F01F0001225B0976
:101F90000449824041F82320BDE8E8810000002484
:101FA0000000024000E100E0800AA0F58010522805
:101FB00006D8044B1B5C0D2B02D8034AD056704741
:101FC00000207047D8B00A08D0460B0870B183884B
:101FD0004FF00042B3FA83F332FA03F306D04FF026
:101FE000B041D1F880201343C1F88030704700BF62
:101FF0000120FEF7C9BD00BF0220FEF7C5BD00BF2E
:102000000420FEF7C1BD00BF0820FEF7BDBD00BF24
:102010001020FEF7B9BD00BF4FF47870FEF7B4BDD5
:102020004FF47C40FEF7B0BD30B1036882881B6975
:102030001A4214BF01200020704700BF70B50C4643
:1020400086B00546164640B101680E4B0E4A0B4459
:102050009B0A02EB4303B3F8740261F025FD04F020
:102060001303AA8801A90293C4F341132868C4F397
:10207000810401920596CDE9033456F03FFD06B088
:1020800070BD00BF0000FEA7D8B00A0800B1D5E7B8
:1020900070472DE9F84FC34F6423044603FB0073D8
:1020A000D3F89864002E00F06D81D3F8A0A4BAF1A3
:1020B000000F04D09AF80630002B40F063816423AF
:1020C00003FB0473D3F8A4541DB1AB79002B40F08B
:1020D0005981631CDBB2BAF1000F04D015228AF8D3
:1020E00007308AF8062015B11622EB71AA714FF05D
:1020F0006409308B61F0D8FC294609FB04F950468D
:1021000065F096FD504607EB090898F8AA3498F850
:10211000A824002B14BF3E211E21FFF7B7FF98F81B
:10212000AA342846A04D002B98F8A9244D44DFF886
:10213000989214BF3E211E21FFF7A8FF4C220021D8
:10214000284668F049FED8F89834984A5B6893426C
:10215000C8F8B034DFF8748240F0168157F084F983
:10216000D9F82030C3F302139FED917A9FED915A75
:10217000B0EE084A4344F7EE003A4FF0000E40F24A
:10218000145893F8883203F01F03D840642307EEF5
:10219000900A03FB0473F8EE677AB3F8AC94C7EEC9
:1021A000275A07EE909A9FED847AF8EEE77AC7EE09
:1021B000274ADFED827AB0EE007AE5EE877AA5EE67
:1021C000875A25EE844A37EE856A74EEE72AB9F518
:1021D000C87F0EF1010CD5BF642332234FF49670F3
:1021E000782007EE90CAD8BF4FF4167A0344C8BFD0
:1021F0004FF4827AB8EEE77AD8BF414607EE903ABC
:10220000C8BF4FF4FA7127EE257A01EB0A03F8EE06
:10221000E76A86EE873A73EE636AFCEEE67A17EEBB
:10222000902A07EE90AAB8EEE73A07EE903AF8EE59
:10223000E77A23EE243AC3EE276A36EEC53A72EE09
:10224000E66AC3EE077A77EEE37AFCEEE77A17EEFA
:10225000901AC6EE877A77EEE37AFCEEE77A17EE0D
:10226000903A03F1020A0AEB010BF0EE466A07EE20
:1022700090BAF8EE677AE7EE276AF4EEE64AF1EEF6
:1022800010FA00F388805FFA82FABAF10F0F00F2B9
:102290008480323807EE900AF8EEE77A77EEC47A57
:1022A000C7EE876AFCEEE67A17EE900A5FFA80FACC
:1022B000BAF10F0F71D81FFA81FABAF1FF0F6CD87B
:1022C0001FFA83FABAF1FF0F67D812054AEA0E73B4
:1022D00002F07F620004134300F47F00384A034396
:1022E00002EA01210B43642000FB04740027284606
:1022F000C4F8B4340123C4F8B874C4F8BC34C4F8C6
:10230000C074C4F8C474C4F8CC74C4F8D07464F055
:10231000A7F894F8F134202BD9B21AD194F8F034FC
:10232000012B16D0242384F8F134D4F8B0341A6881
:1023300022F001021A601A6822F480521A601A68A8
:102340001A601A6842F001021A6084F8F11484F8E5
:10235000F0740021F07E61F027FBF37E0124194D1B
:102360005A0903F01F03002104FA03F345F8223051
:10237000B07E61F019FBB37E5A0903F01F039C4045
:1023800045F82240BDE8F88F57F06EF8D9F81C30B8
:10239000E8E6E6461BE7013165E7BCF10F0FF8D12F
:1023A0000023A0E7981C002448210024001C0058AA
:1023B000286B6E4E000016430024744900007042E2
:1023C00000FFFF0000E100E000440258D8B00A0816
:1023D0002DE9F843B14C04EB0017D7F87036002B09
:1023E00000F0BF8005460601B7F87A0661F05CFB95
:1023F000B7F87A36012103F01F025B09023B01FAAC
:1024000002F2082B0FD8DFE813F0080110011801C1
:10241000200128010900300138014001A04BD96F8B
:1024200021EA0202DA67A319013593F87406EDB2C6
:1024300010F030FB074610B11223C5718371A31948
:1024400093F8750610F026FB814610B11323C57171
:102450008371A31993F8760610F01CFB804610B127
:102460001423C5718371344448462E2194F878268C
:10247000FFF70CFE94F879260E214046FFF706FE82
:1024800094F877262E213846FFF700FED4F87036F0
:1024900084491A688B4222F001021A6063D0824A92
:1024A000934200F08F8002F58062934279D17C4A9A
:1024B000D2F8901041F40041C2F89010D2F8901078
:1024C00021F40041C2F89010DA6842F00042DA606C
:1024D0009A6822F4F0729A601A68D60741D4734958
:1024E0009D68D1F89823D1F8A04344EA0200D1F8BE
:1024F000882310436E4A2A401043D1F894239860F1
:10250000DD68D1F88403ED007BD50243D1F88C035C
:10251000DE68B4F5800F42EA0002D1F89003654D01
:1025200042EA0002D1F89C0305EA060542EA0002ED
:10253000D1F8800300F4C02600F4006042EA0602ED
:1025400042EA0502DA601A6822F4006242EA0002F6
:102550001A6002D1D1F8A4231A641A6D22F0010284
:102560001A65BDE8F8834E4AD2F8981041F48051BC
:10257000C2F89810D2F8981021F48051C2F898103F
:102580004D4A9342A0D1464AD2F89C1041F0200116
:10259000C2F89C10D2F89C1021F02001C2F89C10C7
:1025A00092E7464A93421BD13D4AD2F8981041F433
:1025B0000051C2F89810D2F8981021F40051C2F8D6
:1025C000981081E7364AD2F8901041F48041C2F861
:1025D0009010D2F8901021F48041C2F89010CFE70B
:1025E000374A9342CCD12E4AD2F8981041F4801148
:1025F000C2F89810D2F8981021F48011C2F89810FF
:1026000062E7B2F1806F80D1B0F5800F7FF47DAFCB
:102610001D6845F480551D6077E7214BD3F898106D
:1026200021EA0202C3F89820FDE61D4BD3F8901072
:1026300021EA0202C3F89020F5E6194BD3F8941072
:1026400021EA0202C3F89420EDE6154BD3F880107E
:1026500021EA0202C3F88020E5E6114BD3F884108A
:1026600021EA0202C3F88420DDE60D4BD3F88C107A
:1026700021EA0202C3F88C20D5E6094BD3F8881072
:1026800021EA0202C3F88820CDE6054BD3F89C105E
:1026900021EA0202C3F89C20C5E600BF981C002472
:1026A000004402580030014000380040000000247F
:1026B000E0FFBF8FFFFF39D80014005800340140FD
:1026C0000050014008B10022B8E470470E4B70B5CD
:1026D000D3F86464002E14DD0C4C002503E0B542F1
:1026E00004F120040DD0237F0135002BF7D0E068E2
:1026F00000220028F3D0217D2034FFF79FFCB54253
:10270000F1D1012070BD00BFFC1000203C0400206E
:10271000F8B590F8EE311C09013C062C0FD81B4E81
:10272000054603F00F0306EB4402B2F8B80240FA84
:1027300003F2D20703D595F8F971012F01D00120DA
:10274000F8BD07FA03F33444013B184066F04AFC35
:1027500094F8C82213180E4A02EBC30152F8332032
:102760008B8810691840EBD0002395F8EF210846BC
:10277000022185F8F931FFF761FCD5F85021384680
:10278000136843F008031360F8BD00BFD8B00A080F
:1027900068230024014B53F8200070475040005834
:1027A000014B43F8201070475040005819481A4B0D
:1027B00001681A4A41F4807130B4016082B0D3F8E4
:1027C000F410FF24CA2041F48031C3F8F410D3F888
:1027D000F41001F4803101915321019D5462506243
:1027E0005162D3F8D030DB010CD40D4B00210D4ADF
:1027F00043F8041B9342FBD1084B0B4A1A6502B005
:1028000030BC7047126D084B9A42EED102B030BC1A
:10281000704700BF0048025800440258004000586A
:10282000544000586C40005831666542F0B504468B
:10283000D0F85C01454B83B0A16804F5967204F1B1
:10284000E0070E68C1B220F0FF0001921039A3FB2F
:102850000131090962F0D4FED4F81C110023019A59
:10286000012984F8203118D0042916D0102958D015
:10287000402912D0B1F5807F56D0B1F5806F53D08A
:10288000B1F5805F58D0B1F5803F4FF03C030CBFED
:102890006FF0080C6FF4006C01E06FF0080C06F1AB
:1028A00018053046E95801EA0C01E950D4F81C112A
:1028B00062F046FBD4F81C31012B16D0042B14D047
:1028C000102B0FD0402B10D0B3F5807F30D0B3F554
:1028D000806F2DD0B3F5805F32D0B3F5803F06F125
:1028E000540502D04FF4006100E008212B683A46FD
:1028F000D4F85C010B4340212B60C4F8E810C1B24E
:10290000124B20F0FF001039A3FB0131090962F0DE
:1029100027FED4F85C21136843F01003136003B062
:10292000F0BD6FF4006CBAE76FF0080C0423B6E753
:1029300006F11C050821D9E76FF4006C0423AEE70B
:1029400006F11C054FF40061D0E700BFABAAAAAAAC
:102950002DE9F04FDFF848B185B09BF8004024B96D
:102960000124204605B0BDE8F08F474BD3F838531B
:1029700013F05CFD454A92F8B83B002B00F0BC8197
:10298000434B02F17C070BF5A7640026A3FB05135C
:10299000404D5B09A5FB0315ED0805EB8505A3EB91
:1029A0004505D2F87C3BC31A0193EBB207EB8505D2
:1029B000029302F557730093019A002A04DBD4F8BE
:1029C0002431934200F37C814FF4B47303FB06B3CC
:1029D00093F85836002B00F0C080D4F85C11A3683F
:1029E0002D481A68CBB221F0FF01103BA0FB030376
:1029F0002A481B09C35C19444B68A1891FFA83FE4E
:102A0000D368CEF1160E23EA0103BEF1070FD3609F
:102A100040F2A3801D4A0121D2F864338A46013373
:102A2000C2F864330022D4F8643190469C46039384
:102A30005CF8049B48461DE0DCF80090B8F1140FE8
:102A4000A9EB000348462DDC13F1080948BF03F148
:102A500017094FEA291308EB291803F1FF3901314F
:102A600002FA03F30CF1040C0AFA09F28E4542EA69
:102A7000030217D38E45DFD8C8F11503DCF8000038
:102A80004FF01508E9E700BF981C0024FC10002057
:102A90001F85EB51CDCCCCCCABAAAAAAE0460B0843
:102AA00004000020B8F1150F40F000819649C2F3F0
:102AB0008423C2F3441001EB830301EB8000D3F8BD
:102AC000D032D0F8D0021B0243EA001302F01F00FC
:102AD000C2F3C43201EB800001EB8202D0F8D012C5
:102AE000D2F8D0220B4343EA023383EA132282EA6C
:102AF000121202F00F020F2A40F0D880C3F30F1316
:102B00004FF6FF72934200F0D180B3F5606F00F092
:102B1000DC80009A938197F85820029882420CD06A
:102B2000A9683A68521A3A607A68296B521A7A6030
:102B30000022AA602A6387F858003A6801323A6096
:102B4000AA680132AA604FF6FF72934205D17B68F2
:102B500001337B602B6B01332B63009B20460136D6
:102B60005C3714335C3504F5B4740093FFF75EFEF4
:102B7000664B93F8B83BB3423FF71EAF6348012161
:102B8000002280F86014C0F87C2B002B3FF4E8AEE4
:102B90009BF81026DBF8540612F0020FDBF84025F4
:102BA00011680A6A0CBF024342EA8002012B0A62E2
:102BB0003FF4D6AE9BF87827DBF8BC0712F0020F83
:102BC000DBF8A82611680A6A0CBF024342EA8002B9
:102BD000022B0A623FF4C4AE9BF8E028DBF824091C
:102BE00012F0020FDBF8102811680A6A0CBF0243CA
:102BF00042EA8002032B0A623FF4B2AE9BF8482AF5
:102C0000DBF88C0A12F0020FDBF8782911680A6AE7
:102C10000CBF024342EA8002042B0A623FF4A0AEDA
:102C20009BF8B02BDBF8F40B12F0020FDBF8E02A74
:102C300011680A6A0CBF024342EA8002052B0A624D
:102C40003FF48EAE9BF8182DDBF85C0D12F0020FEE
:102C5000DBF8482C11680A6A0CBF024342EA800282
:102C6000062B0A623FF47CAE9BF8802EDBF8C40E84
:102C700012F0020FDBF8B02D11680A6A0CBF024394
:102C800042EA8002082B0A627FF46AAE9BF8E83FB2
:102C9000DBF8182F13F0020F1D4B1268D96A136A64
:102CA00014BF43EA81030B43136259E6174AD2F873
:102CB00060330133C2F86033B6B14FF6FF732AE7D1
:102CC0000024204605B0BDE8F08F12494A7802EB97
:102CD000420201EBC2023244527C0D2A7FF419AF4A
:102CE000802200998A7716E7039958220A4867F0EC
:102CF000FFFF4FF6FF730EE704490122C1F87C3B4A
:102D000081F860242DE600BFD8B00A08FC1000202E
:102D100004100020981C002404150020474B93F851
:102D2000542A013A52B2511C00F0868044495001A5
:102D300001EB421200B5C3F8582A821D11F802E0D7
:102D400001EB020C93F85C2A964561D09CF802E0F6
:102D500096455BD000F10A0211F802E001EB020C8B
:102D600093F85D2A96454CD09CF802E0964546D0F3
:102D700000F10E0211F802E001EB020C93F85E2A5A
:102D8000964537D09CF802E0964531D093F8522A08
:102D900062B300F1120211F802E001EB020C93F8A9
:102DA0005F2A964539D09CF802E0964508BF0CF1A1
:102DB000020C32D000F1160211F802E001EB020C15
:102DC00093F8602A964532D09CF802E0964508BFF9
:102DD0000CF1020C2BD01A3093F8612A11F800C0C4
:102DE000084494451FD0817891421BD05DF804FBC4
:102DF0000CF1020CBCF80020A3F8642AC6E70CF121
:102E0000020CBCF80020A3F86E2AB1E70CF1020C0A
:102E1000BCF80020A3F86C2A9CE7BCF80020A3F8BB
:102E2000662AC7E702300288A3F86A2ADEE7BCF800
:102E30000020A3F8682ACEE7704700BF981C002442
:102E400028B40A080120704738B5134C41F20D131D
:102E5000124941F28832D4F8B45AD4F8700A2D04D9
:102E60008560C56829400B430D21C36057F012FAF5
:102E700038B1D4F8A42A034600201343C4F8A43A76
:102E800038BDD4F8703A5869C0F34320A0F104006B
:102E9000B0FA80F0400938BD981C0024C0E0FEFF65
:102EA00008B5FFF7D1FFB0B10C4BD3F8400B58B1C8
:102EB00001688288096993F83D3B0A402BB1002ADA
:102EC0000CBF00204FF0FF3008BD002A14BF0020C7
:102ED0004FF0FF3008BD4FF0FF3008BD981C0024B4
:102EE0002DE9F04FBB4D7C229BB0002105F52760FA
:102EF00067F072FFD5F8584A4FF4805295F8526A3D
:102F00002368C5F8782AC5F8703A1EB14FF480429C
:102F1000C5F87C2A4FF40032C5F8802A0122C5F892
:102F2000842A95F8A02A002A00F0A2800322AA4B46
:102F300085F8A02ADA6CD0034AD50AA856F0CEFA52
:102F40000C9AA649130AA1FB03131B095C00D5F8D0
:102F5000700AA242A249466801EA060143EA010357
:102F60004360036843F00303036046D2D5F8282684
:102F7000D5F828369B1A022BFAD90023994ADFF894
:102F8000889204938360C36897491A40D9F8A8339C
:102F9000A1FB033141F2883342F48052490AC260F6
:102FA00003FB01F10B4602E0426B170633D4013BF1
:102FB000FAD24FF0004001232A2285F8A03AD5F832
:102FC000A43A1843C5F8A40A10461BB0BDE8F08F18
:102FD000996A9C6ADE6A14F47C7FC4F30512586B0C
:102FE00040F09480D5F8700A14467D4B41680B4040
:102FF0004360036843F003030360D5F82816B2FB6F
:10300000F4F47A4AB2FBF4F20232D5F828365B1AAD
:103010009A42FAD8B1E7764B4C1E724A83634FF45A
:10302000D5738360C3681A4041F208131343C36029
:10303000234649B1426B013B12F0450F02D0910487
:1030400040F1E4805E1CF5D10023C5F8AC3A836002
:10305000644BC268134043F48053C36003E0436B86
:10306000190600F18D83661C04F1FF34F7D1A0E747
:10307000604A934200F092805F4A934200F083835B
:1030800095F86C0A0FF006FD034695F86E0A019359
:103090000FF000FD804695F8640A0FF0FBFC019BE1
:1030A000074695F866BA95F868AA95F86A9A2BB11A
:1030B000184695F86D2A0E21FEF7C0FFB8F1000FF3
:1030C00005D0404695F86F2A0E21FEF7B7FF2FB1C5
:1030D000384695F8652A0E21FEF7B0FF002E40F025
:1030E000FF820021B4F9040060F05EFCD5F8583A84
:1030F000B3F90430002BFFF619AF03F01F000122D3
:103100005B093E49824041F823200FE7C0F3CC0021
:1031100006F0010601F0030106FB00F0012907EEAD
:10312000900AF8EEE77A05D0022900F0C983002959
:1031300000F0A18307EE102A9FED315AF8EEC76A1E
:103140001B6B85EE267A9FED2F6AC3F3080306EE0C
:10315000903AF7EE005AF8EEE66A76EEA56AE7EEE8
:10316000866A27EE267A1C4AF7EE006A1B49136B23
:10317000136B126BC3F3064307EE903AF8EEE77A4F
:1031800077EEA67AC7EE276AFCEEE67A17EE902A6B
:10319000130AA1FB03131B095C00D8E60E4BD3F8FE
:1031A000D42022F48032C3F8D420DA6F42F4803283
:1031B000DA67DA6F22F48032DA67D3F8D42042F487
:1031C0008032C3F8D420D3F8D43003F4803303938F
:1031D000039B55E7981C002400440258598B4F016B
:1031E000002CC0FFC0E0FEFFD34D62101021010093
:1031F000C5002000007000520024024800E100E0F9
:103200000024744A0000003900000024436B5A0770
:1032100000F15D83436BDB0700F12983436B5F069D
:1032200000F1D182012200233721C5F8AC2A836046
:103230005E4AC3681A4041F23713134341F28832A1
:10324000C36057F027F800283DD1049A4FF6FE736B
:103250009A4200F2B380D5F8704A544EDFF8588194
:10326000534F002041F2371341F288323721A060DA
:103270002046D4F80CC00CEA060C4CEA0303E360C9
:1032800057F008F800287FF496AED5F8704A41F25E
:103290002911D9F8A83341F28830C4F80880A7FB77
:1032A0000332E368520A334000FB02F21943531E13
:1032B000E16042B1626B013B12F0450F01D0900416
:1032C00004D55A1CF6D14FF0805074E6636B590751
:1032D00000F1FB81374BA3636269049B002A03F171
:1032E00001030493049B03DB4FF6FE718B42B8D9B4
:1032F00004994FF6FE73994200F26882520063D53A
:10330000236801229B07C5F8A82A00F0E681002364
:10331000264E2046A36041F20233E2683240134356
:10332000E36057F051F8034698BBD5F8704AD5F8DA
:10333000A80A626904F118010328C5F8DC2AA26909
:10334000C5F8E02AE269C5F8E42A226AC5F8E82A45
:1033500000F09284A36041F20313E168D9F8A82336
:1033600031400B431249A1FB021241F28831E36064
:10337000520A01FB02F2531E4AB1626B013B12F08A
:10338000450F02D0900440F12D825E1CF5D14FF024
:10339000004301212A2285F8A01A1046D5F8A41A64
:1033A0000B43C5F8A43A1BB0BDE8F08FC0E0FEFFA8
:1033B000D34D6210C5002000000010C1049A9A424B
:1033C00000F20482D5F8704A23689F0700F08581D7
:1033D000D5F8A80A03289AD1D5F8CC2A04F1180107
:1033E000D5F8D03A0968090DC5F8B01A910F8DF8D3
:1033F0002810C2F383618DF82910C2F301618DF8A2
:103400002A10C2F307418DF82B10C2F30721D2B264
:103410008DF82C108DF82D201A0DADF82E20C3F349
:1034200003428DF83020C3F3C0328DF83120C3F34E
:1034300080328DF83220C3F340328DF83320C3F34D
:1034400000328DF8342000228DF83520002840F01D
:10345000658140F6FC71D5F8D42A01EA8303C2F3F2
:10346000C26143EA92730E93C2F342538DF83C104B
:10347000C2F302618DF83D10C2F382418DF83E30F7
:10348000C2F3C2338DF83F108DF840300E9B9DF88B
:103490004010013301F00701023103FA01F19DF8F8
:1034A000303003F00F000123C5F8B81A8340C5F887
:1034B000BC3A5B0A01FB03F34FF40071C5F8C03A54
:1034C000C5F8C41AC2F38031D5F8D83AD5F8B40A91
:1034D00001278DF84110C2F3C61102F07F020004EB
:1034E0008DF84210D90F8DF843208DF84410C3F3A6
:1034F0004171B84E8DF84510C3F382618DF84610C6
:10350000C3F383518DF84710C3F340518DF8481031
:1035100000218DF84910C3F300418DF84A10C3F320
:10352000C0318DF84B10C3F380318DF84C10C3F3CC
:1035300040318DF84D10C3F300318DF84E10C3F3B8
:1035400081218DF84F10C3F30121C3F346038DF899
:10355000501007218DF8513041F207138DF8527049
:10356000A0602046E2683240134341F28832E360B3
:1035700056F090FE034600287FF40BAFD5F8700A92
:103580004FF4007341F2101841F288328360102129
:10359000C368334043EA0803C36056F07BFE00284B
:1035A00040F0E180D5F8700AD5F8284643699F01BC
:1035B00000F19080402741F2883210218760C36873
:1035C000334043EA0803C36056F064FE0346002814
:1035D0004DD1D5F8B43A41F28832D5F8700A372186
:1035E0001B048360C3681E4041F237133343C3603A
:1035F00056F050FE0346002839D1D5F8700A4FF036
:10360000FF324262876201331F2BFCD9C36A00225A
:103610000D2123F0FF0343F06303C36282606D4A10
:10362000C3681A4041F20D13134341F28832C3605C
:1036300056F030FE0346D0B9D5F8700A0AAB05E063
:10364000D5F82826121B013200F04581426B12F496
:10365000957F426B40F042811604F1D503F12001C1
:10366000D0F8802043F8042B8B42F9D1E8E7D5F855
:10367000A42AD5F8700AC5F8A42A57490122816303
:10368000D5F8A41A0B434FF40071C5F8A43A41F2DF
:10369000101385F8A02A81604E4AC1680A401021A3
:1036A000134341F28832C36056F0F4FD40B1D5F8BF
:1036B000702A012348499163C5F8A40A85F8A03A05
:1036C0002A2210461BB0BDE8F08F04234FF0805033
:1036D000A36370E44FF40063CFE74FF0806358E6D4
:1036E00058460FF0D7F920B195F8672A0E21FEF75A
:1036F000A5FC50460FF0CEF920B195F8692A0E21AD
:10370000FEF79CFC48460FF0C5F900283FF4E9ACF1
:1037100095F86B2A0E21FEF791FCE2E4012815D101
:103720001B04D5F8D42A4FF4007103F47C13C5F8B8
:10373000BC1A43EA1243C5F8C41A0E930E9B013318
:103740009B02C5F8B83AC5F8C03ABBE6224A4FF02A
:1037500080530121A263D5F8A42A1A43C5F8A42AEC
:1037600085F8A01A15E6D5F8703A1B4A9A632A2202
:10377000D5F8A43A1843C5F8A40A85F8A07A23E43A
:10378000164B836361E5164BD3F8DC2022F40072FC
:10379000C3F8DC20D3F8842042F40072C3F88420FC
:1037A000D3F8842022F40072C3F88420D3F8DC20FC
:1037B00042F40072C3F8DC20D3F8DC3003F4007369
:1037C0000293029B5CE4402383632BE54FF08070FF
:1037D000FFF7F1BBC0E0FEFFFF0FE01FC5002000B8
:1037E00000440258636B590700F13682636B13F093
:1037F000010340F02D822369DBB2032B40F02582C8
:10380000B54BA363636913F4604F0AD05A0400F107
:10381000398213F4004F14BF4FF480534FF48033B8
:10382000B7E51B0CAD4941F209321804C5F8B43AAA
:10383000A0602046E36819400A43E26056F0C4FDE8
:10384000034600287FF4A5ADD5F8704A626904F1FB
:103850001801C5F8CC2AA369C5F8D03AE069C5F8C3
:10386000D40A266AD5F8A80AC5F8D86ABAE50123A9
:103870008363FFF7E9BB1968890640F1DE811868A8
:1038800007EE102A96491B6BC0F3C102B8EEC75A67
:10389000DFED945AC3F30803D140B7EE007A06EE89
:1038A000903A06EE101AF8EEE66AB8EEC66A76EEC0
:1038B000876A86EE057AE7EEA56A27EE267A52E455
:1038C00007EE102A9FED885AF8EEC76A38E4042301
:1038D0008363FFF7B9BB4FF00043CEE6110700F159
:1038E000C581426B920700F1C581426B970609D5ED
:1038F000BEE1D0F88010D5F8282643F8041B121B2F
:103900000132E8D0426BD604F3D4784B83630A9B30
:10391000C3F381128DF81420C3F340128DF81520E3
:103920001A0A22F0FF0242EA1362DDE90B1392B297
:1039300009BAADF81620DAB206918DF81C20C3F34F
:1039400007229DF83B108DF81D20C3F303521B0C7A
:103950008DF81E200D9A23F0FF03D4B22343ADF857
:103960002030C2F385238DF82230C2F301238DF875
:103970002330C2F3031302F00F028DF824304FF40A
:1039800000738DF825208DF8261010218360534A8E
:10399000C3681A4041F21013134341F28832C360E6
:1039A00056F078FC00287FF482AED5F8A81A9DF86E
:1039B000243001299DF82520DBB2D2B236D0032372
:1039C000D5F87C4AC5F8C80A994285F8A03A3BD197
:1039D000D5F8A42AD5F8703A42F08052C5F8A42A46
:1039E000D5F8A42A002A42D041494FF400723B483E
:1039F000996341F210119A60DA68104041F28832FE
:103A000001431846D960102156F044FC002800F00C
:103A1000E480D5F8703A012235499963D5F8A43A83
:103A20001843C5F8A40A85F8A02A49E61343D5F837
:103A30007C4A4FF0030214BF4FF400734FF48073BD
:103A400085F8A02AC5F8C83AB4F5004FC0D0B4F53F
:103A5000804F00F0C680002C00F08880D5F8A42AA2
:103A6000D5F8703A42F00062C5F8A42AB8E7D5F854
:103A7000840AD5F8742A0328D5F8786AD5F8801A0C
:103A800009D8D5F8C87AB7F5007F04D0B7F5807F9C
:103A90000CBF0220042032430A43164922435C68CB
:103AA00021400A434FF40071024341F210105A6062
:103AB00099600A4AD9680A401021104341F28832BD
:103AC000D860184656F0E6FB0028A2D1012385F8FD
:103AD000A03AD5F8284614E0C5002000C0E0FEFF5B
:103AE0000090D003000000390024F44A3A0F001877
:103AF000FF0FE01F002CC0FFD5F828361B1B013339
:103B00002AD05FF01DFB0428F6D100220121D5F850
:103B1000A83AC5F8A42AC5F89C2A85F8A01AA3B12A
:103B20008B427FF4CDAD0223584C85F8E03BA4F5E1
:103B30008C730FCB84E80F00A4F5847310340FCB83
:103B400084E80F000022FFF73FBAD5F8AC3A002B0B
:103B5000EAD0012BE8D0B3E54FF0004101232A223F
:103B6000C5F8A41A85F8A03AFFF72EBAD5F8703A2E
:103B7000CDE90A445A6992015CD40AA85FF002FBBD
:103B800018BB0B9BDB036CD5D5F8B43A3721D5F8BD
:103B9000700A1B043E4E836041F23713C268324004
:103BA000134341F28832C36056F074FB68B9D5F80C
:103BB000700A8460C26841F2061306213240134342
:103BC00041F28832C36056F065FBD5F8703AD5F8FB
:103BD000A42A1043C5F8A40A02E7012385F8A03AF5
:103BE0006EE50022D5F8703ACDE90A225A699001B3
:103BF00020D40AA85FF0C6FA0028E6D10B9B59032F
:103C00002FD5D5F8B43A3721D5F8700A1B04204EC9
:103C1000836041F23713C2683240134341F2883265
:103C2000C36056F037FB0028CFD1D5F8700A0223C5
:103C30008360BFE74FF40060C9E707EE102A9FEDED
:103C4000155AF8EEC76AFFF77BBA0123FFF7A1BB4D
:103C50000122A263FFF79DBB04221346A263FFF774
:103C600098BBD5F8703A4FF08060B0E7082304E5C0
:103C7000202302E5022300E5D5F8CC2AD5F8D03A76
:103C8000FFF7B0BB4FF40053FFF783BB7C28002441
:103C9000C0E0FEFF0024744C10B5214C94F8150CC4
:103CA0000EF0F8FE28B11F210022C1802021FEF76E
:103CB000C5F9D4F840333BB194F84C131A68C907DE
:103CC0009B8848BF1B04936194F9532A0021032069
:103CD000FEF780F850B1D4F8403B5BB1196894F816
:103CE0003D2B9B8809690B4012B91BB9012010BDFF
:103CF000002BFBD194F8193C4BB10A4B93F8AC0361
:103D00000028F3D1D4F83833C4F83C3310BD012374
:103D100084F8193CFFF7E4F8024B83F8AC03EFE7B3
:103D2000981C002400000024C94BD3F8E41BD3F8EE
:103D3000E82B70B58C0FC2F3072C100E83F8204CC3
:103D4000C1F38364000183F8214CC1F3016483F85B
:103D5000224CC1F3074483F8234CC1F30724C9B2B2
:103D600083F8244CC2F3035483F8251CA3F8260CD3
:103D7000C2F3C030B3F8261C89B22143C2F3034416
:103D8000A3F8261CC2F3403183F8284CC2F38034D8
:103D900083F8290C002083F82A4C83F82B1CC2F3EB
:103DA000003183F82C1C93F8E01B83F82D0C0129BB
:103DB00040F2F380022900F0C580D3F8EC1B2A20E2
:103DC0004FEA4C0C83F8394CC1F3C01201F07F016B
:103DD0000CF07E0C83F83ACC4FF0010C93F83A4C7F
:103DE0001443D3F8F02B83F83A4CD40F83F83B1CE0
:103DF000910D83F83C4CC2F3417401F00C01C2F305
:103E0000815583F83D4CC2F3826483F83E4C83F8BD
:103E10003F1C93F83F1CD3F8F44B294383F83F1C15
:103E2000C2F3405183F8401C002183F8411CC2F3C7
:103E3000004183F8421CC2F3C03183F8431CC2F333
:103E4000803183F8441CC2F3403183F8451CC2F32F
:103E5000003183F8461CC2F3812183F8471CC2F36A
:103E60000121C2F3460283F8481CC4F3074183F8DA
:103E7000492C220E090283F84ACC83F84C2CC4F357
:103E80000722A3F84E1C2406B3F84E1C89B2114336
:103E9000A3F84E1CD3F8F81BC3F8504C0C0ED3F803
:103EA000502C42EA0442C3F8502C0A0AD3F8504C72
:103EB00002F47F422243C1F30724C9B2C3F8502C55
:103EC000D3F8505CD3F8FC2B2C43C3F8504C83F848
:103ED000541C110E83F8551C110C0906C3F8581C0C
:103EE0001102D3F8584C0A4601F47F01214392B2E3
:103EF000D3F8004CC3F8581CD3F8581C0A43C3F835
:103F0000582CC4F30352D3F8581C41EA1461C3F887
:103F1000581C93F85C1C1143C4F3072283F85C1C03
:103F2000210A01F47061A3F85E1CB3F85E1C89B22B
:103F30001143C4F34602A3F85E1C83F8602C83F897
:103F400061CC70BD1204D3F8EC1B02F47C12C1F3F7
:103F5000072CC3F8302C0A0ED3F8304C44EA022464
:103F6000C1F30742C3F8304CD3F8304C22434FF42E
:103F70000074C3F8302CD3F8302CC3F8704C0132E5
:103F800040F10004A40244EA92549202C3F86C4C3B
:103F9000C1F38034C3F8682C12E74FEA8C2CD3F8B5
:103FA000EC1B92004FF0010E0CF44064C1F3C265AB
:103FB00002F47F72C1F3072CC3F8304CD3F8304CB5
:103FC0002243CC0BC3F8302C04F00602D3F8304C5B
:103FD00044EA9174C3F8304CC1F3026483F8345C52
:103FE00083F8354CC1F3425483F8364CC1F3824414
:103FF00083F8374CC1F3C03483F8382C93F8382C4D
:10400000224383F8382CD3F8304C93F8382C93F8AB
:10401000285C02320EFA05F50EFA02F2C3F8705C63
:10402000D617A2FB052E05FB06EE04FB0EEE0134AF
:10403000A2FB0424A644520AC1F3803442EACE52C1
:10404000C3F8682C4FEA5E22C3F86C2CB8E600BFB8
:10405000981C00240E4838B5D0F8403B0D46144655
:104060003BB1196890F83D2B9B8809690B4052B110
:104070005BB9FFF759FE074A4FF400730020926CBA
:104080002A60238038BD002BF3D14FF0FF3038BDBC
:10409000981C0024B82800245EF0A4BD5EF0A2BDE8
:1040A0002DE9F047344C94F86C0A0EF0F3FC054609
:1040B00094F86E0A0EF0EEFC064694F8640A0EF0D0
:1040C000E9FC94F8528A074694F868AA94F8660ABC
:1040D00094F86A4A0DB11823EB800EB11923F380CE
:1040E0000FB11A23FB80B8F1000F15D1384601211A
:1040F000FDF750FEFEF7E6FA28460121FDF74AFEDD
:104100003046FDF747FE2846FEF7DCFA304601212F
:10411000BDE8F047FEF7D6BA0EF0BCFC814608B108
:104120001B23C38050460EF0B5FC804608B11C230B
:10413000C38020460EF0AEFC044608B11D23C380A8
:1041400038460121FDF726FEFEF7BCFA4846FDF78A
:1041500021FE4046FDF71EFE2046FDF71BFE012115
:104160004846FEF7AFFA40460121FEF7ABFA0121BF
:104170002046FEF7A7FABFE7981C0024D0F850119C
:104180002422F8B5C0F8D02104460A6800238068CC
:1041900004F5A87522F001020A600B604B608B6089
:1041A00094F805C0C4F8D83184F8CC31C4F8D031C3
:1041B000C4F86831C4F8D431C4F87031C4F864313B
:1041C0004FEA8C23B44A03F48053C4F8540191425B
:1041D000C4F858314FEA0C3303F40053C4F85C318F
:1041E0004FEA0C2303F48063C4F8603100F0AE8121
:1041F000237913F0010002D00422C4F8642113F0E3
:10420000020305D0D4F8642142F00802C4F8642106
:104210001CF0010F0DD048B1D4F8782142F0020211
:10422000C4F878214FF48032C4F88021002B40F08C
:1042300081819A4B03F12C0053F8042B944200F037
:104240003F819842F8D11CF0080F40F04F81D4F81C
:10425000D031002B00F09C8124232846C4F8D031B3
:104260000B6823F001030B6055F0E0FC012815D02A
:10427000D4F87831002B40F09181D4F850312846A1
:104280005A6822F490425A609A6822F02A029A6090
:104290001A6842F001021A6061F0B0FA2379DA0775
:1042A0006DD5D4F82C21002A00F05F810023D4F8CA
:1042B000341104F13C06E2634FF48062C4F8B81094
:1042C0003046E264C4E91133C4E91433C4E9183355
:1042D000C4E91A334FF48033E3654FF48073A36568
:1042E00062F00CF9304653F00DFFD4F8D431C4F825
:1042F000C861202B65673DD1E368626999B2CAB392
:10430000B1FA81F04009A9B394F8CCC1BCF1010F16
:1043100030D02227C4F8D80194F870C0C4F8D47102
:104320005F4FA4F8AC110121A7675E4F8C45C4F81C
:10433000A821E7675C4FC4F88C0084F8CC11C4F85E
:1043400088700ED094F8717084F87010012FD4F832
:10435000501100F02B814FF4006384F87000C4F812
:104360009030102100222023C4F8D81184F8CC21E9
:10437000C4F8D031E26B23795268C4F844219B071A
:1043800040F18880D4F83021002A00F0E380002337
:10439000D4F8381104F1B406C4F8B420C4F8C0301D
:1043A0004022C4F8D0303046C4E93233C4E9363351
:1043B000C4E938334FF48033C4F8D4304FF4806309
:1043C000C4E92E12C4F8C43062F098F8304653F0B5
:1043D00099FE002840F0B980D4F8B420334B34481B
:1043E0003449824218BF9A42C4F8C461C4F8EC5000
:1043F00000F160000CBF012300232F4C8A4208BF4C
:1044000043F001033031A24208BF43F0010360349E
:104410008A4208BF43F001033031824208BF43F0B3
:10442000010300F568708A4208BF43F0010301F5FB
:104430005C71A24208BF43F0010304F568748A422C
:1044400008BF43F001033031824208BF43F001034B
:1044500060308A4208BF43F001033031A24208BFF6
:1044600043F001038A4208BF43F001033031824226
:1044700008BF43F001038A4208BF43F001033BB980
:104480000E4BD31AB3FA83F35B09002B00F0A7801D
:1044900000235360F8BD00BF000C0058BC1C002076
:1044A000D94F09080D5009081150090810000240A1
:1044B000280002404000024058000240B804024078
:1044C000002C3FF4C0AE94F8F831002B3FF4BBAEA3
:1044D000D4F878311CF0080F43F00803C4F87831A1
:1044E0004FF40043C4F888313FF4B1AED4F8D03172
:1044F000002B50D024232846C4F8D0310B6823F079
:1045000001030B6055F092FB01283FF4C7AED4F8CD
:104510007831002B46D1D4F8503128465A6822F41D
:1045200090425A609A6822F022029A609A6842F099
:104530000802ACE6D4F8783143F00103C4F87831CE
:104540004FF40033C4F87C3173E6FEE70423C4F86B
:1045500074314DE6D4F8DC311A6842F080021A60FA
:104560001A6842F040021A60F8BDD4F8DC211168E4
:1045700041F480711160916841F00101916011680E
:1045800041F020011160116841F010011160F6E660
:1045900084F8CC3160E684F8CC31ABE7284655F09E
:1045A00021FE6AE6284655F01DFEB4E79BB2243191
:1045B000304653F0C7FF00287FF4D3AED4F8503113
:1045C00084F8CC011A6842F480721A609A6842F04A
:1045D00001029A609A6842F040029A60CAE653600B
:1045E000F8BD00BFF8B50446EFF31185502383F3FF
:1045F0001288D0F830311B6803F001031BB1EDB213
:1046000085F31188F8BDD0F8D021D0F8D4110A4331
:1046100002F02102212AF2D0D0E909218A424FD0AA
:104620004BD800691A46431A9BB2A262002284F852
:10463000E021D4F8D021202AE1D1A2695118DED09E
:10464000B3FA83F25209002BD9D094F8CC01012897
:10465000D5D02120A4F8A6314FF0010CC4F8D82100
:10466000C4F8D001D4F8C401C4F8A011A4F8A4314E
:1046700084F8CCC170B31D4E90F834E0C6631C4E74
:10468000E645026506641B4EC6640CD090F83560A2
:10469000D4F85071664580F834C015D04FF40063EB
:1046A00080F834204365102100222023C4F8D8115B
:1046B00084F8CC21C4F8D031A1E7531A9BB2B4E7F7
:1046C000012380F8E0319AE707F1280253F03AFF1E
:1046D0000028E8D1D4F8503100224021196284F832
:1046E000CC219A6842F080029A6088E7B14F0908AD
:1046F000D54F0908115009082DE9F8434D4C04EB3A
:104700008004D4F8C04B002C44D0D4F8E8511F46A4
:10471000494B0646A1602046236090466B68C4F86A
:10472000DC31AB6B63616B6BA361EB8FE360AB8FD1
:104730002361424BC4F8E4310EF0D2FC6B68A88DC3
:10474000C4F85031002863D194F8EE010EF0A2F9BC
:10475000022117F00802034694F8EC9184F8F9114D
:104760001BD060B317F0510F4FF00B0206F101069A
:1047700014BF0A211A2117F0410FC671827114BFAC
:104780004023202394F8EF211943FDF757FCD4F878
:104790002C314BB32046BDE8F88318F0020F0ED041
:1047A00068B14FF00B0C3B0680F806C006F1010C17
:1047B00080F807C02FD494F8EF21FDF73FFC48465E
:1047C0000EF068F90028E2D018F0010FDFD00C22BB
:1047D00001360221C671827194F8ED21FDF72EFC9D
:1047E000D4F82C31002BD5D195F8321095F8300043
:1047F00089095FF0D9F895F830300122104903F0AB
:104800001F005B098240204641F82320BDE8F88361
:104810005FF04AF998E7D4F850714FF0010C20216D
:104820003B6823F008033B6084F8F9C1FDF706FC00
:10483000C5E700BFFC10002068B40A08112704086F
:1048400000E100E0BFF34F8F0549064BCA6802F450
:10485000E0621343CB60BFF34F8F00BFFDE700BFA3
:1048600000ED00E00400FA051C481D4AC1681D4B1C
:1048700010B44FF6FF0485B021401B4C0A43C260C0
:10488000D3F8D010D3F8DC20C4F8781C42F00052E2
:10489000C3F8DC20D3F8DC2002F000520192019A28
:1048A000D3F8DC2042F08042C3F8DC20D3F8DC20CF
:1048B00002F080420292029AD3F8DC2042F00042D9
:1048C000C3F8DC20D3F8DC3003F000430393039BF0
:1048D00005B05DF8044B11F02FBD00BF00ED00E006
:1048E0000005FA0500440258981C002408B51D482C
:1048F0000023C0F88430BFF34F8F436923F4803323
:104900004361BFF34F8FD0F8803043F6E074C3F3B8
:104910004E3CC3F3C90E4FEA4C1C0CEA040173462B
:1049200041EA8372013BC0F874225A1CF8D1ACF101
:10493000200C1CF1200FF0D1BFF34F8FBFF36F8F0E
:10494000BFF34F8FBFF36F8F4369002223F400330F
:104950004361C0F85022BFF34F8FBFF36F8F72B621
:10496000FFF770FF00ED00E003689B0AA3F58013DA
:10497000522B57D870B53E4C14F803C0BCF10D0F44
:104980004FD840798508002951D04FEA900E4C2429
:1049900038480CEB8C0304FB0C040CEB4303D4F8F9
:1049A0007C6C02242B4404FA0EFEF46800EB8305B1
:1049B0004EEA0404A966AA67F460EFF31184502359
:1049C00083F312882C2303FB0CF3C1184A6E52B3F5
:1049D000131DC1F88820284A2C21284D01FB0CF119
:1049E00005EB010E14310A4452F8041B19B1196089
:1049F00052F8043C04339645F6D10022E4B21A6022
:104A000084F311882C2303FB0C03D3F888302BB3D9
:104A10004C2303FB0C00D0F87C2CD36843F001033B
:104A2000D36070BD7047144A24331344D4E711484F
:104A30004C23022403FB0C0304FA05FED3F87C6C20
:104A40000CEB8C03F4680CEB430324EA0E042B44B8
:104A5000F46000EB8304A166A267AEE74C2303FB7E
:104A60000C00D0F87C2CD36823F00103D36070BD18
:104A7000D8B00A08981C0024FC1C0024201D002427
:104A800003689B0AA3F58013522B00D97047144A80
:104A9000D35C0D2BFAD84FF04C0C10B4114C79B9F3
:104AA000417902220CFB03405DF8044B21FA02F32A
:104AB000D0F87C1C9A40CB6823EA0203CB60704795
:104AC000417902220CFB03405DF8044B21FA02F30A
:104AD000D0F87C1C02FA03F3CA681343CB6070471A
:104AE000D8B00A08981C002403689B0AA3F5801319
:104AF000522B10D8084AD25C0D2A0CD840790223D8
:104B000006494FF04C0CD8400CFB02128340D2F8FF
:104B10007C2CDB4313617047D8B00A08981C002432
:104B200001490248FCF750B8FC1C00240000014079
:104B300001490248FCF748B8FC1C00240000014071
:104B400002494FF08040FCF73FB800BF281D002409
:104B500001490248FCF738B8541D00240004004005
:104B600001490248FCF730B8801D002400080040CD
:104B700001490248FCF728B8AC1D0024000C004095
:104B80002DE9F843194E3569F3681D4010D04FF0F8
:104B90000047DFF85C80B5FA85F227FA02F31F2A96
:104BA0006FEA030305EA0305336103D0002DF2D158
:104BB000BDE8F883D8F86831A3B103F1FF390023C9
:104BC0001FFA89F9C8F86831D8F86441002CEDD093
:104BD00023682046494698476468002CF8D1002D88
:104BE000D9D1E5E7F16A1FFA81F9EDE7001000403D
:104BF000981C002401490248FBF7E6BF301E002440
:104C00000004014010B5064C064804F5CC71FBF7D2
:104C1000DBFF04F5F8710448BDE81040FBF7D4BF92
:104C2000981C002400040140001C00400149024877
:104C3000FBF7CABF5C1E002400180040014902486F
:104C4000FBF7C2BFB41E0024002000400149024807
:104C5000FBF7BABFE01E00240040014001490248B2
:104C6000FBF7B2BF0C1F0024004401400149024879
:104C7000FBF7AABF381F0024004801402DE9F0418E
:104C80004FF425728EB000217B4866F0A5F87B4B6F
:104C90007B4E4FF08041D3F8F02006F6841537465E
:104CA00042F00102DFF8E08106F66814C3F8F02054
:104CB000D3F8F02002F001020092009AD3F8E82025
:104CC00042F00102C3F8E820D3F8E82002F0010224
:104CD0000192019AD3F8E82042F00202C3F8E820DA
:104CE000D3F8E82002F002020292029AD3F8E820F8
:104CF00042F00402C3F8E820D3F8E82002F00402EE
:104D00000392039AD3F8E82042F00802C3F8E8209F
:104D1000D3F8E82002F008020492049AD3F8E820BD
:104D200042F01002C3F8E820D3F8E82002F01002A5
:104D30000592059AD3F8E82042F02002C3F8E82053
:104D4000D3F8E82002F020020692069AD3F8F02069
:104D500042F00202C3F8F020D3F8F02002F0020281
:104D60000792079AD3F8E82042F04002C3F8E820FF
:104D7000D3F8E82002F040020892089AD3F8E8201D
:104D800042F08002C3F8E820D3F8E82002F0800265
:104D90000992099AD3F8E82042F48072C3F8E82017
:104DA000D3F8E82002F480720A920A9AD3F8F0202D
:104DB00042F48032C3F8F020D3F8F02002F48032BD
:104DC0000B920B9AD3F8F02042F40032C3F8F02093
:104DD000D3F8F02002F400320C920C9AD3F8F020B1
:104DE00042F48022C3F8F020D3F8F03003F480239B
:104DF0000D930D9B4246002301E054F8332091426D
:104E00000BD00133112BF8D11C3700205EF04CFE83
:104E1000AF420CD057F81C1CECE71A4A1C3702EBC7
:104E2000C303B3F8480D5EF03FFEAF42F2D14FF03E
:104E30008041154F154C3A46002301E054F83320C9
:104E400091420BD00133112BF8D11C3600205EF0BB
:104E50002BFEAE420CD056F81C1CECE7094A1C365F
:104E600002EBC303B3F8480D5EF01EFEAE42F2D172
:104E70000EB0BDE8F08100BFFC1C002400440258C5
:104E8000B4B40A08D8B00A08000001401CBE0A08E1
:104E9000800AA0F5801052280DD8074B1A5C0D2A05
:104EA00009D8064B4C2101FB0233D3F87C2C136844
:104EB00043F0010313607047D8B00A08981C00241F
:104EC00038B590F83DE08446BEF1020F5FFA8EF0EF
:104ED00018D014469CF83D20012A02D102228CF8F9
:104EE0003D200C290DD8DFE801F05D0C0C0C290CDD
:104EF0000C0C430C0C0C0E0040322146284653F09B
:104F000021FB002038BDDCF83050334AEA63334AD5
:104F1000EA6495F83420012AF3D00121DCF800205E
:104F200085F8341095F835100129E5D000234FF4A9
:104F30000062184685F834306A6538BDDCF82850C0
:104F4000254AEA63254AEA6495F83420012AD8D034
:104F50000121DCF8002085F8341095F8351001297E
:104F6000E4D138322146284653F0ECFA002038BD0F
:104F7000DCF82C50184AEA63184AEA6495F83420A1
:104F8000012ABED00121DCF8002085F8341095F804
:104F900035100129CAD13C322146284653F0D2FAB5
:104FA000002038BDDCF824500B49DCF80020E96310
:104FB0000A49E96495F834100129A2D0012185F845
:104FC000341095F835100129B0D1343221462846E5
:104FD00053F0B8FA002038BD514F0908F94E0908BE
:104FE0001F4B984210B50ED003F5806398420AD04B
:104FF0001C4A03F58043984218BF904203D003F542
:10500000806398421BD154F02FFA174B1749DC6983
:10501000DA69C4F3022CC2F3022201EB0C0393F809
:10502000883203F01F03D8400F4B11491B69C3F3AB
:10503000C03342EAC303CB5C03FB00F010BD54F065
:1050400013FA094B0949DC69DA69C4F30214C2F3A3
:1050500002120B1993F8883203F01F03D840E3E7DC
:10506000000001400040014000440258D8B00A0846
:10507000BC460B082DE9F04FB24B91B00024DFF88D
:10508000EC820193B04BA3F6CC5BB04E0025DFF869
:10509000B892B30AA3F58013522B56D81BF80330ED
:1050A0000D2B52D818F90370A94B9B7A012B40F0B5
:1050B0000F81012F3FD14FF0000A5146384615F0BD
:1050C0009DFF16F023F890F800C0BCF1000F18BF48
:1050D000BCF1540F14BF4FF0010C4FF0000C40F026
:1050E000F3800AF1040A1FFA8AFABAF1100FE4D128
:1050F000002C00F0B480934A00210DE01BF803302F
:105100000D2B10D818F90330BB420FD0013102F536
:105110008672A14280F29F80906803689B0AA3F583
:105120008013522BEAD90023BB42EFD1437999F87F
:1051300005009842EAD10135082D13D059F81C6FAB
:10514000B30AA3F58013522BA8D9814B9B7A012B6C
:10515000F1D001220027022BADD1002AABD00135BE
:10516000082DEBD1019B013403F58673042C0193C8
:105170008BD1784F0026DFF8F8A1774BD3F8643451
:10518000B34265DDD7F80C80B8F1000F60D0734BE7
:10519000B8F804105D68D8F800003B7C002DDFF8FB
:1051A000D4C10193B1FA81F38444C3F11F0902937E
:1051B0004FEA9C2C40F3A980624A002405E00134A8
:1051C00002F58672AC4200F09D8013686345F6D10B
:1051D0004FF486735B4A03FB0424019B0322C7F848
:1051E000049001363B744FEA4903C7F80C8002FA79
:1051F00003FCBC6188F80620012288F8076002FAE7
:1052000003F5A36C43EA0C03A364236D2B432365CE
:10521000524B1B78002B60D0636D02FA09F943EA08
:105220000903636581611FFA89F1D4F8AC00FAF7CC
:1052300013FF20462037FAF7E3FE0123082E0AF178
:10524000180A07F8043C07F8033C0AF8073C94D115
:1052500011B0BDE8F08FBCF1000F7FF46CAFD9F84E
:10526000080000223E4B04E001320C33102A00F00B
:105270002A8359688842F7D152B2304699F805100E
:10528000FCF7FAFD374A4068002351680133884231
:1052900017D0102B02F12402F7D14FF0FF3303EBAC
:1052A000C303314A02EB830393F85C31002B7FF494
:1052B00042AF254BC5EBC50503EB8505019B9D6002
:1052C00050E7DBB2013BEAE7002C7FF414AF32E792
:1052D000B7F1080218BF01223DE7029D4FEA014CD9
:1052E00002FA09F1C5F12F0589B202FA05F51A464D
:1052F000636D2B436365C0F818C0D4F8AC00FAF7AF
:10530000ABFE96E7032C00F3E9804FF48673134A53
:1053100003FB05231869002800F0C1825422C3F85A
:1053200008C00CF1010C0E4C83F8102183F811C158
:105330006B1C0A4A53600022054B93F821300393FB
:1053400083681EE00C000020A4BE0A08000401408F
:10535000902D00243C040020FC10002004000020BC
:10536000800000244001002400000024D0460B08E7
:10537000B81000200000FEA701320C34102A00F003
:10538000A28261688B42F7D1417952B20068FCF782
:1053900073FD4FF48672B14BDFF804B302FB0532A4
:1053A000D0E90141C2E90741002259464B68013268
:1053B0009C4217D0102A01F12401F7D1A84BAB462B
:1053C00093F83821002A00F05C82A648A649A74A33
:1053D000A74BC0F8101CC0F8082CC0F8183C11B03E
:1053E000BDE8F08FD2B24FF48671013A01FB05F3AC
:1053F0009B4902EBC202049301EB820297491944D4
:1054000092F85C31B1F810010593002BDDD1049CBA
:10541000A2F85C01974BA210086903FB02F2964BBD
:105420000068C2EBC20C02EBC20203EB4C1C03F59A
:10543000607303EB4212D8F80030C1F8B4C0C1F871
:10544000FC203322CB60C1F8B8208C22C1F80021A7
:10545000FFF7C6FD894B1C19039B062B00F00E823B
:10546000072B874B874908BF1946874B874A18BFC8
:105470001A464FF48673B0FBF2F2B0FBF1F1013A39
:105480007648013903FB050392B2A3F8BC10A3F8D8
:105490007420226600220393A4F858206266E26515
:1054A000049A02F1580100F1080211441A691068C7
:1054B0005FF0C2FE039B1A6910680392036843F011
:1054C0008003036053790C2B0DD8DFE803F06F0CD9
:1054D0000C0C670C0C0C5E0C0C0C550003236C4A76
:1054E00082F8203071E74FF486735C4A03FB052392
:1054F00059694FF0600C02680023CDF820C04FF4CA
:10550000807C0A9322F00102CDF838C04FF0010CE4
:105510000D930F930223CDF824C04FF00A0CCDE970
:105520000BC3026008AA5FF00BFD4C4B4FF4867270
:1055300002FB0532039B526919680023012A3DD002
:10554000042A3BD0102A00F0AF81402A36D0B2F5B1
:10555000807F00F0AC81B2F5806F00F0A881B2F5D9
:10556000805F00F0A981B2F5803F4FF03C030CBF93
:1055700008224FF4006222E04FF48673374A4FF45A
:10558000805103FB05235961B3E74FF48673334A17
:105590004FF4807103FB05235961AAE74FF486732A
:1055A0002E4A102103FB05235961A2E74FF48673AD
:1055B0002A4A012103FB052359619AE7082201F1D8
:1055C000180050F803C042EA0C02C250039B18793D
:1055D000002840F03E81214B4FF4867202FB0532D9
:1055E00000231069D1690068026842F0010202607C
:1055F000DBF804200133914200F02781102B0BF1DE
:10560000240BF5D14FF0FF33154A03EBC30302EB34
:105610008303D3F840011F4B98420CBFA020A12068
:105620005EF042FA0D4A4FF4867303FB05231A69B4
:1056300051790C2900F20681174B03EB4103B3F8B3
:10564000ACCED2F800E04FF48673044A134970469A
:1056500003FB0523A3F818C000232AE00400002060
:1056600000000024FC10002005F1040801F10408EA
:105670000DF104086B4CA407208401240C000020C9
:105680001055220044950800D0DD060040771B002D
:10569000902D002400000240D8B00A0868150020B0
:1056A00040010024904200F005810133042B00F0FA
:1056B000078151F83320002AF4D1844A86461046E7
:1056C000D2F868240132C0F8682400EBC302DB0082
:1056D000C2F86CE41944059823469022B1F804E01E
:1056E000DFF804B24CEA0E0CA1F804C07849FCF7CC
:1056F00029FC4FF48673774A4FF4403E40214FF423
:10570000805C03FB05250023E869026842F0100273
:105710000260026842F014020260C4E91F33C4E967
:105720002733C4E929334FF480632A6AC4F898E028
:10573000C4F88430A167C4F89420D5F8B820C4F820
:105740009020C2B220F0FF00103AABFB0231EA68B1
:10575000049B1832C4F888C04FF4804C09092267B2
:1057600003F170025C4B1A44D5F8B430C4F88CC015
:1057700063675FF0F5FEE869049B4FF40031D0F8F1
:1057800000E04FF4006C03F1B802534BC4F820E082
:10579000D0F814E01A440023C4F824E0D0F804E060
:1057A000C4F828E0D0F808E0C4F82CE0D0F80CE009
:1057B000C4F8C830C4F830E0C4E93033C4E9393340
:1057C000C4E93B332B6AC4F8E01003934FF48063C1
:1057D000C4F8CC30039BC4F8DC30D5F80031C4F8F1
:1057E000D830C3B220F0FF00103BABFB0331EB68B5
:1057F000C4F8D0C010330909C4F8B830D5F8FC306B
:1058000003934FF48043C4F8D430039BC4F8BC30F6
:105810005FF0A6FEEB69B8F804101A68D8F800002B
:1058200062635A69A2635A68E2639A682264DA681A
:1058300062641A6842F010021A601A6842F0140298
